{
	"contracts/CYW/test/Copy_Solutions/20-Events-Solution.sol": {
		"EventExample": {
			"abi": [
				{
					"anonymous": false,
					"inputs": [
						{
							"indexed": true,
							"internalType": "address",
							"name": "user",
							"type": "address"
						},
						{
							"indexed": false,
							"internalType": "string",
							"name": "username",
							"type": "string"
						}
					],
					"name": "NewUserRegistered",
					"type": "event"
				},
				{
					"inputs": [
						{
							"internalType": "string",
							"name": "_username",
							"type": "string"
						},
						{
							"internalType": "uint256",
							"name": "_age",
							"type": "uint256"
						}
					],
					"name": "registerUsers",
					"outputs": [],
					"stateMutability": "nonpayable",
					"type": "function"
				},
				{
					"inputs": [
						{
							"internalType": "address",
							"name": "",
							"type": "address"
						}
					],
					"name": "users",
					"outputs": [
						{
							"internalType": "string",
							"name": "username",
							"type": "string"
						},
						{
							"internalType": "uint256",
							"name": "age",
							"type": "uint256"
						}
					],
					"stateMutability": "view",
					"type": "function"
				}
			],
			"devdoc": {
				"kind": "dev",
				"methods": {},
				"version": 1
			},
			"evm": {
				"assembly": "    /* \"contracts/CYW/test/Copy_Solutions/20-Events-Solution.sol\":58:815  contract EventExample {... */\n  mstore(0x40, 0x80)\n  callvalue\n  dup1\n  iszero\n  tag_1\n  jumpi\n  0x00\n  dup1\n  revert\ntag_1:\n  pop\n  dataSize(sub_0)\n  dup1\n  dataOffset(sub_0)\n  0x00\n  codecopy\n  0x00\n  return\nstop\n\nsub_0: assembly {\n        /* \"contracts/CYW/test/Copy_Solutions/20-Events-Solution.sol\":58:815  contract EventExample {... */\n      mstore(0x40, 0x80)\n      callvalue\n      dup1\n      iszero\n      tag_1\n      jumpi\n      0x00\n      dup1\n      revert\n    tag_1:\n      pop\n      jumpi(tag_2, lt(calldatasize, 0x04))\n      shr(0xe0, calldataload(0x00))\n      dup1\n      0x361bf5f6\n      eq\n      tag_3\n      jumpi\n      dup1\n      0xa87430ba\n      eq\n      tag_4\n      jumpi\n    tag_2:\n      0x00\n      dup1\n      revert\n        /* \"contracts/CYW/test/Copy_Solutions/20-Events-Solution.sol\":445:813  function registerUsers(string memory _username, uint256 _age) public {... */\n    tag_3:\n      tag_5\n      0x04\n      dup1\n      calldatasize\n      sub\n      dup2\n      add\n      swap1\n      tag_6\n      swap2\n      swap1\n      tag_7\n      jump\t// in\n    tag_6:\n      tag_8\n      jump\t// in\n    tag_5:\n      stop\n        /* \"contracts/CYW/test/Copy_Solutions/20-Events-Solution.sol\":397:434  mapping(address => User) public users */\n    tag_4:\n      tag_9\n      0x04\n      dup1\n      calldatasize\n      sub\n      dup2\n      add\n      swap1\n      tag_10\n      swap2\n      swap1\n      tag_11\n      jump\t// in\n    tag_10:\n      tag_12\n      jump\t// in\n    tag_9:\n      mload(0x40)\n      tag_13\n      swap3\n      swap2\n      swap1\n      tag_14\n      jump\t// in\n    tag_13:\n      mload(0x40)\n      dup1\n      swap2\n      sub\n      swap1\n      return\n        /* \"contracts/CYW/test/Copy_Solutions/20-Events-Solution.sol\":445:813  function registerUsers(string memory _username, uint256 _age) public {... */\n    tag_8:\n        /* \"contracts/CYW/test/Copy_Solutions/20-Events-Solution.sol\":524:544  User storage newUser */\n      0x00\n        /* \"contracts/CYW/test/Copy_Solutions/20-Events-Solution.sol\":547:552  users */\n      dup1\n        /* \"contracts/CYW/test/Copy_Solutions/20-Events-Solution.sol\":547:564  users[msg.sender] */\n      0x00\n        /* \"contracts/CYW/test/Copy_Solutions/20-Events-Solution.sol\":553:563  msg.sender */\n      caller\n        /* \"contracts/CYW/test/Copy_Solutions/20-Events-Solution.sol\":547:564  users[msg.sender] */\n      0xffffffffffffffffffffffffffffffffffffffff\n      and\n      0xffffffffffffffffffffffffffffffffffffffff\n      and\n      dup2\n      mstore\n      0x20\n      add\n      swap1\n      dup2\n      mstore\n      0x20\n      add\n      0x00\n      keccak256\n        /* \"contracts/CYW/test/Copy_Solutions/20-Events-Solution.sol\":524:564  User storage newUser = users[msg.sender] */\n      swap1\n      pop\n        /* \"contracts/CYW/test/Copy_Solutions/20-Events-Solution.sol\":593:602  _username */\n      dup3\n        /* \"contracts/CYW/test/Copy_Solutions/20-Events-Solution.sol\":574:581  newUser */\n      dup2\n        /* \"contracts/CYW/test/Copy_Solutions/20-Events-Solution.sol\":574:590  newUser.username */\n      0x00\n      add\n        /* \"contracts/CYW/test/Copy_Solutions/20-Events-Solution.sol\":574:602  newUser.username = _username */\n      swap1\n      dup2\n      tag_16\n      swap2\n      swap1\n      tag_17\n      jump\t// in\n    tag_16:\n      pop\n        /* \"contracts/CYW/test/Copy_Solutions/20-Events-Solution.sol\":626:630  _age */\n      dup2\n        /* \"contracts/CYW/test/Copy_Solutions/20-Events-Solution.sol\":612:619  newUser */\n      dup2\n        /* \"contracts/CYW/test/Copy_Solutions/20-Events-Solution.sol\":612:623  newUser.age */\n      0x01\n      add\n        /* \"contracts/CYW/test/Copy_Solutions/20-Events-Solution.sol\":612:630  newUser.age = _age */\n      dup2\n      swap1\n      sstore\n      pop\n        /* \"contracts/CYW/test/Copy_Solutions/20-Events-Solution.sol\":784:794  msg.sender */\n      caller\n        /* \"contracts/CYW/test/Copy_Solutions/20-Events-Solution.sol\":766:806  NewUserRegistered(msg.sender, _username) */\n      0xffffffffffffffffffffffffffffffffffffffff\n      and\n      0x1d2b3529f3edbf84c2fbf46a16fa81880bd170f19142f18267f113903389a6dc\n        /* \"contracts/CYW/test/Copy_Solutions/20-Events-Solution.sol\":796:805  _username */\n      dup5\n        /* \"contracts/CYW/test/Copy_Solutions/20-Events-Solution.sol\":766:806  NewUserRegistered(msg.sender, _username) */\n      mload(0x40)\n      tag_18\n      swap2\n      swap1\n      tag_19\n      jump\t// in\n    tag_18:\n      mload(0x40)\n      dup1\n      swap2\n      sub\n      swap1\n      log2\n        /* \"contracts/CYW/test/Copy_Solutions/20-Events-Solution.sol\":514:813  {... */\n      pop\n        /* \"contracts/CYW/test/Copy_Solutions/20-Events-Solution.sol\":445:813  function registerUsers(string memory _username, uint256 _age) public {... */\n      pop\n      pop\n      jump\t// out\n        /* \"contracts/CYW/test/Copy_Solutions/20-Events-Solution.sol\":397:434  mapping(address => User) public users */\n    tag_12:\n      mstore(0x20, 0x00)\n      dup1\n      0x00\n      mstore\n      keccak256(0x00, 0x40)\n      0x00\n      swap2\n      pop\n      swap1\n      pop\n      dup1\n      0x00\n      add\n      dup1\n      sload\n      tag_20\n      swap1\n      tag_21\n      jump\t// in\n    tag_20:\n      dup1\n      0x1f\n      add\n      0x20\n      dup1\n      swap2\n      div\n      mul\n      0x20\n      add\n      mload(0x40)\n      swap1\n      dup2\n      add\n      0x40\n      mstore\n      dup1\n      swap3\n      swap2\n      swap1\n      dup2\n      dup2\n      mstore\n      0x20\n      add\n      dup3\n      dup1\n      sload\n      tag_22\n      swap1\n      tag_21\n      jump\t// in\n    tag_22:\n      dup1\n      iszero\n      tag_23\n      jumpi\n      dup1\n      0x1f\n      lt\n      tag_24\n      jumpi\n      0x0100\n      dup1\n      dup4\n      sload\n      div\n      mul\n      dup4\n      mstore\n      swap2\n      0x20\n      add\n      swap2\n      jump(tag_23)\n    tag_24:\n      dup3\n      add\n      swap2\n      swap1\n      0x00\n      mstore\n      keccak256(0x00, 0x20)\n      swap1\n    tag_25:\n      dup2\n      sload\n      dup2\n      mstore\n      swap1\n      0x01\n      add\n      swap1\n      0x20\n      add\n      dup1\n      dup4\n      gt\n      tag_25\n      jumpi\n      dup3\n      swap1\n      sub\n      0x1f\n      and\n      dup3\n      add\n      swap2\n    tag_23:\n      pop\n      pop\n      pop\n      pop\n      pop\n      swap1\n      dup1\n      0x01\n      add\n      sload\n      swap1\n      pop\n      dup3\n      jump\t// out\n        /* \"#utility.yul\":7:82   */\n    tag_26:\n        /* \"#utility.yul\":40:46   */\n      0x00\n        /* \"#utility.yul\":73:75   */\n      0x40\n        /* \"#utility.yul\":67:76   */\n      mload\n        /* \"#utility.yul\":57:76   */\n      swap1\n      pop\n        /* \"#utility.yul\":7:82   */\n      swap1\n      jump\t// out\n        /* \"#utility.yul\":88:205   */\n    tag_27:\n        /* \"#utility.yul\":197:198   */\n      0x00\n        /* \"#utility.yul\":194:195   */\n      dup1\n        /* \"#utility.yul\":187:199   */\n      revert\n        /* \"#utility.yul\":211:328   */\n    tag_28:\n        /* \"#utility.yul\":320:321   */\n      0x00\n        /* \"#utility.yul\":317:318   */\n      dup1\n        /* \"#utility.yul\":310:322   */\n      revert\n        /* \"#utility.yul\":334:451   */\n    tag_29:\n        /* \"#utility.yul\":443:444   */\n      0x00\n        /* \"#utility.yul\":440:441   */\n      dup1\n        /* \"#utility.yul\":433:445   */\n      revert\n        /* \"#utility.yul\":457:574   */\n    tag_30:\n        /* \"#utility.yul\":566:567   */\n      0x00\n        /* \"#utility.yul\":563:564   */\n      dup1\n        /* \"#utility.yul\":556:568   */\n      revert\n        /* \"#utility.yul\":580:682   */\n    tag_31:\n        /* \"#utility.yul\":621:627   */\n      0x00\n        /* \"#utility.yul\":672:674   */\n      0x1f\n        /* \"#utility.yul\":668:675   */\n      not\n        /* \"#utility.yul\":663:665   */\n      0x1f\n        /* \"#utility.yul\":656:661   */\n      dup4\n        /* \"#utility.yul\":652:666   */\n      add\n        /* \"#utility.yul\":648:676   */\n      and\n        /* \"#utility.yul\":638:676   */\n      swap1\n      pop\n        /* \"#utility.yul\":580:682   */\n      swap2\n      swap1\n      pop\n      jump\t// out\n        /* \"#utility.yul\":688:868   */\n    tag_32:\n        /* \"#utility.yul\":736:813   */\n      0x4e487b7100000000000000000000000000000000000000000000000000000000\n        /* \"#utility.yul\":733:734   */\n      0x00\n        /* \"#utility.yul\":726:814   */\n      mstore\n        /* \"#utility.yul\":833:837   */\n      0x41\n        /* \"#utility.yul\":830:831   */\n      0x04\n        /* \"#utility.yul\":823:838   */\n      mstore\n        /* \"#utility.yul\":857:861   */\n      0x24\n        /* \"#utility.yul\":854:855   */\n      0x00\n        /* \"#utility.yul\":847:862   */\n      revert\n        /* \"#utility.yul\":874:1155   */\n    tag_33:\n        /* \"#utility.yul\":957:984   */\n      tag_76\n        /* \"#utility.yul\":979:983   */\n      dup3\n        /* \"#utility.yul\":957:984   */\n      tag_31\n      jump\t// in\n    tag_76:\n        /* \"#utility.yul\":949:955   */\n      dup2\n        /* \"#utility.yul\":945:985   */\n      add\n        /* \"#utility.yul\":1087:1093   */\n      dup2\n        /* \"#utility.yul\":1075:1085   */\n      dup2\n        /* \"#utility.yul\":1072:1094   */\n      lt\n        /* \"#utility.yul\":1051:1069   */\n      0xffffffffffffffff\n        /* \"#utility.yul\":1039:1049   */\n      dup3\n        /* \"#utility.yul\":1036:1070   */\n      gt\n        /* \"#utility.yul\":1033:1095   */\n      or\n        /* \"#utility.yul\":1030:1118   */\n      iszero\n      tag_77\n      jumpi\n        /* \"#utility.yul\":1098:1116   */\n      tag_78\n      tag_32\n      jump\t// in\n    tag_78:\n        /* \"#utility.yul\":1030:1118   */\n    tag_77:\n        /* \"#utility.yul\":1138:1148   */\n      dup1\n        /* \"#utility.yul\":1134:1136   */\n      0x40\n        /* \"#utility.yul\":1127:1149   */\n      mstore\n        /* \"#utility.yul\":917:1155   */\n      pop\n        /* \"#utility.yul\":874:1155   */\n      pop\n      pop\n      jump\t// out\n        /* \"#utility.yul\":1161:1290   */\n    tag_34:\n        /* \"#utility.yul\":1195:1201   */\n      0x00\n        /* \"#utility.yul\":1222:1242   */\n      tag_80\n      tag_26\n      jump\t// in\n    tag_80:\n        /* \"#utility.yul\":1212:1242   */\n      swap1\n      pop\n        /* \"#utility.yul\":1251:1284   */\n      tag_81\n        /* \"#utility.yul\":1279:1283   */\n      dup3\n        /* \"#utility.yul\":1271:1277   */\n      dup3\n        /* \"#utility.yul\":1251:1284   */\n      tag_33\n      jump\t// in\n    tag_81:\n        /* \"#utility.yul\":1161:1290   */\n      swap2\n      swap1\n      pop\n      jump\t// out\n        /* \"#utility.yul\":1296:1604   */\n    tag_35:\n        /* \"#utility.yul\":1358:1362   */\n      0x00\n        /* \"#utility.yul\":1448:1466   */\n      0xffffffffffffffff\n        /* \"#utility.yul\":1440:1446   */\n      dup3\n        /* \"#utility.yul\":1437:1467   */\n      gt\n        /* \"#utility.yul\":1434:1490   */\n      iszero\n      tag_83\n      jumpi\n        /* \"#utility.yul\":1470:1488   */\n      tag_84\n      tag_32\n      jump\t// in\n    tag_84:\n        /* \"#utility.yul\":1434:1490   */\n    tag_83:\n        /* \"#utility.yul\":1508:1537   */\n      tag_85\n        /* \"#utility.yul\":1530:1536   */\n      dup3\n        /* \"#utility.yul\":1508:1537   */\n      tag_31\n      jump\t// in\n    tag_85:\n        /* \"#utility.yul\":1500:1537   */\n      swap1\n      pop\n        /* \"#utility.yul\":1592:1596   */\n      0x20\n        /* \"#utility.yul\":1586:1590   */\n      dup2\n        /* \"#utility.yul\":1582:1597   */\n      add\n        /* \"#utility.yul\":1574:1597   */\n      swap1\n      pop\n        /* \"#utility.yul\":1296:1604   */\n      swap2\n      swap1\n      pop\n      jump\t// out\n        /* \"#utility.yul\":1610:1756   */\n    tag_36:\n        /* \"#utility.yul\":1707:1713   */\n      dup3\n        /* \"#utility.yul\":1702:1705   */\n      dup2\n        /* \"#utility.yul\":1697:1700   */\n      dup4\n        /* \"#utility.yul\":1684:1714   */\n      calldatacopy\n        /* \"#utility.yul\":1748:1749   */\n      0x00\n        /* \"#utility.yul\":1739:1745   */\n      dup4\n        /* \"#utility.yul\":1734:1737   */\n      dup4\n        /* \"#utility.yul\":1730:1746   */\n      add\n        /* \"#utility.yul\":1723:1750   */\n      mstore\n        /* \"#utility.yul\":1610:1756   */\n      pop\n      pop\n      pop\n      jump\t// out\n        /* \"#utility.yul\":1762:2187   */\n    tag_37:\n        /* \"#utility.yul\":1840:1845   */\n      0x00\n        /* \"#utility.yul\":1865:1931   */\n      tag_88\n        /* \"#utility.yul\":1881:1930   */\n      tag_89\n        /* \"#utility.yul\":1923:1929   */\n      dup5\n        /* \"#utility.yul\":1881:1930   */\n      tag_35\n      jump\t// in\n    tag_89:\n        /* \"#utility.yul\":1865:1931   */\n      tag_34\n      jump\t// in\n    tag_88:\n        /* \"#utility.yul\":1856:1931   */\n      swap1\n      pop\n        /* \"#utility.yul\":1954:1960   */\n      dup3\n        /* \"#utility.yul\":1947:1952   */\n      dup2\n        /* \"#utility.yul\":1940:1961   */\n      mstore\n        /* \"#utility.yul\":1992:1996   */\n      0x20\n        /* \"#utility.yul\":1985:1990   */\n      dup2\n        /* \"#utility.yul\":1981:1997   */\n      add\n        /* \"#utility.yul\":2030:2033   */\n      dup5\n        /* \"#utility.yul\":2021:2027   */\n      dup5\n        /* \"#utility.yul\":2016:2019   */\n      dup5\n        /* \"#utility.yul\":2012:2028   */\n      add\n        /* \"#utility.yul\":2009:2034   */\n      gt\n        /* \"#utility.yul\":2006:2118   */\n      iszero\n      tag_90\n      jumpi\n        /* \"#utility.yul\":2037:2116   */\n      tag_91\n      tag_30\n      jump\t// in\n    tag_91:\n        /* \"#utility.yul\":2006:2118   */\n    tag_90:\n        /* \"#utility.yul\":2127:2181   */\n      tag_92\n        /* \"#utility.yul\":2174:2180   */\n      dup5\n        /* \"#utility.yul\":2169:2172   */\n      dup3\n        /* \"#utility.yul\":2164:2167   */\n      dup6\n        /* \"#utility.yul\":2127:2181   */\n      tag_36\n      jump\t// in\n    tag_92:\n        /* \"#utility.yul\":1846:2187   */\n      pop\n        /* \"#utility.yul\":1762:2187   */\n      swap4\n      swap3\n      pop\n      pop\n      pop\n      jump\t// out\n        /* \"#utility.yul\":2207:2547   */\n    tag_38:\n        /* \"#utility.yul\":2263:2268   */\n      0x00\n        /* \"#utility.yul\":2312:2315   */\n      dup3\n        /* \"#utility.yul\":2305:2309   */\n      0x1f\n        /* \"#utility.yul\":2297:2303   */\n      dup4\n        /* \"#utility.yul\":2293:2310   */\n      add\n        /* \"#utility.yul\":2289:2316   */\n      slt\n        /* \"#utility.yul\":2279:2401   */\n      tag_94\n      jumpi\n        /* \"#utility.yul\":2320:2399   */\n      tag_95\n      tag_29\n      jump\t// in\n    tag_95:\n        /* \"#utility.yul\":2279:2401   */\n    tag_94:\n        /* \"#utility.yul\":2437:2443   */\n      dup2\n        /* \"#utility.yul\":2424:2444   */\n      calldataload\n        /* \"#utility.yul\":2462:2541   */\n      tag_96\n        /* \"#utility.yul\":2537:2540   */\n      dup5\n        /* \"#utility.yul\":2529:2535   */\n      dup3\n        /* \"#utility.yul\":2522:2526   */\n      0x20\n        /* \"#utility.yul\":2514:2520   */\n      dup7\n        /* \"#utility.yul\":2510:2527   */\n      add\n        /* \"#utility.yul\":2462:2541   */\n      tag_37\n      jump\t// in\n    tag_96:\n        /* \"#utility.yul\":2453:2541   */\n      swap2\n      pop\n        /* \"#utility.yul\":2269:2547   */\n      pop\n        /* \"#utility.yul\":2207:2547   */\n      swap3\n      swap2\n      pop\n      pop\n      jump\t// out\n        /* \"#utility.yul\":2553:2630   */\n    tag_39:\n        /* \"#utility.yul\":2590:2597   */\n      0x00\n        /* \"#utility.yul\":2619:2624   */\n      dup2\n        /* \"#utility.yul\":2608:2624   */\n      swap1\n      pop\n        /* \"#utility.yul\":2553:2630   */\n      swap2\n      swap1\n      pop\n      jump\t// out\n        /* \"#utility.yul\":2636:2758   */\n    tag_40:\n        /* \"#utility.yul\":2709:2733   */\n      tag_99\n        /* \"#utility.yul\":2727:2732   */\n      dup2\n        /* \"#utility.yul\":2709:2733   */\n      tag_39\n      jump\t// in\n    tag_99:\n        /* \"#utility.yul\":2702:2707   */\n      dup2\n        /* \"#utility.yul\":2699:2734   */\n      eq\n        /* \"#utility.yul\":2689:2752   */\n      tag_100\n      jumpi\n        /* \"#utility.yul\":2748:2749   */\n      0x00\n        /* \"#utility.yul\":2745:2746   */\n      dup1\n        /* \"#utility.yul\":2738:2750   */\n      revert\n        /* \"#utility.yul\":2689:2752   */\n    tag_100:\n        /* \"#utility.yul\":2636:2758   */\n      pop\n      jump\t// out\n        /* \"#utility.yul\":2764:2903   */\n    tag_41:\n        /* \"#utility.yul\":2810:2815   */\n      0x00\n        /* \"#utility.yul\":2848:2854   */\n      dup2\n        /* \"#utility.yul\":2835:2855   */\n      calldataload\n        /* \"#utility.yul\":2826:2855   */\n      swap1\n      pop\n        /* \"#utility.yul\":2864:2897   */\n      tag_102\n        /* \"#utility.yul\":2891:2896   */\n      dup2\n        /* \"#utility.yul\":2864:2897   */\n      tag_40\n      jump\t// in\n    tag_102:\n        /* \"#utility.yul\":2764:2903   */\n      swap3\n      swap2\n      pop\n      pop\n      jump\t// out\n        /* \"#utility.yul\":2909:3563   */\n    tag_7:\n        /* \"#utility.yul\":2987:2993   */\n      0x00\n        /* \"#utility.yul\":2995:3001   */\n      dup1\n        /* \"#utility.yul\":3044:3046   */\n      0x40\n        /* \"#utility.yul\":3032:3041   */\n      dup4\n        /* \"#utility.yul\":3023:3030   */\n      dup6\n        /* \"#utility.yul\":3019:3042   */\n      sub\n        /* \"#utility.yul\":3015:3047   */\n      slt\n        /* \"#utility.yul\":3012:3131   */\n      iszero\n      tag_104\n      jumpi\n        /* \"#utility.yul\":3050:3129   */\n      tag_105\n      tag_27\n      jump\t// in\n    tag_105:\n        /* \"#utility.yul\":3012:3131   */\n    tag_104:\n        /* \"#utility.yul\":3198:3199   */\n      0x00\n        /* \"#utility.yul\":3187:3196   */\n      dup4\n        /* \"#utility.yul\":3183:3200   */\n      add\n        /* \"#utility.yul\":3170:3201   */\n      calldataload\n        /* \"#utility.yul\":3228:3246   */\n      0xffffffffffffffff\n        /* \"#utility.yul\":3220:3226   */\n      dup2\n        /* \"#utility.yul\":3217:3247   */\n      gt\n        /* \"#utility.yul\":3214:3331   */\n      iszero\n      tag_106\n      jumpi\n        /* \"#utility.yul\":3250:3329   */\n      tag_107\n      tag_28\n      jump\t// in\n    tag_107:\n        /* \"#utility.yul\":3214:3331   */\n    tag_106:\n        /* \"#utility.yul\":3355:3418   */\n      tag_108\n        /* \"#utility.yul\":3410:3417   */\n      dup6\n        /* \"#utility.yul\":3401:3407   */\n      dup3\n        /* \"#utility.yul\":3390:3399   */\n      dup7\n        /* \"#utility.yul\":3386:3408   */\n      add\n        /* \"#utility.yul\":3355:3418   */\n      tag_38\n      jump\t// in\n    tag_108:\n        /* \"#utility.yul\":3345:3418   */\n      swap3\n      pop\n        /* \"#utility.yul\":3141:3428   */\n      pop\n        /* \"#utility.yul\":3467:3469   */\n      0x20\n        /* \"#utility.yul\":3493:3546   */\n      tag_109\n        /* \"#utility.yul\":3538:3545   */\n      dup6\n        /* \"#utility.yul\":3529:3535   */\n      dup3\n        /* \"#utility.yul\":3518:3527   */\n      dup7\n        /* \"#utility.yul\":3514:3536   */\n      add\n        /* \"#utility.yul\":3493:3546   */\n      tag_41\n      jump\t// in\n    tag_109:\n        /* \"#utility.yul\":3483:3546   */\n      swap2\n      pop\n        /* \"#utility.yul\":3438:3556   */\n      pop\n        /* \"#utility.yul\":2909:3563   */\n      swap3\n      pop\n      swap3\n      swap1\n      pop\n      jump\t// out\n        /* \"#utility.yul\":3569:3695   */\n    tag_42:\n        /* \"#utility.yul\":3606:3613   */\n      0x00\n        /* \"#utility.yul\":3646:3688   */\n      0xffffffffffffffffffffffffffffffffffffffff\n        /* \"#utility.yul\":3639:3644   */\n      dup3\n        /* \"#utility.yul\":3635:3689   */\n      and\n        /* \"#utility.yul\":3624:3689   */\n      swap1\n      pop\n        /* \"#utility.yul\":3569:3695   */\n      swap2\n      swap1\n      pop\n      jump\t// out\n        /* \"#utility.yul\":3701:3797   */\n    tag_43:\n        /* \"#utility.yul\":3738:3745   */\n      0x00\n        /* \"#utility.yul\":3767:3791   */\n      tag_112\n        /* \"#utility.yul\":3785:3790   */\n      dup3\n        /* \"#utility.yul\":3767:3791   */\n      tag_42\n      jump\t// in\n    tag_112:\n        /* \"#utility.yul\":3756:3791   */\n      swap1\n      pop\n        /* \"#utility.yul\":3701:3797   */\n      swap2\n      swap1\n      pop\n      jump\t// out\n        /* \"#utility.yul\":3803:3925   */\n    tag_44:\n        /* \"#utility.yul\":3876:3900   */\n      tag_114\n        /* \"#utility.yul\":3894:3899   */\n      dup2\n        /* \"#utility.yul\":3876:3900   */\n      tag_43\n      jump\t// in\n    tag_114:\n        /* \"#utility.yul\":3869:3874   */\n      dup2\n        /* \"#utility.yul\":3866:3901   */\n      eq\n        /* \"#utility.yul\":3856:3919   */\n      tag_115\n      jumpi\n        /* \"#utility.yul\":3915:3916   */\n      0x00\n        /* \"#utility.yul\":3912:3913   */\n      dup1\n        /* \"#utility.yul\":3905:3917   */\n      revert\n        /* \"#utility.yul\":3856:3919   */\n    tag_115:\n        /* \"#utility.yul\":3803:3925   */\n      pop\n      jump\t// out\n        /* \"#utility.yul\":3931:4070   */\n    tag_45:\n        /* \"#utility.yul\":3977:3982   */\n      0x00\n        /* \"#utility.yul\":4015:4021   */\n      dup2\n        /* \"#utility.yul\":4002:4022   */\n      calldataload\n        /* \"#utility.yul\":3993:4022   */\n      swap1\n      pop\n        /* \"#utility.yul\":4031:4064   */\n      tag_117\n        /* \"#utility.yul\":4058:4063   */\n      dup2\n        /* \"#utility.yul\":4031:4064   */\n      tag_44\n      jump\t// in\n    tag_117:\n        /* \"#utility.yul\":3931:4070   */\n      swap3\n      swap2\n      pop\n      pop\n      jump\t// out\n        /* \"#utility.yul\":4076:4405   */\n    tag_11:\n        /* \"#utility.yul\":4135:4141   */\n      0x00\n        /* \"#utility.yul\":4184:4186   */\n      0x20\n        /* \"#utility.yul\":4172:4181   */\n      dup3\n        /* \"#utility.yul\":4163:4170   */\n      dup5\n        /* \"#utility.yul\":4159:4182   */\n      sub\n        /* \"#utility.yul\":4155:4187   */\n      slt\n        /* \"#utility.yul\":4152:4271   */\n      iszero\n      tag_119\n      jumpi\n        /* \"#utility.yul\":4190:4269   */\n      tag_120\n      tag_27\n      jump\t// in\n    tag_120:\n        /* \"#utility.yul\":4152:4271   */\n    tag_119:\n        /* \"#utility.yul\":4310:4311   */\n      0x00\n        /* \"#utility.yul\":4335:4388   */\n      tag_121\n        /* \"#utility.yul\":4380:4387   */\n      dup5\n        /* \"#utility.yul\":4371:4377   */\n      dup3\n        /* \"#utility.yul\":4360:4369   */\n      dup6\n        /* \"#utility.yul\":4356:4378   */\n      add\n        /* \"#utility.yul\":4335:4388   */\n      tag_45\n      jump\t// in\n    tag_121:\n        /* \"#utility.yul\":4325:4388   */\n      swap2\n      pop\n        /* \"#utility.yul\":4281:4398   */\n      pop\n        /* \"#utility.yul\":4076:4405   */\n      swap3\n      swap2\n      pop\n      pop\n      jump\t// out\n        /* \"#utility.yul\":4411:4510   */\n    tag_46:\n        /* \"#utility.yul\":4463:4469   */\n      0x00\n        /* \"#utility.yul\":4497:4502   */\n      dup2\n        /* \"#utility.yul\":4491:4503   */\n      mload\n        /* \"#utility.yul\":4481:4503   */\n      swap1\n      pop\n        /* \"#utility.yul\":4411:4510   */\n      swap2\n      swap1\n      pop\n      jump\t// out\n        /* \"#utility.yul\":4516:4685   */\n    tag_47:\n        /* \"#utility.yul\":4600:4611   */\n      0x00\n        /* \"#utility.yul\":4634:4640   */\n      dup3\n        /* \"#utility.yul\":4629:4632   */\n      dup3\n        /* \"#utility.yul\":4622:4641   */\n      mstore\n        /* \"#utility.yul\":4674:4678   */\n      0x20\n        /* \"#utility.yul\":4669:4672   */\n      dup3\n        /* \"#utility.yul\":4665:4679   */\n      add\n        /* \"#utility.yul\":4650:4679   */\n      swap1\n      pop\n        /* \"#utility.yul\":4516:4685   */\n      swap3\n      swap2\n      pop\n      pop\n      jump\t// out\n        /* \"#utility.yul\":4691:4937   */\n    tag_48:\n        /* \"#utility.yul\":4772:4773   */\n      0x00\n        /* \"#utility.yul\":4782:4895   */\n    tag_125:\n        /* \"#utility.yul\":4796:4802   */\n      dup4\n        /* \"#utility.yul\":4793:4794   */\n      dup2\n        /* \"#utility.yul\":4790:4803   */\n      lt\n        /* \"#utility.yul\":4782:4895   */\n      iszero\n      tag_127\n      jumpi\n        /* \"#utility.yul\":4881:4882   */\n      dup1\n        /* \"#utility.yul\":4876:4879   */\n      dup3\n        /* \"#utility.yul\":4872:4883   */\n      add\n        /* \"#utility.yul\":4866:4884   */\n      mload\n        /* \"#utility.yul\":4862:4863   */\n      dup2\n        /* \"#utility.yul\":4857:4860   */\n      dup5\n        /* \"#utility.yul\":4853:4864   */\n      add\n        /* \"#utility.yul\":4846:4885   */\n      mstore\n        /* \"#utility.yul\":4818:4820   */\n      0x20\n        /* \"#utility.yul\":4815:4816   */\n      dup2\n        /* \"#utility.yul\":4811:4821   */\n      add\n        /* \"#utility.yul\":4806:4821   */\n      swap1\n      pop\n        /* \"#utility.yul\":4782:4895   */\n      jump(tag_125)\n    tag_127:\n        /* \"#utility.yul\":4929:4930   */\n      0x00\n        /* \"#utility.yul\":4920:4926   */\n      dup5\n        /* \"#utility.yul\":4915:4918   */\n      dup5\n        /* \"#utility.yul\":4911:4927   */\n      add\n        /* \"#utility.yul\":4904:4931   */\n      mstore\n        /* \"#utility.yul\":4753:4937   */\n      pop\n        /* \"#utility.yul\":4691:4937   */\n      pop\n      pop\n      pop\n      jump\t// out\n        /* \"#utility.yul\":4943:5320   */\n    tag_49:\n        /* \"#utility.yul\":5031:5034   */\n      0x00\n        /* \"#utility.yul\":5059:5098   */\n      tag_129\n        /* \"#utility.yul\":5092:5097   */\n      dup3\n        /* \"#utility.yul\":5059:5098   */\n      tag_46\n      jump\t// in\n    tag_129:\n        /* \"#utility.yul\":5114:5185   */\n      tag_130\n        /* \"#utility.yul\":5178:5184   */\n      dup2\n        /* \"#utility.yul\":5173:5176   */\n      dup6\n        /* \"#utility.yul\":5114:5185   */\n      tag_47\n      jump\t// in\n    tag_130:\n        /* \"#utility.yul\":5107:5185   */\n      swap4\n      pop\n        /* \"#utility.yul\":5194:5259   */\n      tag_131\n        /* \"#utility.yul\":5252:5258   */\n      dup2\n        /* \"#utility.yul\":5247:5250   */\n      dup6\n        /* \"#utility.yul\":5240:5244   */\n      0x20\n        /* \"#utility.yul\":5233:5238   */\n      dup7\n        /* \"#utility.yul\":5229:5245   */\n      add\n        /* \"#utility.yul\":5194:5259   */\n      tag_48\n      jump\t// in\n    tag_131:\n        /* \"#utility.yul\":5284:5313   */\n      tag_132\n        /* \"#utility.yul\":5306:5312   */\n      dup2\n        /* \"#utility.yul\":5284:5313   */\n      tag_31\n      jump\t// in\n    tag_132:\n        /* \"#utility.yul\":5279:5282   */\n      dup5\n        /* \"#utility.yul\":5275:5314   */\n      add\n        /* \"#utility.yul\":5268:5314   */\n      swap2\n      pop\n        /* \"#utility.yul\":5035:5320   */\n      pop\n        /* \"#utility.yul\":4943:5320   */\n      swap3\n      swap2\n      pop\n      pop\n      jump\t// out\n        /* \"#utility.yul\":5326:5444   */\n    tag_50:\n        /* \"#utility.yul\":5413:5437   */\n      tag_134\n        /* \"#utility.yul\":5431:5436   */\n      dup2\n        /* \"#utility.yul\":5413:5437   */\n      tag_39\n      jump\t// in\n    tag_134:\n        /* \"#utility.yul\":5408:5411   */\n      dup3\n        /* \"#utility.yul\":5401:5438   */\n      mstore\n        /* \"#utility.yul\":5326:5444   */\n      pop\n      pop\n      jump\t// out\n        /* \"#utility.yul\":5450:5873   */\n    tag_14:\n        /* \"#utility.yul\":5591:5595   */\n      0x00\n        /* \"#utility.yul\":5629:5631   */\n      0x40\n        /* \"#utility.yul\":5618:5627   */\n      dup3\n        /* \"#utility.yul\":5614:5632   */\n      add\n        /* \"#utility.yul\":5606:5632   */\n      swap1\n      pop\n        /* \"#utility.yul\":5678:5687   */\n      dup2\n        /* \"#utility.yul\":5672:5676   */\n      dup2\n        /* \"#utility.yul\":5668:5688   */\n      sub\n        /* \"#utility.yul\":5664:5665   */\n      0x00\n        /* \"#utility.yul\":5653:5662   */\n      dup4\n        /* \"#utility.yul\":5649:5666   */\n      add\n        /* \"#utility.yul\":5642:5689   */\n      mstore\n        /* \"#utility.yul\":5706:5784   */\n      tag_136\n        /* \"#utility.yul\":5779:5783   */\n      dup2\n        /* \"#utility.yul\":5770:5776   */\n      dup6\n        /* \"#utility.yul\":5706:5784   */\n      tag_49\n      jump\t// in\n    tag_136:\n        /* \"#utility.yul\":5698:5784   */\n      swap1\n      pop\n        /* \"#utility.yul\":5794:5866   */\n      tag_137\n        /* \"#utility.yul\":5862:5864   */\n      0x20\n        /* \"#utility.yul\":5851:5860   */\n      dup4\n        /* \"#utility.yul\":5847:5865   */\n      add\n        /* \"#utility.yul\":5838:5844   */\n      dup5\n        /* \"#utility.yul\":5794:5866   */\n      tag_50\n      jump\t// in\n    tag_137:\n        /* \"#utility.yul\":5450:5873   */\n      swap4\n      swap3\n      pop\n      pop\n      pop\n      jump\t// out\n        /* \"#utility.yul\":5879:6059   */\n    tag_51:\n        /* \"#utility.yul\":5927:6004   */\n      0x4e487b7100000000000000000000000000000000000000000000000000000000\n        /* \"#utility.yul\":5924:5925   */\n      0x00\n        /* \"#utility.yul\":5917:6005   */\n      mstore\n        /* \"#utility.yul\":6024:6028   */\n      0x22\n        /* \"#utility.yul\":6021:6022   */\n      0x04\n        /* \"#utility.yul\":6014:6029   */\n      mstore\n        /* \"#utility.yul\":6048:6052   */\n      0x24\n        /* \"#utility.yul\":6045:6046   */\n      0x00\n        /* \"#utility.yul\":6038:6053   */\n      revert\n        /* \"#utility.yul\":6065:6385   */\n    tag_21:\n        /* \"#utility.yul\":6109:6115   */\n      0x00\n        /* \"#utility.yul\":6146:6147   */\n      0x02\n        /* \"#utility.yul\":6140:6144   */\n      dup3\n        /* \"#utility.yul\":6136:6148   */\n      div\n        /* \"#utility.yul\":6126:6148   */\n      swap1\n      pop\n        /* \"#utility.yul\":6193:6194   */\n      0x01\n        /* \"#utility.yul\":6187:6191   */\n      dup3\n        /* \"#utility.yul\":6183:6195   */\n      and\n        /* \"#utility.yul\":6214:6232   */\n      dup1\n        /* \"#utility.yul\":6204:6285   */\n      tag_140\n      jumpi\n        /* \"#utility.yul\":6270:6274   */\n      0x7f\n        /* \"#utility.yul\":6262:6268   */\n      dup3\n        /* \"#utility.yul\":6258:6275   */\n      and\n        /* \"#utility.yul\":6248:6275   */\n      swap2\n      pop\n        /* \"#utility.yul\":6204:6285   */\n    tag_140:\n        /* \"#utility.yul\":6332:6334   */\n      0x20\n        /* \"#utility.yul\":6324:6330   */\n      dup3\n        /* \"#utility.yul\":6321:6335   */\n      lt\n        /* \"#utility.yul\":6301:6319   */\n      dup2\n        /* \"#utility.yul\":6298:6336   */\n      sub\n        /* \"#utility.yul\":6295:6379   */\n      tag_141\n      jumpi\n        /* \"#utility.yul\":6351:6369   */\n      tag_142\n      tag_51\n      jump\t// in\n    tag_142:\n        /* \"#utility.yul\":6295:6379   */\n    tag_141:\n        /* \"#utility.yul\":6116:6385   */\n      pop\n        /* \"#utility.yul\":6065:6385   */\n      swap2\n      swap1\n      pop\n      jump\t// out\n        /* \"#utility.yul\":6391:6532   */\n    tag_52:\n        /* \"#utility.yul\":6440:6444   */\n      0x00\n        /* \"#utility.yul\":6463:6466   */\n      dup2\n        /* \"#utility.yul\":6455:6466   */\n      swap1\n      pop\n        /* \"#utility.yul\":6486:6489   */\n      dup2\n        /* \"#utility.yul\":6483:6484   */\n      0x00\n        /* \"#utility.yul\":6476:6490   */\n      mstore\n        /* \"#utility.yul\":6520:6524   */\n      0x20\n        /* \"#utility.yul\":6517:6518   */\n      0x00\n        /* \"#utility.yul\":6507:6525   */\n      keccak256\n        /* \"#utility.yul\":6499:6525   */\n      swap1\n      pop\n        /* \"#utility.yul\":6391:6532   */\n      swap2\n      swap1\n      pop\n      jump\t// out\n        /* \"#utility.yul\":6538:6631   */\n    tag_53:\n        /* \"#utility.yul\":6575:6581   */\n      0x00\n        /* \"#utility.yul\":6622:6624   */\n      0x20\n        /* \"#utility.yul\":6617:6619   */\n      0x1f\n        /* \"#utility.yul\":6610:6615   */\n      dup4\n        /* \"#utility.yul\":6606:6620   */\n      add\n        /* \"#utility.yul\":6602:6625   */\n      div\n        /* \"#utility.yul\":6592:6625   */\n      swap1\n      pop\n        /* \"#utility.yul\":6538:6631   */\n      swap2\n      swap1\n      pop\n      jump\t// out\n        /* \"#utility.yul\":6637:6744   */\n    tag_54:\n        /* \"#utility.yul\":6681:6689   */\n      0x00\n        /* \"#utility.yul\":6731:6736   */\n      dup3\n        /* \"#utility.yul\":6725:6729   */\n      dup3\n        /* \"#utility.yul\":6721:6737   */\n      shl\n        /* \"#utility.yul\":6700:6737   */\n      swap1\n      pop\n        /* \"#utility.yul\":6637:6744   */\n      swap3\n      swap2\n      pop\n      pop\n      jump\t// out\n        /* \"#utility.yul\":6750:7143   */\n    tag_55:\n        /* \"#utility.yul\":6819:6825   */\n      0x00\n        /* \"#utility.yul\":6869:6870   */\n      0x08\n        /* \"#utility.yul\":6857:6867   */\n      dup4\n        /* \"#utility.yul\":6853:6871   */\n      mul\n        /* \"#utility.yul\":6892:6989   */\n      tag_147\n        /* \"#utility.yul\":6922:6988   */\n      0xffffffffffffffffffffffffffffffffffffffffffffffffffffffffffffffff\n        /* \"#utility.yul\":6911:6920   */\n      dup3\n        /* \"#utility.yul\":6892:6989   */\n      tag_54\n      jump\t// in\n    tag_147:\n        /* \"#utility.yul\":7010:7049   */\n      tag_148\n        /* \"#utility.yul\":7040:7048   */\n      dup7\n        /* \"#utility.yul\":7029:7038   */\n      dup4\n        /* \"#utility.yul\":7010:7049   */\n      tag_54\n      jump\t// in\n    tag_148:\n        /* \"#utility.yul\":6998:7049   */\n      swap6\n      pop\n        /* \"#utility.yul\":7082:7086   */\n      dup1\n        /* \"#utility.yul\":7078:7087   */\n      not\n        /* \"#utility.yul\":7071:7076   */\n      dup5\n        /* \"#utility.yul\":7067:7088   */\n      and\n        /* \"#utility.yul\":7058:7088   */\n      swap4\n      pop\n        /* \"#utility.yul\":7131:7135   */\n      dup1\n        /* \"#utility.yul\":7121:7129   */\n      dup7\n        /* \"#utility.yul\":7117:7136   */\n      and\n        /* \"#utility.yul\":7110:7115   */\n      dup5\n        /* \"#utility.yul\":7107:7137   */\n      or\n        /* \"#utility.yul\":7097:7137   */\n      swap3\n      pop\n        /* \"#utility.yul\":6826:7143   */\n      pop\n      pop\n        /* \"#utility.yul\":6750:7143   */\n      swap4\n      swap3\n      pop\n      pop\n      pop\n      jump\t// out\n        /* \"#utility.yul\":7149:7209   */\n    tag_56:\n        /* \"#utility.yul\":7177:7180   */\n      0x00\n        /* \"#utility.yul\":7198:7203   */\n      dup2\n        /* \"#utility.yul\":7191:7203   */\n      swap1\n      pop\n        /* \"#utility.yul\":7149:7209   */\n      swap2\n      swap1\n      pop\n      jump\t// out\n        /* \"#utility.yul\":7215:7357   */\n    tag_57:\n        /* \"#utility.yul\":7265:7274   */\n      0x00\n        /* \"#utility.yul\":7298:7351   */\n      tag_151\n        /* \"#utility.yul\":7316:7350   */\n      tag_152\n        /* \"#utility.yul\":7325:7349   */\n      tag_153\n        /* \"#utility.yul\":7343:7348   */\n      dup5\n        /* \"#utility.yul\":7325:7349   */\n      tag_39\n      jump\t// in\n    tag_153:\n        /* \"#utility.yul\":7316:7350   */\n      tag_56\n      jump\t// in\n    tag_152:\n        /* \"#utility.yul\":7298:7351   */\n      tag_39\n      jump\t// in\n    tag_151:\n        /* \"#utility.yul\":7285:7351   */\n      swap1\n      pop\n        /* \"#utility.yul\":7215:7357   */\n      swap2\n      swap1\n      pop\n      jump\t// out\n        /* \"#utility.yul\":7363:7438   */\n    tag_58:\n        /* \"#utility.yul\":7406:7409   */\n      0x00\n        /* \"#utility.yul\":7427:7432   */\n      dup2\n        /* \"#utility.yul\":7420:7432   */\n      swap1\n      pop\n        /* \"#utility.yul\":7363:7438   */\n      swap2\n      swap1\n      pop\n      jump\t// out\n        /* \"#utility.yul\":7444:7713   */\n    tag_59:\n        /* \"#utility.yul\":7554:7593   */\n      tag_156\n        /* \"#utility.yul\":7585:7592   */\n      dup4\n        /* \"#utility.yul\":7554:7593   */\n      tag_57\n      jump\t// in\n    tag_156:\n        /* \"#utility.yul\":7615:7706   */\n      tag_157\n        /* \"#utility.yul\":7664:7705   */\n      tag_158\n        /* \"#utility.yul\":7688:7704   */\n      dup3\n        /* \"#utility.yul\":7664:7705   */\n      tag_58\n      jump\t// in\n    tag_158:\n        /* \"#utility.yul\":7656:7662   */\n      dup5\n        /* \"#utility.yul\":7649:7653   */\n      dup5\n        /* \"#utility.yul\":7643:7654   */\n      sload\n        /* \"#utility.yul\":7615:7706   */\n      tag_55\n      jump\t// in\n    tag_157:\n        /* \"#utility.yul\":7609:7613   */\n      dup3\n        /* \"#utility.yul\":7602:7707   */\n      sstore\n        /* \"#utility.yul\":7520:7713   */\n      pop\n        /* \"#utility.yul\":7444:7713   */\n      pop\n      pop\n      pop\n      jump\t// out\n        /* \"#utility.yul\":7719:7792   */\n    tag_60:\n        /* \"#utility.yul\":7764:7767   */\n      0x00\n        /* \"#utility.yul\":7719:7792   */\n      swap1\n      jump\t// out\n        /* \"#utility.yul\":7798:7987   */\n    tag_61:\n        /* \"#utility.yul\":7875:7907   */\n      tag_161\n      tag_60\n      jump\t// in\n    tag_161:\n        /* \"#utility.yul\":7916:7981   */\n      tag_162\n        /* \"#utility.yul\":7974:7980   */\n      dup2\n        /* \"#utility.yul\":7966:7972   */\n      dup5\n        /* \"#utility.yul\":7960:7964   */\n      dup5\n        /* \"#utility.yul\":7916:7981   */\n      tag_59\n      jump\t// in\n    tag_162:\n        /* \"#utility.yul\":7851:7987   */\n      pop\n        /* \"#utility.yul\":7798:7987   */\n      pop\n      pop\n      jump\t// out\n        /* \"#utility.yul\":7993:8179   */\n    tag_62:\n        /* \"#utility.yul\":8053:8173   */\n    tag_164:\n        /* \"#utility.yul\":8070:8073   */\n      dup2\n        /* \"#utility.yul\":8063:8068   */\n      dup2\n        /* \"#utility.yul\":8060:8074   */\n      lt\n        /* \"#utility.yul\":8053:8173   */\n      iszero\n      tag_166\n      jumpi\n        /* \"#utility.yul\":8124:8163   */\n      tag_167\n        /* \"#utility.yul\":8161:8162   */\n      0x00\n        /* \"#utility.yul\":8154:8159   */\n      dup3\n        /* \"#utility.yul\":8124:8163   */\n      tag_61\n      jump\t// in\n    tag_167:\n        /* \"#utility.yul\":8097:8098   */\n      0x01\n        /* \"#utility.yul\":8090:8095   */\n      dup2\n        /* \"#utility.yul\":8086:8099   */\n      add\n        /* \"#utility.yul\":8077:8099   */\n      swap1\n      pop\n        /* \"#utility.yul\":8053:8173   */\n      jump(tag_164)\n    tag_166:\n        /* \"#utility.yul\":7993:8179   */\n      pop\n      pop\n      jump\t// out\n        /* \"#utility.yul\":8185:8728   */\n    tag_63:\n        /* \"#utility.yul\":8286:8288   */\n      0x1f\n        /* \"#utility.yul\":8281:8284   */\n      dup3\n        /* \"#utility.yul\":8278:8289   */\n      gt\n        /* \"#utility.yul\":8275:8721   */\n      iszero\n      tag_169\n      jumpi\n        /* \"#utility.yul\":8320:8358   */\n      tag_170\n        /* \"#utility.yul\":8352:8357   */\n      dup2\n        /* \"#utility.yul\":8320:8358   */\n      tag_52\n      jump\t// in\n    tag_170:\n        /* \"#utility.yul\":8404:8433   */\n      tag_171\n        /* \"#utility.yul\":8422:8432   */\n      dup5\n        /* \"#utility.yul\":8404:8433   */\n      tag_53\n      jump\t// in\n    tag_171:\n        /* \"#utility.yul\":8394:8402   */\n      dup2\n        /* \"#utility.yul\":8390:8434   */\n      add\n        /* \"#utility.yul\":8587:8589   */\n      0x20\n        /* \"#utility.yul\":8575:8585   */\n      dup6\n        /* \"#utility.yul\":8572:8590   */\n      lt\n        /* \"#utility.yul\":8569:8618   */\n      iszero\n      tag_172\n      jumpi\n        /* \"#utility.yul\":8608:8616   */\n      dup2\n        /* \"#utility.yul\":8593:8616   */\n      swap1\n      pop\n        /* \"#utility.yul\":8569:8618   */\n    tag_172:\n        /* \"#utility.yul\":8631:8711   */\n      tag_173\n        /* \"#utility.yul\":8687:8709   */\n      tag_174\n        /* \"#utility.yul\":8705:8708   */\n      dup6\n        /* \"#utility.yul\":8687:8709   */\n      tag_53\n      jump\t// in\n    tag_174:\n        /* \"#utility.yul\":8677:8685   */\n      dup4\n        /* \"#utility.yul\":8673:8710   */\n      add\n        /* \"#utility.yul\":8660:8671   */\n      dup3\n        /* \"#utility.yul\":8631:8711   */\n      tag_62\n      jump\t// in\n    tag_173:\n        /* \"#utility.yul\":8290:8721   */\n      pop\n      pop\n        /* \"#utility.yul\":8275:8721   */\n    tag_169:\n        /* \"#utility.yul\":8185:8728   */\n      pop\n      pop\n      pop\n      jump\t// out\n        /* \"#utility.yul\":8734:8851   */\n    tag_64:\n        /* \"#utility.yul\":8788:8796   */\n      0x00\n        /* \"#utility.yul\":8838:8843   */\n      dup3\n        /* \"#utility.yul\":8832:8836   */\n      dup3\n        /* \"#utility.yul\":8828:8844   */\n      shr\n        /* \"#utility.yul\":8807:8844   */\n      swap1\n      pop\n        /* \"#utility.yul\":8734:8851   */\n      swap3\n      swap2\n      pop\n      pop\n      jump\t// out\n        /* \"#utility.yul\":8857:9026   */\n    tag_65:\n        /* \"#utility.yul\":8901:8907   */\n      0x00\n        /* \"#utility.yul\":8934:8985   */\n      tag_177\n        /* \"#utility.yul\":8982:8983   */\n      0x00\n        /* \"#utility.yul\":8978:8984   */\n      not\n        /* \"#utility.yul\":8970:8975   */\n      dup5\n        /* \"#utility.yul\":8967:8968   */\n      0x08\n        /* \"#utility.yul\":8963:8976   */\n      mul\n        /* \"#utility.yul\":8934:8985   */\n      tag_64\n      jump\t// in\n    tag_177:\n        /* \"#utility.yul\":8930:8986   */\n      not\n        /* \"#utility.yul\":9015:9019   */\n      dup1\n        /* \"#utility.yul\":9009:9013   */\n      dup4\n        /* \"#utility.yul\":9005:9020   */\n      and\n        /* \"#utility.yul\":8995:9020   */\n      swap2\n      pop\n        /* \"#utility.yul\":8908:9026   */\n      pop\n        /* \"#utility.yul\":8857:9026   */\n      swap3\n      swap2\n      pop\n      pop\n      jump\t// out\n        /* \"#utility.yul\":9031:9326   */\n    tag_66:\n        /* \"#utility.yul\":9107:9111   */\n      0x00\n        /* \"#utility.yul\":9253:9282   */\n      tag_179\n        /* \"#utility.yul\":9278:9281   */\n      dup4\n        /* \"#utility.yul\":9272:9276   */\n      dup4\n        /* \"#utility.yul\":9253:9282   */\n      tag_65\n      jump\t// in\n    tag_179:\n        /* \"#utility.yul\":9245:9282   */\n      swap2\n      pop\n        /* \"#utility.yul\":9315:9318   */\n      dup3\n        /* \"#utility.yul\":9312:9313   */\n      0x02\n        /* \"#utility.yul\":9308:9319   */\n      mul\n        /* \"#utility.yul\":9302:9306   */\n      dup3\n        /* \"#utility.yul\":9299:9320   */\n      or\n        /* \"#utility.yul\":9291:9320   */\n      swap1\n      pop\n        /* \"#utility.yul\":9031:9326   */\n      swap3\n      swap2\n      pop\n      pop\n      jump\t// out\n        /* \"#utility.yul\":9331:10726   */\n    tag_17:\n        /* \"#utility.yul\":9448:9485   */\n      tag_181\n        /* \"#utility.yul\":9481:9484   */\n      dup3\n        /* \"#utility.yul\":9448:9485   */\n      tag_46\n      jump\t// in\n    tag_181:\n        /* \"#utility.yul\":9550:9568   */\n      0xffffffffffffffff\n        /* \"#utility.yul\":9542:9548   */\n      dup2\n        /* \"#utility.yul\":9539:9569   */\n      gt\n        /* \"#utility.yul\":9536:9592   */\n      iszero\n      tag_182\n      jumpi\n        /* \"#utility.yul\":9572:9590   */\n      tag_183\n      tag_32\n      jump\t// in\n    tag_183:\n        /* \"#utility.yul\":9536:9592   */\n    tag_182:\n        /* \"#utility.yul\":9616:9654   */\n      tag_184\n        /* \"#utility.yul\":9648:9652   */\n      dup3\n        /* \"#utility.yul\":9642:9653   */\n      sload\n        /* \"#utility.yul\":9616:9654   */\n      tag_21\n      jump\t// in\n    tag_184:\n        /* \"#utility.yul\":9701:9768   */\n      tag_185\n        /* \"#utility.yul\":9761:9767   */\n      dup3\n        /* \"#utility.yul\":9753:9759   */\n      dup3\n        /* \"#utility.yul\":9747:9751   */\n      dup6\n        /* \"#utility.yul\":9701:9768   */\n      tag_63\n      jump\t// in\n    tag_185:\n        /* \"#utility.yul\":9795:9796   */\n      0x00\n        /* \"#utility.yul\":9819:9823   */\n      0x20\n        /* \"#utility.yul\":9806:9823   */\n      swap1\n      pop\n        /* \"#utility.yul\":9851:9853   */\n      0x1f\n        /* \"#utility.yul\":9843:9849   */\n      dup4\n        /* \"#utility.yul\":9840:9854   */\n      gt\n        /* \"#utility.yul\":9868:9869   */\n      0x01\n        /* \"#utility.yul\":9863:10481   */\n      dup2\n      eq\n      tag_187\n      jumpi\n        /* \"#utility.yul\":10525:10526   */\n      0x00\n        /* \"#utility.yul\":10542:10548   */\n      dup5\n        /* \"#utility.yul\":10539:10616   */\n      iszero\n      tag_188\n      jumpi\n        /* \"#utility.yul\":10591:10600   */\n      dup3\n        /* \"#utility.yul\":10586:10589   */\n      dup8\n        /* \"#utility.yul\":10582:10601   */\n      add\n        /* \"#utility.yul\":10576:10602   */\n      mload\n        /* \"#utility.yul\":10567:10602   */\n      swap1\n      pop\n        /* \"#utility.yul\":10539:10616   */\n    tag_188:\n        /* \"#utility.yul\":10642:10709   */\n      tag_189\n        /* \"#utility.yul\":10702:10708   */\n      dup6\n        /* \"#utility.yul\":10695:10700   */\n      dup3\n        /* \"#utility.yul\":10642:10709   */\n      tag_66\n      jump\t// in\n    tag_189:\n        /* \"#utility.yul\":10636:10640   */\n      dup7\n        /* \"#utility.yul\":10629:10710   */\n      sstore\n        /* \"#utility.yul\":10498:10720   */\n      pop\n        /* \"#utility.yul\":9833:10720   */\n      jump(tag_186)\n        /* \"#utility.yul\":9863:10481   */\n    tag_187:\n        /* \"#utility.yul\":9915:9919   */\n      0x1f\n        /* \"#utility.yul\":9911:9920   */\n      not\n        /* \"#utility.yul\":9903:9909   */\n      dup5\n        /* \"#utility.yul\":9899:9921   */\n      and\n        /* \"#utility.yul\":9949:9986   */\n      tag_190\n        /* \"#utility.yul\":9981:9985   */\n      dup7\n        /* \"#utility.yul\":9949:9986   */\n      tag_52\n      jump\t// in\n    tag_190:\n        /* \"#utility.yul\":10008:10009   */\n      0x00\n        /* \"#utility.yul\":10022:10230   */\n    tag_191:\n        /* \"#utility.yul\":10036:10043   */\n      dup3\n        /* \"#utility.yul\":10033:10034   */\n      dup2\n        /* \"#utility.yul\":10030:10044   */\n      lt\n        /* \"#utility.yul\":10022:10230   */\n      iszero\n      tag_193\n      jumpi\n        /* \"#utility.yul\":10115:10124   */\n      dup5\n        /* \"#utility.yul\":10110:10113   */\n      dup10\n        /* \"#utility.yul\":10106:10125   */\n      add\n        /* \"#utility.yul\":10100:10126   */\n      mload\n        /* \"#utility.yul\":10092:10098   */\n      dup3\n        /* \"#utility.yul\":10085:10127   */\n      sstore\n        /* \"#utility.yul\":10166:10167   */\n      0x01\n        /* \"#utility.yul\":10158:10164   */\n      dup3\n        /* \"#utility.yul\":10154:10168   */\n      add\n        /* \"#utility.yul\":10144:10168   */\n      swap2\n      pop\n        /* \"#utility.yul\":10213:10215   */\n      0x20\n        /* \"#utility.yul\":10202:10211   */\n      dup6\n        /* \"#utility.yul\":10198:10216   */\n      add\n        /* \"#utility.yul\":10185:10216   */\n      swap5\n      pop\n        /* \"#utility.yul\":10059:10063   */\n      0x20\n        /* \"#utility.yul\":10056:10057   */\n      dup2\n        /* \"#utility.yul\":10052:10064   */\n      add\n        /* \"#utility.yul\":10047:10064   */\n      swap1\n      pop\n        /* \"#utility.yul\":10022:10230   */\n      jump(tag_191)\n    tag_193:\n        /* \"#utility.yul\":10258:10264   */\n      dup7\n        /* \"#utility.yul\":10249:10256   */\n      dup4\n        /* \"#utility.yul\":10246:10265   */\n      lt\n        /* \"#utility.yul\":10243:10422   */\n      iszero\n      tag_194\n      jumpi\n        /* \"#utility.yul\":10316:10325   */\n      dup5\n        /* \"#utility.yul\":10311:10314   */\n      dup10\n        /* \"#utility.yul\":10307:10326   */\n      add\n        /* \"#utility.yul\":10301:10327   */\n      mload\n        /* \"#utility.yul\":10359:10407   */\n      tag_195\n        /* \"#utility.yul\":10401:10405   */\n      0x1f\n        /* \"#utility.yul\":10393:10399   */\n      dup10\n        /* \"#utility.yul\":10389:10406   */\n      and\n        /* \"#utility.yul\":10378:10387   */\n      dup3\n        /* \"#utility.yul\":10359:10407   */\n      tag_65\n      jump\t// in\n    tag_195:\n        /* \"#utility.yul\":10351:10357   */\n      dup4\n        /* \"#utility.yul\":10344:10408   */\n      sstore\n        /* \"#utility.yul\":10266:10422   */\n      pop\n        /* \"#utility.yul\":10243:10422   */\n    tag_194:\n        /* \"#utility.yul\":10468:10469   */\n      0x01\n        /* \"#utility.yul\":10464:10465   */\n      0x02\n        /* \"#utility.yul\":10456:10462   */\n      dup9\n        /* \"#utility.yul\":10452:10466   */\n      mul\n        /* \"#utility.yul\":10448:10470   */\n      add\n        /* \"#utility.yul\":10442:10446   */\n      dup9\n        /* \"#utility.yul\":10435:10471   */\n      sstore\n        /* \"#utility.yul\":9870:10481   */\n      pop\n      pop\n      pop\n        /* \"#utility.yul\":9833:10720   */\n    tag_186:\n      pop\n        /* \"#utility.yul\":9423:10726   */\n      pop\n      pop\n      pop\n        /* \"#utility.yul\":9331:10726   */\n      pop\n      pop\n      jump\t// out\n        /* \"#utility.yul\":10732:11045   */\n    tag_19:\n        /* \"#utility.yul\":10845:10849   */\n      0x00\n        /* \"#utility.yul\":10883:10885   */\n      0x20\n        /* \"#utility.yul\":10872:10881   */\n      dup3\n        /* \"#utility.yul\":10868:10886   */\n      add\n        /* \"#utility.yul\":10860:10886   */\n      swap1\n      pop\n        /* \"#utility.yul\":10932:10941   */\n      dup2\n        /* \"#utility.yul\":10926:10930   */\n      dup2\n        /* \"#utility.yul\":10922:10942   */\n      sub\n        /* \"#utility.yul\":10918:10919   */\n      0x00\n        /* \"#utility.yul\":10907:10916   */\n      dup4\n        /* \"#utility.yul\":10903:10920   */\n      add\n        /* \"#utility.yul\":10896:10943   */\n      mstore\n        /* \"#utility.yul\":10960:11038   */\n      tag_197\n        /* \"#utility.yul\":11033:11037   */\n      dup2\n        /* \"#utility.yul\":11024:11030   */\n      dup5\n        /* \"#utility.yul\":10960:11038   */\n      tag_49\n      jump\t// in\n    tag_197:\n        /* \"#utility.yul\":10952:11038   */\n      swap1\n      pop\n        /* \"#utility.yul\":10732:11045   */\n      swap3\n      swap2\n      pop\n      pop\n      jump\t// out\n\n    auxdata: 0xa26469706673582212203eacff78140328898de2e1b06ff2ddc406ce4e77307e6bb6de2ce478a9c8eabe64736f6c63430008120033\n}\n",
				"bytecode": {
					"linkReferences": {},
					"object": "608060405234801561001057600080fd5b5061084f806100206000396000f3fe608060405234801561001057600080fd5b50600436106100365760003560e01c8063361bf5f61461003b578063a87430ba14610057575b600080fd5b61005560048036038101906100509190610374565b610088565b005b610071600480360381019061006c919061042e565b610138565b60405161007f9291906104e9565b60405180910390f35b60008060003373ffffffffffffffffffffffffffffffffffffffff1673ffffffffffffffffffffffffffffffffffffffff1681526020019081526020016000209050828160000190816100db9190610725565b508181600101819055503373ffffffffffffffffffffffffffffffffffffffff167f1d2b3529f3edbf84c2fbf46a16fa81880bd170f19142f18267f113903389a6dc8460405161012b91906107f7565b60405180910390a2505050565b600060205280600052604060002060009150905080600001805461015b90610548565b80601f016020809104026020016040519081016040528092919081815260200182805461018790610548565b80156101d45780601f106101a9576101008083540402835291602001916101d4565b820191906000526020600020905b8154815290600101906020018083116101b757829003601f168201915b5050505050908060010154905082565b6000604051905090565b600080fd5b600080fd5b600080fd5b600080fd5b6000601f19601f8301169050919050565b7f4e487b7100000000000000000000000000000000000000000000000000000000600052604160045260246000fd5b61024b82610202565b810181811067ffffffffffffffff8211171561026a57610269610213565b5b80604052505050565b600061027d6101e4565b90506102898282610242565b919050565b600067ffffffffffffffff8211156102a9576102a8610213565b5b6102b282610202565b9050602081019050919050565b82818337600083830152505050565b60006102e16102dc8461028e565b610273565b9050828152602081018484840111156102fd576102fc6101fd565b5b6103088482856102bf565b509392505050565b600082601f830112610325576103246101f8565b5b81356103358482602086016102ce565b91505092915050565b6000819050919050565b6103518161033e565b811461035c57600080fd5b50565b60008135905061036e81610348565b92915050565b6000806040838503121561038b5761038a6101ee565b5b600083013567ffffffffffffffff8111156103a9576103a86101f3565b5b6103b585828601610310565b92505060206103c68582860161035f565b9150509250929050565b600073ffffffffffffffffffffffffffffffffffffffff82169050919050565b60006103fb826103d0565b9050919050565b61040b816103f0565b811461041657600080fd5b50565b60008135905061042881610402565b92915050565b600060208284031215610444576104436101ee565b5b600061045284828501610419565b91505092915050565b600081519050919050565b600082825260208201905092915050565b60005b8381101561049557808201518184015260208101905061047a565b60008484015250505050565b60006104ac8261045b565b6104b68185610466565b93506104c6818560208601610477565b6104cf81610202565b840191505092915050565b6104e38161033e565b82525050565b6000604082019050818103600083015261050381856104a1565b905061051260208301846104da565b9392505050565b7f4e487b7100000000000000000000000000000000000000000000000000000000600052602260045260246000fd5b6000600282049050600182168061056057607f821691505b60208210810361057357610572610519565b5b50919050565b60008190508160005260206000209050919050565b60006020601f8301049050919050565b600082821b905092915050565b6000600883026105db7fffffffffffffffffffffffffffffffffffffffffffffffffffffffffffffffff8261059e565b6105e5868361059e565b95508019841693508086168417925050509392505050565b6000819050919050565b600061062261061d6106188461033e565b6105fd565b61033e565b9050919050565b6000819050919050565b61063c83610607565b61065061064882610629565b8484546105ab565b825550505050565b600090565b610665610658565b610670818484610633565b505050565b5b818110156106945761068960008261065d565b600181019050610676565b5050565b601f8211156106d9576106aa81610579565b6106b38461058e565b810160208510156106c2578190505b6106d66106ce8561058e565b830182610675565b50505b505050565b600082821c905092915050565b60006106fc600019846008026106de565b1980831691505092915050565b600061071583836106eb565b9150826002028217905092915050565b61072e8261045b565b67ffffffffffffffff81111561074757610746610213565b5b6107518254610548565b61075c828285610698565b600060209050601f83116001811461078f576000841561077d578287015190505b6107878582610709565b8655506107ef565b601f19841661079d86610579565b60005b828110156107c5578489015182556001820191506020850194506020810190506107a0565b868310156107e257848901516107de601f8916826106eb565b8355505b6001600288020188555050505b505050505050565b6000602082019050818103600083015261081181846104a1565b90509291505056fea26469706673582212203eacff78140328898de2e1b06ff2ddc406ce4e77307e6bb6de2ce478a9c8eabe64736f6c63430008120033",
					"opcodes": "PUSH1 0x80 PUSH1 0x40 MSTORE CALLVALUE DUP1 ISZERO PUSH2 0x10 JUMPI PUSH1 0x0 DUP1 REVERT JUMPDEST POP PUSH2 0x84F DUP1 PUSH2 0x20 PUSH1 0x0 CODECOPY PUSH1 0x0 RETURN INVALID PUSH1 0x80 PUSH1 0x40 MSTORE CALLVALUE DUP1 ISZERO PUSH2 0x10 JUMPI PUSH1 0x0 DUP1 REVERT JUMPDEST POP PUSH1 0x4 CALLDATASIZE LT PUSH2 0x36 JUMPI PUSH1 0x0 CALLDATALOAD PUSH1 0xE0 SHR DUP1 PUSH4 0x361BF5F6 EQ PUSH2 0x3B JUMPI DUP1 PUSH4 0xA87430BA EQ PUSH2 0x57 JUMPI JUMPDEST PUSH1 0x0 DUP1 REVERT JUMPDEST PUSH2 0x55 PUSH1 0x4 DUP1 CALLDATASIZE SUB DUP2 ADD SWAP1 PUSH2 0x50 SWAP2 SWAP1 PUSH2 0x374 JUMP JUMPDEST PUSH2 0x88 JUMP JUMPDEST STOP JUMPDEST PUSH2 0x71 PUSH1 0x4 DUP1 CALLDATASIZE SUB DUP2 ADD SWAP1 PUSH2 0x6C SWAP2 SWAP1 PUSH2 0x42E JUMP JUMPDEST PUSH2 0x138 JUMP JUMPDEST PUSH1 0x40 MLOAD PUSH2 0x7F SWAP3 SWAP2 SWAP1 PUSH2 0x4E9 JUMP JUMPDEST PUSH1 0x40 MLOAD DUP1 SWAP2 SUB SWAP1 RETURN JUMPDEST PUSH1 0x0 DUP1 PUSH1 0x0 CALLER PUSH20 0xFFFFFFFFFFFFFFFFFFFFFFFFFFFFFFFFFFFFFFFF AND PUSH20 0xFFFFFFFFFFFFFFFFFFFFFFFFFFFFFFFFFFFFFFFF AND DUP2 MSTORE PUSH1 0x20 ADD SWAP1 DUP2 MSTORE PUSH1 0x20 ADD PUSH1 0x0 KECCAK256 SWAP1 POP DUP3 DUP2 PUSH1 0x0 ADD SWAP1 DUP2 PUSH2 0xDB SWAP2 SWAP1 PUSH2 0x725 JUMP JUMPDEST POP DUP2 DUP2 PUSH1 0x1 ADD DUP2 SWAP1 SSTORE POP CALLER PUSH20 0xFFFFFFFFFFFFFFFFFFFFFFFFFFFFFFFFFFFFFFFF AND PUSH32 0x1D2B3529F3EDBF84C2FBF46A16FA81880BD170F19142F18267F113903389A6DC DUP5 PUSH1 0x40 MLOAD PUSH2 0x12B SWAP2 SWAP1 PUSH2 0x7F7 JUMP JUMPDEST PUSH1 0x40 MLOAD DUP1 SWAP2 SUB SWAP1 LOG2 POP POP POP JUMP JUMPDEST PUSH1 0x0 PUSH1 0x20 MSTORE DUP1 PUSH1 0x0 MSTORE PUSH1 0x40 PUSH1 0x0 KECCAK256 PUSH1 0x0 SWAP2 POP SWAP1 POP DUP1 PUSH1 0x0 ADD DUP1 SLOAD PUSH2 0x15B SWAP1 PUSH2 0x548 JUMP JUMPDEST DUP1 PUSH1 0x1F ADD PUSH1 0x20 DUP1 SWAP2 DIV MUL PUSH1 0x20 ADD PUSH1 0x40 MLOAD SWAP1 DUP2 ADD PUSH1 0x40 MSTORE DUP1 SWAP3 SWAP2 SWAP1 DUP2 DUP2 MSTORE PUSH1 0x20 ADD DUP3 DUP1 SLOAD PUSH2 0x187 SWAP1 PUSH2 0x548 JUMP JUMPDEST DUP1 ISZERO PUSH2 0x1D4 JUMPI DUP1 PUSH1 0x1F LT PUSH2 0x1A9 JUMPI PUSH2 0x100 DUP1 DUP4 SLOAD DIV MUL DUP4 MSTORE SWAP2 PUSH1 0x20 ADD SWAP2 PUSH2 0x1D4 JUMP JUMPDEST DUP3 ADD SWAP2 SWAP1 PUSH1 0x0 MSTORE PUSH1 0x20 PUSH1 0x0 KECCAK256 SWAP1 JUMPDEST DUP2 SLOAD DUP2 MSTORE SWAP1 PUSH1 0x1 ADD SWAP1 PUSH1 0x20 ADD DUP1 DUP4 GT PUSH2 0x1B7 JUMPI DUP3 SWAP1 SUB PUSH1 0x1F AND DUP3 ADD SWAP2 JUMPDEST POP POP POP POP POP SWAP1 DUP1 PUSH1 0x1 ADD SLOAD SWAP1 POP DUP3 JUMP JUMPDEST PUSH1 0x0 PUSH1 0x40 MLOAD SWAP1 POP SWAP1 JUMP JUMPDEST PUSH1 0x0 DUP1 REVERT JUMPDEST PUSH1 0x0 DUP1 REVERT JUMPDEST PUSH1 0x0 DUP1 REVERT JUMPDEST PUSH1 0x0 DUP1 REVERT JUMPDEST PUSH1 0x0 PUSH1 0x1F NOT PUSH1 0x1F DUP4 ADD AND SWAP1 POP SWAP2 SWAP1 POP JUMP JUMPDEST PUSH32 0x4E487B7100000000000000000000000000000000000000000000000000000000 PUSH1 0x0 MSTORE PUSH1 0x41 PUSH1 0x4 MSTORE PUSH1 0x24 PUSH1 0x0 REVERT JUMPDEST PUSH2 0x24B DUP3 PUSH2 0x202 JUMP JUMPDEST DUP2 ADD DUP2 DUP2 LT PUSH8 0xFFFFFFFFFFFFFFFF DUP3 GT OR ISZERO PUSH2 0x26A JUMPI PUSH2 0x269 PUSH2 0x213 JUMP JUMPDEST JUMPDEST DUP1 PUSH1 0x40 MSTORE POP POP POP JUMP JUMPDEST PUSH1 0x0 PUSH2 0x27D PUSH2 0x1E4 JUMP JUMPDEST SWAP1 POP PUSH2 0x289 DUP3 DUP3 PUSH2 0x242 JUMP JUMPDEST SWAP2 SWAP1 POP JUMP JUMPDEST PUSH1 0x0 PUSH8 0xFFFFFFFFFFFFFFFF DUP3 GT ISZERO PUSH2 0x2A9 JUMPI PUSH2 0x2A8 PUSH2 0x213 JUMP JUMPDEST JUMPDEST PUSH2 0x2B2 DUP3 PUSH2 0x202 JUMP JUMPDEST SWAP1 POP PUSH1 0x20 DUP2 ADD SWAP1 POP SWAP2 SWAP1 POP JUMP JUMPDEST DUP3 DUP2 DUP4 CALLDATACOPY PUSH1 0x0 DUP4 DUP4 ADD MSTORE POP POP POP JUMP JUMPDEST PUSH1 0x0 PUSH2 0x2E1 PUSH2 0x2DC DUP5 PUSH2 0x28E JUMP JUMPDEST PUSH2 0x273 JUMP JUMPDEST SWAP1 POP DUP3 DUP2 MSTORE PUSH1 0x20 DUP2 ADD DUP5 DUP5 DUP5 ADD GT ISZERO PUSH2 0x2FD JUMPI PUSH2 0x2FC PUSH2 0x1FD JUMP JUMPDEST JUMPDEST PUSH2 0x308 DUP5 DUP3 DUP6 PUSH2 0x2BF JUMP JUMPDEST POP SWAP4 SWAP3 POP POP POP JUMP JUMPDEST PUSH1 0x0 DUP3 PUSH1 0x1F DUP4 ADD SLT PUSH2 0x325 JUMPI PUSH2 0x324 PUSH2 0x1F8 JUMP JUMPDEST JUMPDEST DUP2 CALLDATALOAD PUSH2 0x335 DUP5 DUP3 PUSH1 0x20 DUP7 ADD PUSH2 0x2CE JUMP JUMPDEST SWAP2 POP POP SWAP3 SWAP2 POP POP JUMP JUMPDEST PUSH1 0x0 DUP2 SWAP1 POP SWAP2 SWAP1 POP JUMP JUMPDEST PUSH2 0x351 DUP2 PUSH2 0x33E JUMP JUMPDEST DUP2 EQ PUSH2 0x35C JUMPI PUSH1 0x0 DUP1 REVERT JUMPDEST POP JUMP JUMPDEST PUSH1 0x0 DUP2 CALLDATALOAD SWAP1 POP PUSH2 0x36E DUP2 PUSH2 0x348 JUMP JUMPDEST SWAP3 SWAP2 POP POP JUMP JUMPDEST PUSH1 0x0 DUP1 PUSH1 0x40 DUP4 DUP6 SUB SLT ISZERO PUSH2 0x38B JUMPI PUSH2 0x38A PUSH2 0x1EE JUMP JUMPDEST JUMPDEST PUSH1 0x0 DUP4 ADD CALLDATALOAD PUSH8 0xFFFFFFFFFFFFFFFF DUP2 GT ISZERO PUSH2 0x3A9 JUMPI PUSH2 0x3A8 PUSH2 0x1F3 JUMP JUMPDEST JUMPDEST PUSH2 0x3B5 DUP6 DUP3 DUP7 ADD PUSH2 0x310 JUMP JUMPDEST SWAP3 POP POP PUSH1 0x20 PUSH2 0x3C6 DUP6 DUP3 DUP7 ADD PUSH2 0x35F JUMP JUMPDEST SWAP2 POP POP SWAP3 POP SWAP3 SWAP1 POP JUMP JUMPDEST PUSH1 0x0 PUSH20 0xFFFFFFFFFFFFFFFFFFFFFFFFFFFFFFFFFFFFFFFF DUP3 AND SWAP1 POP SWAP2 SWAP1 POP JUMP JUMPDEST PUSH1 0x0 PUSH2 0x3FB DUP3 PUSH2 0x3D0 JUMP JUMPDEST SWAP1 POP SWAP2 SWAP1 POP JUMP JUMPDEST PUSH2 0x40B DUP2 PUSH2 0x3F0 JUMP JUMPDEST DUP2 EQ PUSH2 0x416 JUMPI PUSH1 0x0 DUP1 REVERT JUMPDEST POP JUMP JUMPDEST PUSH1 0x0 DUP2 CALLDATALOAD SWAP1 POP PUSH2 0x428 DUP2 PUSH2 0x402 JUMP JUMPDEST SWAP3 SWAP2 POP POP JUMP JUMPDEST PUSH1 0x0 PUSH1 0x20 DUP3 DUP5 SUB SLT ISZERO PUSH2 0x444 JUMPI PUSH2 0x443 PUSH2 0x1EE JUMP JUMPDEST JUMPDEST PUSH1 0x0 PUSH2 0x452 DUP5 DUP3 DUP6 ADD PUSH2 0x419 JUMP JUMPDEST SWAP2 POP POP SWAP3 SWAP2 POP POP JUMP JUMPDEST PUSH1 0x0 DUP2 MLOAD SWAP1 POP SWAP2 SWAP1 POP JUMP JUMPDEST PUSH1 0x0 DUP3 DUP3 MSTORE PUSH1 0x20 DUP3 ADD SWAP1 POP SWAP3 SWAP2 POP POP JUMP JUMPDEST PUSH1 0x0 JUMPDEST DUP4 DUP2 LT ISZERO PUSH2 0x495 JUMPI DUP1 DUP3 ADD MLOAD DUP2 DUP5 ADD MSTORE PUSH1 0x20 DUP2 ADD SWAP1 POP PUSH2 0x47A JUMP JUMPDEST PUSH1 0x0 DUP5 DUP5 ADD MSTORE POP POP POP POP JUMP JUMPDEST PUSH1 0x0 PUSH2 0x4AC DUP3 PUSH2 0x45B JUMP JUMPDEST PUSH2 0x4B6 DUP2 DUP6 PUSH2 0x466 JUMP JUMPDEST SWAP4 POP PUSH2 0x4C6 DUP2 DUP6 PUSH1 0x20 DUP7 ADD PUSH2 0x477 JUMP JUMPDEST PUSH2 0x4CF DUP2 PUSH2 0x202 JUMP JUMPDEST DUP5 ADD SWAP2 POP POP SWAP3 SWAP2 POP POP JUMP JUMPDEST PUSH2 0x4E3 DUP2 PUSH2 0x33E JUMP JUMPDEST DUP3 MSTORE POP POP JUMP JUMPDEST PUSH1 0x0 PUSH1 0x40 DUP3 ADD SWAP1 POP DUP2 DUP2 SUB PUSH1 0x0 DUP4 ADD MSTORE PUSH2 0x503 DUP2 DUP6 PUSH2 0x4A1 JUMP JUMPDEST SWAP1 POP PUSH2 0x512 PUSH1 0x20 DUP4 ADD DUP5 PUSH2 0x4DA JUMP JUMPDEST SWAP4 SWAP3 POP POP POP JUMP JUMPDEST PUSH32 0x4E487B7100000000000000000000000000000000000000000000000000000000 PUSH1 0x0 MSTORE PUSH1 0x22 PUSH1 0x4 MSTORE PUSH1 0x24 PUSH1 0x0 REVERT JUMPDEST PUSH1 0x0 PUSH1 0x2 DUP3 DIV SWAP1 POP PUSH1 0x1 DUP3 AND DUP1 PUSH2 0x560 JUMPI PUSH1 0x7F DUP3 AND SWAP2 POP JUMPDEST PUSH1 0x20 DUP3 LT DUP2 SUB PUSH2 0x573 JUMPI PUSH2 0x572 PUSH2 0x519 JUMP JUMPDEST JUMPDEST POP SWAP2 SWAP1 POP JUMP JUMPDEST PUSH1 0x0 DUP2 SWAP1 POP DUP2 PUSH1 0x0 MSTORE PUSH1 0x20 PUSH1 0x0 KECCAK256 SWAP1 POP SWAP2 SWAP1 POP JUMP JUMPDEST PUSH1 0x0 PUSH1 0x20 PUSH1 0x1F DUP4 ADD DIV SWAP1 POP SWAP2 SWAP1 POP JUMP JUMPDEST PUSH1 0x0 DUP3 DUP3 SHL SWAP1 POP SWAP3 SWAP2 POP POP JUMP JUMPDEST PUSH1 0x0 PUSH1 0x8 DUP4 MUL PUSH2 0x5DB PUSH32 0xFFFFFFFFFFFFFFFFFFFFFFFFFFFFFFFFFFFFFFFFFFFFFFFFFFFFFFFFFFFFFFFF DUP3 PUSH2 0x59E JUMP JUMPDEST PUSH2 0x5E5 DUP7 DUP4 PUSH2 0x59E JUMP JUMPDEST SWAP6 POP DUP1 NOT DUP5 AND SWAP4 POP DUP1 DUP7 AND DUP5 OR SWAP3 POP POP POP SWAP4 SWAP3 POP POP POP JUMP JUMPDEST PUSH1 0x0 DUP2 SWAP1 POP SWAP2 SWAP1 POP JUMP JUMPDEST PUSH1 0x0 PUSH2 0x622 PUSH2 0x61D PUSH2 0x618 DUP5 PUSH2 0x33E JUMP JUMPDEST PUSH2 0x5FD JUMP JUMPDEST PUSH2 0x33E JUMP JUMPDEST SWAP1 POP SWAP2 SWAP1 POP JUMP JUMPDEST PUSH1 0x0 DUP2 SWAP1 POP SWAP2 SWAP1 POP JUMP JUMPDEST PUSH2 0x63C DUP4 PUSH2 0x607 JUMP JUMPDEST PUSH2 0x650 PUSH2 0x648 DUP3 PUSH2 0x629 JUMP JUMPDEST DUP5 DUP5 SLOAD PUSH2 0x5AB JUMP JUMPDEST DUP3 SSTORE POP POP POP POP JUMP JUMPDEST PUSH1 0x0 SWAP1 JUMP JUMPDEST PUSH2 0x665 PUSH2 0x658 JUMP JUMPDEST PUSH2 0x670 DUP2 DUP5 DUP5 PUSH2 0x633 JUMP JUMPDEST POP POP POP JUMP JUMPDEST JUMPDEST DUP2 DUP2 LT ISZERO PUSH2 0x694 JUMPI PUSH2 0x689 PUSH1 0x0 DUP3 PUSH2 0x65D JUMP JUMPDEST PUSH1 0x1 DUP2 ADD SWAP1 POP PUSH2 0x676 JUMP JUMPDEST POP POP JUMP JUMPDEST PUSH1 0x1F DUP3 GT ISZERO PUSH2 0x6D9 JUMPI PUSH2 0x6AA DUP2 PUSH2 0x579 JUMP JUMPDEST PUSH2 0x6B3 DUP5 PUSH2 0x58E JUMP JUMPDEST DUP2 ADD PUSH1 0x20 DUP6 LT ISZERO PUSH2 0x6C2 JUMPI DUP2 SWAP1 POP JUMPDEST PUSH2 0x6D6 PUSH2 0x6CE DUP6 PUSH2 0x58E JUMP JUMPDEST DUP4 ADD DUP3 PUSH2 0x675 JUMP JUMPDEST POP POP JUMPDEST POP POP POP JUMP JUMPDEST PUSH1 0x0 DUP3 DUP3 SHR SWAP1 POP SWAP3 SWAP2 POP POP JUMP JUMPDEST PUSH1 0x0 PUSH2 0x6FC PUSH1 0x0 NOT DUP5 PUSH1 0x8 MUL PUSH2 0x6DE JUMP JUMPDEST NOT DUP1 DUP4 AND SWAP2 POP POP SWAP3 SWAP2 POP POP JUMP JUMPDEST PUSH1 0x0 PUSH2 0x715 DUP4 DUP4 PUSH2 0x6EB JUMP JUMPDEST SWAP2 POP DUP3 PUSH1 0x2 MUL DUP3 OR SWAP1 POP SWAP3 SWAP2 POP POP JUMP JUMPDEST PUSH2 0x72E DUP3 PUSH2 0x45B JUMP JUMPDEST PUSH8 0xFFFFFFFFFFFFFFFF DUP2 GT ISZERO PUSH2 0x747 JUMPI PUSH2 0x746 PUSH2 0x213 JUMP JUMPDEST JUMPDEST PUSH2 0x751 DUP3 SLOAD PUSH2 0x548 JUMP JUMPDEST PUSH2 0x75C DUP3 DUP3 DUP6 PUSH2 0x698 JUMP JUMPDEST PUSH1 0x0 PUSH1 0x20 SWAP1 POP PUSH1 0x1F DUP4 GT PUSH1 0x1 DUP2 EQ PUSH2 0x78F JUMPI PUSH1 0x0 DUP5 ISZERO PUSH2 0x77D JUMPI DUP3 DUP8 ADD MLOAD SWAP1 POP JUMPDEST PUSH2 0x787 DUP6 DUP3 PUSH2 0x709 JUMP JUMPDEST DUP7 SSTORE POP PUSH2 0x7EF JUMP JUMPDEST PUSH1 0x1F NOT DUP5 AND PUSH2 0x79D DUP7 PUSH2 0x579 JUMP JUMPDEST PUSH1 0x0 JUMPDEST DUP3 DUP2 LT ISZERO PUSH2 0x7C5 JUMPI DUP5 DUP10 ADD MLOAD DUP3 SSTORE PUSH1 0x1 DUP3 ADD SWAP2 POP PUSH1 0x20 DUP6 ADD SWAP5 POP PUSH1 0x20 DUP2 ADD SWAP1 POP PUSH2 0x7A0 JUMP JUMPDEST DUP7 DUP4 LT ISZERO PUSH2 0x7E2 JUMPI DUP5 DUP10 ADD MLOAD PUSH2 0x7DE PUSH1 0x1F DUP10 AND DUP3 PUSH2 0x6EB JUMP JUMPDEST DUP4 SSTORE POP JUMPDEST PUSH1 0x1 PUSH1 0x2 DUP9 MUL ADD DUP9 SSTORE POP POP POP JUMPDEST POP POP POP POP POP POP JUMP JUMPDEST PUSH1 0x0 PUSH1 0x20 DUP3 ADD SWAP1 POP DUP2 DUP2 SUB PUSH1 0x0 DUP4 ADD MSTORE PUSH2 0x811 DUP2 DUP5 PUSH2 0x4A1 JUMP JUMPDEST SWAP1 POP SWAP3 SWAP2 POP POP JUMP INVALID LOG2 PUSH5 0x6970667358 0x22 SLT KECCAK256 RETURNDATACOPY 0xAC SELFDESTRUCT PUSH25 0x140328898DE2E1B06FF2DDC406CE4E77307E6BB6DE2CE478A9 0xC8 0xEA 0xBE PUSH5 0x736F6C6343 STOP ADDMOD SLT STOP CALLER "
				},
				"gasEstimates": {
					"creation": {
						"codeDepositCost": "425400",
						"executionCost": "461",
						"totalCost": "425861"
					},
					"external": {
						"registerUsers(string,uint256)": "infinite",
						"users(address)": "infinite"
					}
				},
				"methodIdentifiers": {
					"registerUsers(string,uint256)": "361bf5f6",
					"users(address)": "a87430ba"
				}
			},
			"storageLayout": {
				"storage": [
					{
						"astId": 17,
						"contract": "contracts/CYW/test/Copy_Solutions/20-Events-Solution.sol:EventExample",
						"label": "users",
						"offset": 0,
						"slot": "0",
						"type": "t_mapping(t_address,t_struct(User)12_storage)"
					}
				],
				"types": {
					"t_address": {
						"encoding": "inplace",
						"label": "address",
						"numberOfBytes": "20"
					},
					"t_mapping(t_address,t_struct(User)12_storage)": {
						"encoding": "mapping",
						"key": "t_address",
						"label": "mapping(address => struct EventExample.User)",
						"numberOfBytes": "32",
						"value": "t_struct(User)12_storage"
					},
					"t_string_storage": {
						"encoding": "bytes",
						"label": "string",
						"numberOfBytes": "32"
					},
					"t_struct(User)12_storage": {
						"encoding": "inplace",
						"label": "struct EventExample.User",
						"members": [
							{
								"astId": 9,
								"contract": "contracts/CYW/test/Copy_Solutions/20-Events-Solution.sol:EventExample",
								"label": "username",
								"offset": 0,
								"slot": "0",
								"type": "t_string_storage"
							},
							{
								"astId": 11,
								"contract": "contracts/CYW/test/Copy_Solutions/20-Events-Solution.sol:EventExample",
								"label": "age",
								"offset": 0,
								"slot": "1",
								"type": "t_uint256"
							}
						],
						"numberOfBytes": "64"
					},
					"t_uint256": {
						"encoding": "inplace",
						"label": "uint256",
						"numberOfBytes": "32"
					}
				}
			},
			"userdoc": {
				"kind": "user",
				"methods": {},
				"version": 1
			}
		}
	}
}