{
	"contracts/CYW/test/Copy_Solutions/15-Twitter-Require-Solution.sol": {
		"Twitter": {
			"abi": [
				{
					"inputs": [
						{
							"internalType": "string",
							"name": "_tweet",
							"type": "string"
						}
					],
					"name": "createTweet",
					"outputs": [],
					"stateMutability": "nonpayable",
					"type": "function"
				},
				{
					"inputs": [
						{
							"internalType": "address",
							"name": "_owner",
							"type": "address"
						}
					],
					"name": "getAllTweets",
					"outputs": [
						{
							"components": [
								{
									"internalType": "address",
									"name": "author",
									"type": "address"
								},
								{
									"internalType": "string",
									"name": "content",
									"type": "string"
								},
								{
									"internalType": "uint256",
									"name": "timestamp",
									"type": "uint256"
								},
								{
									"internalType": "uint256",
									"name": "likes",
									"type": "uint256"
								}
							],
							"internalType": "struct Twitter.Tweet[]",
							"name": "",
							"type": "tuple[]"
						}
					],
					"stateMutability": "view",
					"type": "function"
				},
				{
					"inputs": [
						{
							"internalType": "uint256",
							"name": "_i",
							"type": "uint256"
						}
					],
					"name": "getTweet",
					"outputs": [
						{
							"components": [
								{
									"internalType": "address",
									"name": "author",
									"type": "address"
								},
								{
									"internalType": "string",
									"name": "content",
									"type": "string"
								},
								{
									"internalType": "uint256",
									"name": "timestamp",
									"type": "uint256"
								},
								{
									"internalType": "uint256",
									"name": "likes",
									"type": "uint256"
								}
							],
							"internalType": "struct Twitter.Tweet",
							"name": "",
							"type": "tuple"
						}
					],
					"stateMutability": "view",
					"type": "function"
				},
				{
					"inputs": [
						{
							"internalType": "address",
							"name": "",
							"type": "address"
						},
						{
							"internalType": "uint256",
							"name": "",
							"type": "uint256"
						}
					],
					"name": "tweets",
					"outputs": [
						{
							"internalType": "address",
							"name": "author",
							"type": "address"
						},
						{
							"internalType": "string",
							"name": "content",
							"type": "string"
						},
						{
							"internalType": "uint256",
							"name": "timestamp",
							"type": "uint256"
						},
						{
							"internalType": "uint256",
							"name": "likes",
							"type": "uint256"
						}
					],
					"stateMutability": "view",
					"type": "function"
				}
			],
			"devdoc": {
				"kind": "dev",
				"methods": {},
				"version": 1
			},
			"evm": {
				"assembly": "    /* \"contracts/CYW/test/Copy_Solutions/15-Twitter-Require-Solution.sol\":142:984  contract Twitter {... */\n  mstore(0x40, 0x80)\n  callvalue\n  dup1\n  iszero\n  tag_1\n  jumpi\n  0x00\n  dup1\n  revert\ntag_1:\n  pop\n  dataSize(sub_0)\n  dup1\n  dataOffset(sub_0)\n  0x00\n  codecopy\n  0x00\n  return\nstop\n\nsub_0: assembly {\n        /* \"contracts/CYW/test/Copy_Solutions/15-Twitter-Require-Solution.sol\":142:984  contract Twitter {... */\n      mstore(0x40, 0x80)\n      callvalue\n      dup1\n      iszero\n      tag_1\n      jumpi\n      0x00\n      dup1\n      revert\n    tag_1:\n      pop\n      jumpi(tag_2, lt(calldatasize, 0x04))\n      shr(0xe0, calldataload(0x00))\n      dup1\n      0x05a1b4a9\n      eq\n      tag_3\n      jumpi\n      dup1\n      0x12e7ee1c\n      eq\n      tag_4\n      jumpi\n      dup1\n      0x7c9cd2bc\n      eq\n      tag_5\n      jumpi\n      dup1\n      0xc3ad5ecb\n      eq\n      tag_6\n      jumpi\n    tag_2:\n      0x00\n      dup1\n      revert\n        /* \"contracts/CYW/test/Copy_Solutions/15-Twitter-Require-Solution.sol\":336:378  mapping(address => Tweet[] ) public tweets */\n    tag_3:\n      tag_7\n      0x04\n      dup1\n      calldatasize\n      sub\n      dup2\n      add\n      swap1\n      tag_8\n      swap2\n      swap1\n      tag_9\n      jump\t// in\n    tag_8:\n      tag_10\n      jump\t// in\n    tag_7:\n      mload(0x40)\n      tag_11\n      swap5\n      swap4\n      swap3\n      swap2\n      swap1\n      tag_12\n      jump\t// in\n    tag_11:\n      mload(0x40)\n      dup1\n      swap2\n      sub\n      swap1\n      return\n        /* \"contracts/CYW/test/Copy_Solutions/15-Twitter-Require-Solution.sol\":868:981  function getAllTweets(address _owner) public view returns (Tweet[] memory ){... */\n    tag_4:\n      tag_13\n      0x04\n      dup1\n      calldatasize\n      sub\n      dup2\n      add\n      swap1\n      tag_14\n      swap2\n      swap1\n      tag_15\n      jump\t// in\n    tag_14:\n      tag_16\n      jump\t// in\n    tag_13:\n      mload(0x40)\n      tag_17\n      swap2\n      swap1\n      tag_18\n      jump\t// in\n    tag_17:\n      mload(0x40)\n      dup1\n      swap2\n      sub\n      swap1\n      return\n        /* \"contracts/CYW/test/Copy_Solutions/15-Twitter-Require-Solution.sol\":385:747  function createTweet(string memory _tweet) public {... */\n    tag_5:\n      tag_19\n      0x04\n      dup1\n      calldatasize\n      sub\n      dup2\n      add\n      swap1\n      tag_20\n      swap2\n      swap1\n      tag_21\n      jump\t// in\n    tag_20:\n      tag_22\n      jump\t// in\n    tag_19:\n      stop\n        /* \"contracts/CYW/test/Copy_Solutions/15-Twitter-Require-Solution.sol\":753:862  function getTweet( uint _i) public view returns (Tweet memory) {... */\n    tag_6:\n      tag_23\n      0x04\n      dup1\n      calldatasize\n      sub\n      dup2\n      add\n      swap1\n      tag_24\n      swap2\n      swap1\n      tag_25\n      jump\t// in\n    tag_24:\n      tag_26\n      jump\t// in\n    tag_23:\n      mload(0x40)\n      tag_27\n      swap2\n      swap1\n      tag_28\n      jump\t// in\n    tag_27:\n      mload(0x40)\n      dup1\n      swap2\n      sub\n      swap1\n      return\n        /* \"contracts/CYW/test/Copy_Solutions/15-Twitter-Require-Solution.sol\":336:378  mapping(address => Tweet[] ) public tweets */\n    tag_10:\n      mstore(0x20, 0x00)\n      dup2\n      0x00\n      mstore\n      keccak256(0x00, 0x40)\n      dup2\n      dup2\n      sload\n      dup2\n      lt\n      tag_29\n      jumpi\n      0x00\n      dup1\n      revert\n    tag_29:\n      swap1\n      0x00\n      mstore\n      keccak256(0x00, 0x20)\n      swap1\n      0x04\n      mul\n      add\n      0x00\n      swap2\n      pop\n      swap2\n      pop\n      pop\n      dup1\n      0x00\n      add\n      0x00\n      swap1\n      sload\n      swap1\n      0x0100\n      exp\n      swap1\n      div\n      0xffffffffffffffffffffffffffffffffffffffff\n      and\n      swap1\n      dup1\n      0x01\n      add\n      dup1\n      sload\n      tag_31\n      swap1\n      tag_32\n      jump\t// in\n    tag_31:\n      dup1\n      0x1f\n      add\n      0x20\n      dup1\n      swap2\n      div\n      mul\n      0x20\n      add\n      mload(0x40)\n      swap1\n      dup2\n      add\n      0x40\n      mstore\n      dup1\n      swap3\n      swap2\n      swap1\n      dup2\n      dup2\n      mstore\n      0x20\n      add\n      dup3\n      dup1\n      sload\n      tag_33\n      swap1\n      tag_32\n      jump\t// in\n    tag_33:\n      dup1\n      iszero\n      tag_34\n      jumpi\n      dup1\n      0x1f\n      lt\n      tag_35\n      jumpi\n      0x0100\n      dup1\n      dup4\n      sload\n      div\n      mul\n      dup4\n      mstore\n      swap2\n      0x20\n      add\n      swap2\n      jump(tag_34)\n    tag_35:\n      dup3\n      add\n      swap2\n      swap1\n      0x00\n      mstore\n      keccak256(0x00, 0x20)\n      swap1\n    tag_36:\n      dup2\n      sload\n      dup2\n      mstore\n      swap1\n      0x01\n      add\n      swap1\n      0x20\n      add\n      dup1\n      dup4\n      gt\n      tag_36\n      jumpi\n      dup3\n      swap1\n      sub\n      0x1f\n      and\n      dup3\n      add\n      swap2\n    tag_34:\n      pop\n      pop\n      pop\n      pop\n      pop\n      swap1\n      dup1\n      0x02\n      add\n      sload\n      swap1\n      dup1\n      0x03\n      add\n      sload\n      swap1\n      pop\n      dup5\n      jump\t// out\n        /* \"contracts/CYW/test/Copy_Solutions/15-Twitter-Require-Solution.sol\":868:981  function getAllTweets(address _owner) public view returns (Tweet[] memory ){... */\n    tag_16:\n        /* \"contracts/CYW/test/Copy_Solutions/15-Twitter-Require-Solution.sol\":927:941  Tweet[] memory */\n      0x60\n        /* \"contracts/CYW/test/Copy_Solutions/15-Twitter-Require-Solution.sol\":960:966  tweets */\n      0x00\n        /* \"contracts/CYW/test/Copy_Solutions/15-Twitter-Require-Solution.sol\":960:974  tweets[_owner] */\n      dup1\n        /* \"contracts/CYW/test/Copy_Solutions/15-Twitter-Require-Solution.sol\":967:973  _owner */\n      dup4\n        /* \"contracts/CYW/test/Copy_Solutions/15-Twitter-Require-Solution.sol\":960:974  tweets[_owner] */\n      0xffffffffffffffffffffffffffffffffffffffff\n      and\n      0xffffffffffffffffffffffffffffffffffffffff\n      and\n      dup2\n      mstore\n      0x20\n      add\n      swap1\n      dup2\n      mstore\n      0x20\n      add\n      0x00\n      keccak256\n        /* \"contracts/CYW/test/Copy_Solutions/15-Twitter-Require-Solution.sol\":953:974  return tweets[_owner] */\n      dup1\n      sload\n      dup1\n      0x20\n      mul\n      0x20\n      add\n      mload(0x40)\n      swap1\n      dup2\n      add\n      0x40\n      mstore\n      dup1\n      swap3\n      swap2\n      swap1\n      dup2\n      dup2\n      mstore\n      0x20\n      add\n      0x00\n      swap1\n    tag_38:\n      dup3\n      dup3\n      lt\n      iszero\n      tag_39\n      jumpi\n      dup4\n      dup3\n      swap1\n      0x00\n      mstore\n      keccak256(0x00, 0x20)\n      swap1\n      0x04\n      mul\n      add\n      mload(0x40)\n      dup1\n      0x80\n      add\n      0x40\n      mstore\n      swap1\n      dup2\n      0x00\n      dup3\n      add\n      0x00\n      swap1\n      sload\n      swap1\n      0x0100\n      exp\n      swap1\n      div\n      0xffffffffffffffffffffffffffffffffffffffff\n      and\n      0xffffffffffffffffffffffffffffffffffffffff\n      and\n      0xffffffffffffffffffffffffffffffffffffffff\n      and\n      dup2\n      mstore\n      0x20\n      add\n      0x01\n      dup3\n      add\n      dup1\n      sload\n      tag_41\n      swap1\n      tag_32\n      jump\t// in\n    tag_41:\n      dup1\n      0x1f\n      add\n      0x20\n      dup1\n      swap2\n      div\n      mul\n      0x20\n      add\n      mload(0x40)\n      swap1\n      dup2\n      add\n      0x40\n      mstore\n      dup1\n      swap3\n      swap2\n      swap1\n      dup2\n      dup2\n      mstore\n      0x20\n      add\n      dup3\n      dup1\n      sload\n      tag_42\n      swap1\n      tag_32\n      jump\t// in\n    tag_42:\n      dup1\n      iszero\n      tag_43\n      jumpi\n      dup1\n      0x1f\n      lt\n      tag_44\n      jumpi\n      0x0100\n      dup1\n      dup4\n      sload\n      div\n      mul\n      dup4\n      mstore\n      swap2\n      0x20\n      add\n      swap2\n      jump(tag_43)\n    tag_44:\n      dup3\n      add\n      swap2\n      swap1\n      0x00\n      mstore\n      keccak256(0x00, 0x20)\n      swap1\n    tag_45:\n      dup2\n      sload\n      dup2\n      mstore\n      swap1\n      0x01\n      add\n      swap1\n      0x20\n      add\n      dup1\n      dup4\n      gt\n      tag_45\n      jumpi\n      dup3\n      swap1\n      sub\n      0x1f\n      and\n      dup3\n      add\n      swap2\n    tag_43:\n      pop\n      pop\n      pop\n      pop\n      pop\n      dup2\n      mstore\n      0x20\n      add\n      0x02\n      dup3\n      add\n      sload\n      dup2\n      mstore\n      0x20\n      add\n      0x03\n      dup3\n      add\n      sload\n      dup2\n      mstore\n      pop\n      pop\n      dup2\n      mstore\n      0x20\n      add\n      swap1\n      0x01\n      add\n      swap1\n      jump(tag_38)\n    tag_39:\n      pop\n      pop\n      pop\n      pop\n      swap1\n      pop\n        /* \"contracts/CYW/test/Copy_Solutions/15-Twitter-Require-Solution.sol\":868:981  function getAllTweets(address _owner) public view returns (Tweet[] memory ){... */\n      swap2\n      swap1\n      pop\n      jump\t// out\n        /* \"contracts/CYW/test/Copy_Solutions/15-Twitter-Require-Solution.sol\":385:747  function createTweet(string memory _tweet) public {... */\n    tag_22:\n        /* \"contracts/CYW/test/Copy_Solutions/15-Twitter-Require-Solution.sol\":202:205  280 */\n      0x0118\n        /* \"contracts/CYW/test/Copy_Solutions/15-Twitter-Require-Solution.sol\":453:493  bytes(_tweet).length <= MAX_TWEET_LENGTH */\n      0xffff\n      and\n        /* \"contracts/CYW/test/Copy_Solutions/15-Twitter-Require-Solution.sol\":459:465  _tweet */\n      dup2\n        /* \"contracts/CYW/test/Copy_Solutions/15-Twitter-Require-Solution.sol\":453:473  bytes(_tweet).length */\n      mload\n        /* \"contracts/CYW/test/Copy_Solutions/15-Twitter-Require-Solution.sol\":453:493  bytes(_tweet).length <= MAX_TWEET_LENGTH */\n      gt\n      iszero\n        /* \"contracts/CYW/test/Copy_Solutions/15-Twitter-Require-Solution.sol\":445:521  require(bytes(_tweet).length <= MAX_TWEET_LENGTH, \"Tweet is too long bro!\" ) */\n      tag_47\n      jumpi\n      mload(0x40)\n      0x08c379a000000000000000000000000000000000000000000000000000000000\n      dup2\n      mstore\n      0x04\n      add\n      tag_48\n      swap1\n      tag_49\n      jump\t// in\n    tag_48:\n      mload(0x40)\n      dup1\n      swap2\n      sub\n      swap1\n      revert\n    tag_47:\n        /* \"contracts/CYW/test/Copy_Solutions/15-Twitter-Require-Solution.sol\":532:553  Tweet memory newTweet */\n      0x00\n        /* \"contracts/CYW/test/Copy_Solutions/15-Twitter-Require-Solution.sol\":556:696  Tweet({... */\n      mload(0x40)\n      dup1\n      0x80\n      add\n      0x40\n      mstore\n      dup1\n        /* \"contracts/CYW/test/Copy_Solutions/15-Twitter-Require-Solution.sol\":584:594  msg.sender */\n      caller\n        /* \"contracts/CYW/test/Copy_Solutions/15-Twitter-Require-Solution.sol\":556:696  Tweet({... */\n      0xffffffffffffffffffffffffffffffffffffffff\n      and\n      dup2\n      mstore\n      0x20\n      add\n        /* \"contracts/CYW/test/Copy_Solutions/15-Twitter-Require-Solution.sol\":617:623  _tweet */\n      dup4\n        /* \"contracts/CYW/test/Copy_Solutions/15-Twitter-Require-Solution.sol\":556:696  Tweet({... */\n      dup2\n      mstore\n      0x20\n      add\n        /* \"contracts/CYW/test/Copy_Solutions/15-Twitter-Require-Solution.sol\":648:663  block.timestamp */\n      timestamp\n        /* \"contracts/CYW/test/Copy_Solutions/15-Twitter-Require-Solution.sol\":556:696  Tweet({... */\n      dup2\n      mstore\n      0x20\n      add\n        /* \"contracts/CYW/test/Copy_Solutions/15-Twitter-Require-Solution.sol\":684:685  0 */\n      0x00\n        /* \"contracts/CYW/test/Copy_Solutions/15-Twitter-Require-Solution.sol\":556:696  Tweet({... */\n      dup2\n      mstore\n      pop\n        /* \"contracts/CYW/test/Copy_Solutions/15-Twitter-Require-Solution.sol\":532:696  Tweet memory newTweet = Tweet({... */\n      swap1\n      pop\n        /* \"contracts/CYW/test/Copy_Solutions/15-Twitter-Require-Solution.sol\":707:713  tweets */\n      0x00\n        /* \"contracts/CYW/test/Copy_Solutions/15-Twitter-Require-Solution.sol\":707:725  tweets[msg.sender] */\n      dup1\n        /* \"contracts/CYW/test/Copy_Solutions/15-Twitter-Require-Solution.sol\":714:724  msg.sender */\n      caller\n        /* \"contracts/CYW/test/Copy_Solutions/15-Twitter-Require-Solution.sol\":707:725  tweets[msg.sender] */\n      0xffffffffffffffffffffffffffffffffffffffff\n      and\n      0xffffffffffffffffffffffffffffffffffffffff\n      and\n      dup2\n      mstore\n      0x20\n      add\n      swap1\n      dup2\n      mstore\n      0x20\n      add\n      0x00\n      keccak256\n        /* \"contracts/CYW/test/Copy_Solutions/15-Twitter-Require-Solution.sol\":731:739  newTweet */\n      dup2\n        /* \"contracts/CYW/test/Copy_Solutions/15-Twitter-Require-Solution.sol\":707:740  tweets[msg.sender].push(newTweet) */\n      swap1\n      dup1\n      0x01\n      dup2\n      sload\n      add\n      dup1\n      dup3\n      sstore\n      dup1\n      swap2\n      pop\n      pop\n      0x01\n      swap1\n      sub\n      swap1\n      0x00\n      mstore\n      keccak256(0x00, 0x20)\n      swap1\n      0x04\n      mul\n      add\n      0x00\n      swap1\n      swap2\n      swap1\n      swap2\n      swap1\n      swap2\n      pop\n      0x00\n      dup3\n      add\n      mload\n      dup2\n      0x00\n      add\n      exp(0x0100, 0x00)\n      dup2\n      sload\n      dup2\n      0xffffffffffffffffffffffffffffffffffffffff\n      mul\n      not\n      and\n      swap1\n      dup4\n      0xffffffffffffffffffffffffffffffffffffffff\n      and\n      mul\n      or\n      swap1\n      sstore\n      pop\n      0x20\n      dup3\n      add\n      mload\n      dup2\n      0x01\n      add\n      swap1\n      dup2\n      tag_51\n      swap2\n      swap1\n      tag_52\n      jump\t// in\n    tag_51:\n      pop\n      0x40\n      dup3\n      add\n      mload\n      dup2\n      0x02\n      add\n      sstore\n      0x60\n      dup3\n      add\n      mload\n      dup2\n      0x03\n      add\n      sstore\n      pop\n      pop\n        /* \"contracts/CYW/test/Copy_Solutions/15-Twitter-Require-Solution.sol\":435:747  {... */\n      pop\n        /* \"contracts/CYW/test/Copy_Solutions/15-Twitter-Require-Solution.sol\":385:747  function createTweet(string memory _tweet) public {... */\n      pop\n      jump\t// out\n        /* \"contracts/CYW/test/Copy_Solutions/15-Twitter-Require-Solution.sol\":753:862  function getTweet( uint _i) public view returns (Tweet memory) {... */\n    tag_26:\n        /* \"contracts/CYW/test/Copy_Solutions/15-Twitter-Require-Solution.sol\":802:814  Tweet memory */\n      tag_53\n      tag_54\n      jump\t// in\n    tag_53:\n        /* \"contracts/CYW/test/Copy_Solutions/15-Twitter-Require-Solution.sol\":833:839  tweets */\n      0x00\n        /* \"contracts/CYW/test/Copy_Solutions/15-Twitter-Require-Solution.sol\":833:851  tweets[msg.sender] */\n      dup1\n        /* \"contracts/CYW/test/Copy_Solutions/15-Twitter-Require-Solution.sol\":840:850  msg.sender */\n      caller\n        /* \"contracts/CYW/test/Copy_Solutions/15-Twitter-Require-Solution.sol\":833:851  tweets[msg.sender] */\n      0xffffffffffffffffffffffffffffffffffffffff\n      and\n      0xffffffffffffffffffffffffffffffffffffffff\n      and\n      dup2\n      mstore\n      0x20\n      add\n      swap1\n      dup2\n      mstore\n      0x20\n      add\n      0x00\n      keccak256\n        /* \"contracts/CYW/test/Copy_Solutions/15-Twitter-Require-Solution.sol\":852:854  _i */\n      dup3\n        /* \"contracts/CYW/test/Copy_Solutions/15-Twitter-Require-Solution.sol\":833:855  tweets[msg.sender][_i] */\n      dup2\n      sload\n      dup2\n      lt\n      tag_56\n      jumpi\n      tag_57\n      tag_58\n      jump\t// in\n    tag_57:\n    tag_56:\n      swap1\n      0x00\n      mstore\n      keccak256(0x00, 0x20)\n      swap1\n      0x04\n      mul\n      add\n        /* \"contracts/CYW/test/Copy_Solutions/15-Twitter-Require-Solution.sol\":826:855  return tweets[msg.sender][_i] */\n      mload(0x40)\n      dup1\n      0x80\n      add\n      0x40\n      mstore\n      swap1\n      dup2\n      0x00\n      dup3\n      add\n      0x00\n      swap1\n      sload\n      swap1\n      0x0100\n      exp\n      swap1\n      div\n      0xffffffffffffffffffffffffffffffffffffffff\n      and\n      0xffffffffffffffffffffffffffffffffffffffff\n      and\n      0xffffffffffffffffffffffffffffffffffffffff\n      and\n      dup2\n      mstore\n      0x20\n      add\n      0x01\n      dup3\n      add\n      dup1\n      sload\n      tag_60\n      swap1\n      tag_32\n      jump\t// in\n    tag_60:\n      dup1\n      0x1f\n      add\n      0x20\n      dup1\n      swap2\n      div\n      mul\n      0x20\n      add\n      mload(0x40)\n      swap1\n      dup2\n      add\n      0x40\n      mstore\n      dup1\n      swap3\n      swap2\n      swap1\n      dup2\n      dup2\n      mstore\n      0x20\n      add\n      dup3\n      dup1\n      sload\n      tag_61\n      swap1\n      tag_32\n      jump\t// in\n    tag_61:\n      dup1\n      iszero\n      tag_62\n      jumpi\n      dup1\n      0x1f\n      lt\n      tag_63\n      jumpi\n      0x0100\n      dup1\n      dup4\n      sload\n      div\n      mul\n      dup4\n      mstore\n      swap2\n      0x20\n      add\n      swap2\n      jump(tag_62)\n    tag_63:\n      dup3\n      add\n      swap2\n      swap1\n      0x00\n      mstore\n      keccak256(0x00, 0x20)\n      swap1\n    tag_64:\n      dup2\n      sload\n      dup2\n      mstore\n      swap1\n      0x01\n      add\n      swap1\n      0x20\n      add\n      dup1\n      dup4\n      gt\n      tag_64\n      jumpi\n      dup3\n      swap1\n      sub\n      0x1f\n      and\n      dup3\n      add\n      swap2\n    tag_62:\n      pop\n      pop\n      pop\n      pop\n      pop\n      dup2\n      mstore\n      0x20\n      add\n      0x02\n      dup3\n      add\n      sload\n      dup2\n      mstore\n      0x20\n      add\n      0x03\n      dup3\n      add\n      sload\n      dup2\n      mstore\n      pop\n      pop\n      swap1\n      pop\n        /* \"contracts/CYW/test/Copy_Solutions/15-Twitter-Require-Solution.sol\":753:862  function getTweet( uint _i) public view returns (Tweet memory) {... */\n      swap2\n      swap1\n      pop\n      jump\t// out\n    tag_54:\n      mload(0x40)\n      dup1\n      0x80\n      add\n      0x40\n      mstore\n      dup1\n      and(0xffffffffffffffffffffffffffffffffffffffff, 0x00)\n      dup2\n      mstore\n      0x20\n      add\n      0x60\n      dup2\n      mstore\n      0x20\n      add\n      0x00\n      dup2\n      mstore\n      0x20\n      add\n      0x00\n      dup2\n      mstore\n      pop\n      swap1\n      jump\t// out\n        /* \"#utility.yul\":7:82   */\n    tag_65:\n        /* \"#utility.yul\":40:46   */\n      0x00\n        /* \"#utility.yul\":73:75   */\n      0x40\n        /* \"#utility.yul\":67:76   */\n      mload\n        /* \"#utility.yul\":57:76   */\n      swap1\n      pop\n        /* \"#utility.yul\":7:82   */\n      swap1\n      jump\t// out\n        /* \"#utility.yul\":88:205   */\n    tag_66:\n        /* \"#utility.yul\":197:198   */\n      0x00\n        /* \"#utility.yul\":194:195   */\n      dup1\n        /* \"#utility.yul\":187:199   */\n      revert\n        /* \"#utility.yul\":211:328   */\n    tag_67:\n        /* \"#utility.yul\":320:321   */\n      0x00\n        /* \"#utility.yul\":317:318   */\n      dup1\n        /* \"#utility.yul\":310:322   */\n      revert\n        /* \"#utility.yul\":334:460   */\n    tag_68:\n        /* \"#utility.yul\":371:378   */\n      0x00\n        /* \"#utility.yul\":411:453   */\n      0xffffffffffffffffffffffffffffffffffffffff\n        /* \"#utility.yul\":404:409   */\n      dup3\n        /* \"#utility.yul\":400:454   */\n      and\n        /* \"#utility.yul\":389:454   */\n      swap1\n      pop\n        /* \"#utility.yul\":334:460   */\n      swap2\n      swap1\n      pop\n      jump\t// out\n        /* \"#utility.yul\":466:562   */\n    tag_69:\n        /* \"#utility.yul\":503:510   */\n      0x00\n        /* \"#utility.yul\":532:556   */\n      tag_127\n        /* \"#utility.yul\":550:555   */\n      dup3\n        /* \"#utility.yul\":532:556   */\n      tag_68\n      jump\t// in\n    tag_127:\n        /* \"#utility.yul\":521:556   */\n      swap1\n      pop\n        /* \"#utility.yul\":466:562   */\n      swap2\n      swap1\n      pop\n      jump\t// out\n        /* \"#utility.yul\":568:690   */\n    tag_70:\n        /* \"#utility.yul\":641:665   */\n      tag_129\n        /* \"#utility.yul\":659:664   */\n      dup2\n        /* \"#utility.yul\":641:665   */\n      tag_69\n      jump\t// in\n    tag_129:\n        /* \"#utility.yul\":634:639   */\n      dup2\n        /* \"#utility.yul\":631:666   */\n      eq\n        /* \"#utility.yul\":621:684   */\n      tag_130\n      jumpi\n        /* \"#utility.yul\":680:681   */\n      0x00\n        /* \"#utility.yul\":677:678   */\n      dup1\n        /* \"#utility.yul\":670:682   */\n      revert\n        /* \"#utility.yul\":621:684   */\n    tag_130:\n        /* \"#utility.yul\":568:690   */\n      pop\n      jump\t// out\n        /* \"#utility.yul\":696:835   */\n    tag_71:\n        /* \"#utility.yul\":742:747   */\n      0x00\n        /* \"#utility.yul\":780:786   */\n      dup2\n        /* \"#utility.yul\":767:787   */\n      calldataload\n        /* \"#utility.yul\":758:787   */\n      swap1\n      pop\n        /* \"#utility.yul\":796:829   */\n      tag_132\n        /* \"#utility.yul\":823:828   */\n      dup2\n        /* \"#utility.yul\":796:829   */\n      tag_70\n      jump\t// in\n    tag_132:\n        /* \"#utility.yul\":696:835   */\n      swap3\n      swap2\n      pop\n      pop\n      jump\t// out\n        /* \"#utility.yul\":841:918   */\n    tag_72:\n        /* \"#utility.yul\":878:885   */\n      0x00\n        /* \"#utility.yul\":907:912   */\n      dup2\n        /* \"#utility.yul\":896:912   */\n      swap1\n      pop\n        /* \"#utility.yul\":841:918   */\n      swap2\n      swap1\n      pop\n      jump\t// out\n        /* \"#utility.yul\":924:1046   */\n    tag_73:\n        /* \"#utility.yul\":997:1021   */\n      tag_135\n        /* \"#utility.yul\":1015:1020   */\n      dup2\n        /* \"#utility.yul\":997:1021   */\n      tag_72\n      jump\t// in\n    tag_135:\n        /* \"#utility.yul\":990:995   */\n      dup2\n        /* \"#utility.yul\":987:1022   */\n      eq\n        /* \"#utility.yul\":977:1040   */\n      tag_136\n      jumpi\n        /* \"#utility.yul\":1036:1037   */\n      0x00\n        /* \"#utility.yul\":1033:1034   */\n      dup1\n        /* \"#utility.yul\":1026:1038   */\n      revert\n        /* \"#utility.yul\":977:1040   */\n    tag_136:\n        /* \"#utility.yul\":924:1046   */\n      pop\n      jump\t// out\n        /* \"#utility.yul\":1052:1191   */\n    tag_74:\n        /* \"#utility.yul\":1098:1103   */\n      0x00\n        /* \"#utility.yul\":1136:1142   */\n      dup2\n        /* \"#utility.yul\":1123:1143   */\n      calldataload\n        /* \"#utility.yul\":1114:1143   */\n      swap1\n      pop\n        /* \"#utility.yul\":1152:1185   */\n      tag_138\n        /* \"#utility.yul\":1179:1184   */\n      dup2\n        /* \"#utility.yul\":1152:1185   */\n      tag_73\n      jump\t// in\n    tag_138:\n        /* \"#utility.yul\":1052:1191   */\n      swap3\n      swap2\n      pop\n      pop\n      jump\t// out\n        /* \"#utility.yul\":1197:1671   */\n    tag_9:\n        /* \"#utility.yul\":1265:1271   */\n      0x00\n        /* \"#utility.yul\":1273:1279   */\n      dup1\n        /* \"#utility.yul\":1322:1324   */\n      0x40\n        /* \"#utility.yul\":1310:1319   */\n      dup4\n        /* \"#utility.yul\":1301:1308   */\n      dup6\n        /* \"#utility.yul\":1297:1320   */\n      sub\n        /* \"#utility.yul\":1293:1325   */\n      slt\n        /* \"#utility.yul\":1290:1409   */\n      iszero\n      tag_140\n      jumpi\n        /* \"#utility.yul\":1328:1407   */\n      tag_141\n      tag_66\n      jump\t// in\n    tag_141:\n        /* \"#utility.yul\":1290:1409   */\n    tag_140:\n        /* \"#utility.yul\":1448:1449   */\n      0x00\n        /* \"#utility.yul\":1473:1526   */\n      tag_142\n        /* \"#utility.yul\":1518:1525   */\n      dup6\n        /* \"#utility.yul\":1509:1515   */\n      dup3\n        /* \"#utility.yul\":1498:1507   */\n      dup7\n        /* \"#utility.yul\":1494:1516   */\n      add\n        /* \"#utility.yul\":1473:1526   */\n      tag_71\n      jump\t// in\n    tag_142:\n        /* \"#utility.yul\":1463:1526   */\n      swap3\n      pop\n        /* \"#utility.yul\":1419:1536   */\n      pop\n        /* \"#utility.yul\":1575:1577   */\n      0x20\n        /* \"#utility.yul\":1601:1654   */\n      tag_143\n        /* \"#utility.yul\":1646:1653   */\n      dup6\n        /* \"#utility.yul\":1637:1643   */\n      dup3\n        /* \"#utility.yul\":1626:1635   */\n      dup7\n        /* \"#utility.yul\":1622:1644   */\n      add\n        /* \"#utility.yul\":1601:1654   */\n      tag_74\n      jump\t// in\n    tag_143:\n        /* \"#utility.yul\":1591:1654   */\n      swap2\n      pop\n        /* \"#utility.yul\":1546:1664   */\n      pop\n        /* \"#utility.yul\":1197:1671   */\n      swap3\n      pop\n      swap3\n      swap1\n      pop\n      jump\t// out\n        /* \"#utility.yul\":1677:1795   */\n    tag_75:\n        /* \"#utility.yul\":1764:1788   */\n      tag_145\n        /* \"#utility.yul\":1782:1787   */\n      dup2\n        /* \"#utility.yul\":1764:1788   */\n      tag_69\n      jump\t// in\n    tag_145:\n        /* \"#utility.yul\":1759:1762   */\n      dup3\n        /* \"#utility.yul\":1752:1789   */\n      mstore\n        /* \"#utility.yul\":1677:1795   */\n      pop\n      pop\n      jump\t// out\n        /* \"#utility.yul\":1801:1900   */\n    tag_76:\n        /* \"#utility.yul\":1853:1859   */\n      0x00\n        /* \"#utility.yul\":1887:1892   */\n      dup2\n        /* \"#utility.yul\":1881:1893   */\n      mload\n        /* \"#utility.yul\":1871:1893   */\n      swap1\n      pop\n        /* \"#utility.yul\":1801:1900   */\n      swap2\n      swap1\n      pop\n      jump\t// out\n        /* \"#utility.yul\":1906:2075   */\n    tag_77:\n        /* \"#utility.yul\":1990:2001   */\n      0x00\n        /* \"#utility.yul\":2024:2030   */\n      dup3\n        /* \"#utility.yul\":2019:2022   */\n      dup3\n        /* \"#utility.yul\":2012:2031   */\n      mstore\n        /* \"#utility.yul\":2064:2068   */\n      0x20\n        /* \"#utility.yul\":2059:2062   */\n      dup3\n        /* \"#utility.yul\":2055:2069   */\n      add\n        /* \"#utility.yul\":2040:2069   */\n      swap1\n      pop\n        /* \"#utility.yul\":1906:2075   */\n      swap3\n      swap2\n      pop\n      pop\n      jump\t// out\n        /* \"#utility.yul\":2081:2327   */\n    tag_78:\n        /* \"#utility.yul\":2162:2163   */\n      0x00\n        /* \"#utility.yul\":2172:2285   */\n    tag_149:\n        /* \"#utility.yul\":2186:2192   */\n      dup4\n        /* \"#utility.yul\":2183:2184   */\n      dup2\n        /* \"#utility.yul\":2180:2193   */\n      lt\n        /* \"#utility.yul\":2172:2285   */\n      iszero\n      tag_151\n      jumpi\n        /* \"#utility.yul\":2271:2272   */\n      dup1\n        /* \"#utility.yul\":2266:2269   */\n      dup3\n        /* \"#utility.yul\":2262:2273   */\n      add\n        /* \"#utility.yul\":2256:2274   */\n      mload\n        /* \"#utility.yul\":2252:2253   */\n      dup2\n        /* \"#utility.yul\":2247:2250   */\n      dup5\n        /* \"#utility.yul\":2243:2254   */\n      add\n        /* \"#utility.yul\":2236:2275   */\n      mstore\n        /* \"#utility.yul\":2208:2210   */\n      0x20\n        /* \"#utility.yul\":2205:2206   */\n      dup2\n        /* \"#utility.yul\":2201:2211   */\n      add\n        /* \"#utility.yul\":2196:2211   */\n      swap1\n      pop\n        /* \"#utility.yul\":2172:2285   */\n      jump(tag_149)\n    tag_151:\n        /* \"#utility.yul\":2319:2320   */\n      0x00\n        /* \"#utility.yul\":2310:2316   */\n      dup5\n        /* \"#utility.yul\":2305:2308   */\n      dup5\n        /* \"#utility.yul\":2301:2317   */\n      add\n        /* \"#utility.yul\":2294:2321   */\n      mstore\n        /* \"#utility.yul\":2143:2327   */\n      pop\n        /* \"#utility.yul\":2081:2327   */\n      pop\n      pop\n      pop\n      jump\t// out\n        /* \"#utility.yul\":2333:2435   */\n    tag_79:\n        /* \"#utility.yul\":2374:2380   */\n      0x00\n        /* \"#utility.yul\":2425:2427   */\n      0x1f\n        /* \"#utility.yul\":2421:2428   */\n      not\n        /* \"#utility.yul\":2416:2418   */\n      0x1f\n        /* \"#utility.yul\":2409:2414   */\n      dup4\n        /* \"#utility.yul\":2405:2419   */\n      add\n        /* \"#utility.yul\":2401:2429   */\n      and\n        /* \"#utility.yul\":2391:2429   */\n      swap1\n      pop\n        /* \"#utility.yul\":2333:2435   */\n      swap2\n      swap1\n      pop\n      jump\t// out\n        /* \"#utility.yul\":2441:2818   */\n    tag_80:\n        /* \"#utility.yul\":2529:2532   */\n      0x00\n        /* \"#utility.yul\":2557:2596   */\n      tag_154\n        /* \"#utility.yul\":2590:2595   */\n      dup3\n        /* \"#utility.yul\":2557:2596   */\n      tag_76\n      jump\t// in\n    tag_154:\n        /* \"#utility.yul\":2612:2683   */\n      tag_155\n        /* \"#utility.yul\":2676:2682   */\n      dup2\n        /* \"#utility.yul\":2671:2674   */\n      dup6\n        /* \"#utility.yul\":2612:2683   */\n      tag_77\n      jump\t// in\n    tag_155:\n        /* \"#utility.yul\":2605:2683   */\n      swap4\n      pop\n        /* \"#utility.yul\":2692:2757   */\n      tag_156\n        /* \"#utility.yul\":2750:2756   */\n      dup2\n        /* \"#utility.yul\":2745:2748   */\n      dup6\n        /* \"#utility.yul\":2738:2742   */\n      0x20\n        /* \"#utility.yul\":2731:2736   */\n      dup7\n        /* \"#utility.yul\":2727:2743   */\n      add\n        /* \"#utility.yul\":2692:2757   */\n      tag_78\n      jump\t// in\n    tag_156:\n        /* \"#utility.yul\":2782:2811   */\n      tag_157\n        /* \"#utility.yul\":2804:2810   */\n      dup2\n        /* \"#utility.yul\":2782:2811   */\n      tag_79\n      jump\t// in\n    tag_157:\n        /* \"#utility.yul\":2777:2780   */\n      dup5\n        /* \"#utility.yul\":2773:2812   */\n      add\n        /* \"#utility.yul\":2766:2812   */\n      swap2\n      pop\n        /* \"#utility.yul\":2533:2818   */\n      pop\n        /* \"#utility.yul\":2441:2818   */\n      swap3\n      swap2\n      pop\n      pop\n      jump\t// out\n        /* \"#utility.yul\":2824:2942   */\n    tag_81:\n        /* \"#utility.yul\":2911:2935   */\n      tag_159\n        /* \"#utility.yul\":2929:2934   */\n      dup2\n        /* \"#utility.yul\":2911:2935   */\n      tag_72\n      jump\t// in\n    tag_159:\n        /* \"#utility.yul\":2906:2909   */\n      dup3\n        /* \"#utility.yul\":2899:2936   */\n      mstore\n        /* \"#utility.yul\":2824:2942   */\n      pop\n      pop\n      jump\t// out\n        /* \"#utility.yul\":2948:3592   */\n    tag_12:\n        /* \"#utility.yul\":3145:3149   */\n      0x00\n        /* \"#utility.yul\":3183:3186   */\n      0x80\n        /* \"#utility.yul\":3172:3181   */\n      dup3\n        /* \"#utility.yul\":3168:3187   */\n      add\n        /* \"#utility.yul\":3160:3187   */\n      swap1\n      pop\n        /* \"#utility.yul\":3197:3268   */\n      tag_161\n        /* \"#utility.yul\":3265:3266   */\n      0x00\n        /* \"#utility.yul\":3254:3263   */\n      dup4\n        /* \"#utility.yul\":3250:3267   */\n      add\n        /* \"#utility.yul\":3241:3247   */\n      dup8\n        /* \"#utility.yul\":3197:3268   */\n      tag_75\n      jump\t// in\n    tag_161:\n        /* \"#utility.yul\":3315:3324   */\n      dup2\n        /* \"#utility.yul\":3309:3313   */\n      dup2\n        /* \"#utility.yul\":3305:3325   */\n      sub\n        /* \"#utility.yul\":3300:3302   */\n      0x20\n        /* \"#utility.yul\":3289:3298   */\n      dup4\n        /* \"#utility.yul\":3285:3303   */\n      add\n        /* \"#utility.yul\":3278:3326   */\n      mstore\n        /* \"#utility.yul\":3343:3421   */\n      tag_162\n        /* \"#utility.yul\":3416:3420   */\n      dup2\n        /* \"#utility.yul\":3407:3413   */\n      dup7\n        /* \"#utility.yul\":3343:3421   */\n      tag_80\n      jump\t// in\n    tag_162:\n        /* \"#utility.yul\":3335:3421   */\n      swap1\n      pop\n        /* \"#utility.yul\":3431:3503   */\n      tag_163\n        /* \"#utility.yul\":3499:3501   */\n      0x40\n        /* \"#utility.yul\":3488:3497   */\n      dup4\n        /* \"#utility.yul\":3484:3502   */\n      add\n        /* \"#utility.yul\":3475:3481   */\n      dup6\n        /* \"#utility.yul\":3431:3503   */\n      tag_81\n      jump\t// in\n    tag_163:\n        /* \"#utility.yul\":3513:3585   */\n      tag_164\n        /* \"#utility.yul\":3581:3583   */\n      0x60\n        /* \"#utility.yul\":3570:3579   */\n      dup4\n        /* \"#utility.yul\":3566:3584   */\n      add\n        /* \"#utility.yul\":3557:3563   */\n      dup5\n        /* \"#utility.yul\":3513:3585   */\n      tag_81\n      jump\t// in\n    tag_164:\n        /* \"#utility.yul\":2948:3592   */\n      swap6\n      swap5\n      pop\n      pop\n      pop\n      pop\n      pop\n      jump\t// out\n        /* \"#utility.yul\":3598:3927   */\n    tag_15:\n        /* \"#utility.yul\":3657:3663   */\n      0x00\n        /* \"#utility.yul\":3706:3708   */\n      0x20\n        /* \"#utility.yul\":3694:3703   */\n      dup3\n        /* \"#utility.yul\":3685:3692   */\n      dup5\n        /* \"#utility.yul\":3681:3704   */\n      sub\n        /* \"#utility.yul\":3677:3709   */\n      slt\n        /* \"#utility.yul\":3674:3793   */\n      iszero\n      tag_166\n      jumpi\n        /* \"#utility.yul\":3712:3791   */\n      tag_167\n      tag_66\n      jump\t// in\n    tag_167:\n        /* \"#utility.yul\":3674:3793   */\n    tag_166:\n        /* \"#utility.yul\":3832:3833   */\n      0x00\n        /* \"#utility.yul\":3857:3910   */\n      tag_168\n        /* \"#utility.yul\":3902:3909   */\n      dup5\n        /* \"#utility.yul\":3893:3899   */\n      dup3\n        /* \"#utility.yul\":3882:3891   */\n      dup6\n        /* \"#utility.yul\":3878:3900   */\n      add\n        /* \"#utility.yul\":3857:3910   */\n      tag_71\n      jump\t// in\n    tag_168:\n        /* \"#utility.yul\":3847:3910   */\n      swap2\n      pop\n        /* \"#utility.yul\":3803:3920   */\n      pop\n        /* \"#utility.yul\":3598:3927   */\n      swap3\n      swap2\n      pop\n      pop\n      jump\t// out\n        /* \"#utility.yul\":3933:4068   */\n    tag_82:\n        /* \"#utility.yul\":4021:4027   */\n      0x00\n        /* \"#utility.yul\":4055:4060   */\n      dup2\n        /* \"#utility.yul\":4049:4061   */\n      mload\n        /* \"#utility.yul\":4039:4061   */\n      swap1\n      pop\n        /* \"#utility.yul\":3933:4068   */\n      swap2\n      swap1\n      pop\n      jump\t// out\n        /* \"#utility.yul\":4074:4279   */\n    tag_83:\n        /* \"#utility.yul\":4194:4205   */\n      0x00\n        /* \"#utility.yul\":4228:4234   */\n      dup3\n        /* \"#utility.yul\":4223:4226   */\n      dup3\n        /* \"#utility.yul\":4216:4235   */\n      mstore\n        /* \"#utility.yul\":4268:4272   */\n      0x20\n        /* \"#utility.yul\":4263:4266   */\n      dup3\n        /* \"#utility.yul\":4259:4273   */\n      add\n        /* \"#utility.yul\":4244:4273   */\n      swap1\n      pop\n        /* \"#utility.yul\":4074:4279   */\n      swap3\n      swap2\n      pop\n      pop\n      jump\t// out\n        /* \"#utility.yul\":4285:4438   */\n    tag_84:\n        /* \"#utility.yul\":4373:4377   */\n      0x00\n        /* \"#utility.yul\":4396:4399   */\n      dup2\n        /* \"#utility.yul\":4388:4399   */\n      swap1\n      pop\n        /* \"#utility.yul\":4426:4430   */\n      0x20\n        /* \"#utility.yul\":4421:4424   */\n      dup3\n        /* \"#utility.yul\":4417:4431   */\n      add\n        /* \"#utility.yul\":4409:4431   */\n      swap1\n      pop\n        /* \"#utility.yul\":4285:4438   */\n      swap2\n      swap1\n      pop\n      jump\t// out\n        /* \"#utility.yul\":4444:4552   */\n    tag_85:\n        /* \"#utility.yul\":4521:4545   */\n      tag_173\n        /* \"#utility.yul\":4539:4544   */\n      dup2\n        /* \"#utility.yul\":4521:4545   */\n      tag_69\n      jump\t// in\n    tag_173:\n        /* \"#utility.yul\":4516:4519   */\n      dup3\n        /* \"#utility.yul\":4509:4546   */\n      mstore\n        /* \"#utility.yul\":4444:4552   */\n      pop\n      pop\n      jump\t// out\n        /* \"#utility.yul\":4558:4717   */\n    tag_86:\n        /* \"#utility.yul\":4632:4643   */\n      0x00\n        /* \"#utility.yul\":4666:4672   */\n      dup3\n        /* \"#utility.yul\":4661:4664   */\n      dup3\n        /* \"#utility.yul\":4654:4673   */\n      mstore\n        /* \"#utility.yul\":4706:4710   */\n      0x20\n        /* \"#utility.yul\":4701:4704   */\n      dup3\n        /* \"#utility.yul\":4697:4711   */\n      add\n        /* \"#utility.yul\":4682:4711   */\n      swap1\n      pop\n        /* \"#utility.yul\":4558:4717   */\n      swap3\n      swap2\n      pop\n      pop\n      jump\t// out\n        /* \"#utility.yul\":4723:5080   */\n    tag_87:\n        /* \"#utility.yul\":4801:4804   */\n      0x00\n        /* \"#utility.yul\":4829:4868   */\n      tag_176\n        /* \"#utility.yul\":4862:4867   */\n      dup3\n        /* \"#utility.yul\":4829:4868   */\n      tag_76\n      jump\t// in\n    tag_176:\n        /* \"#utility.yul\":4884:4945   */\n      tag_177\n        /* \"#utility.yul\":4938:4944   */\n      dup2\n        /* \"#utility.yul\":4933:4936   */\n      dup6\n        /* \"#utility.yul\":4884:4945   */\n      tag_86\n      jump\t// in\n    tag_177:\n        /* \"#utility.yul\":4877:4945   */\n      swap4\n      pop\n        /* \"#utility.yul\":4954:5019   */\n      tag_178\n        /* \"#utility.yul\":5012:5018   */\n      dup2\n        /* \"#utility.yul\":5007:5010   */\n      dup6\n        /* \"#utility.yul\":5000:5004   */\n      0x20\n        /* \"#utility.yul\":4993:4998   */\n      dup7\n        /* \"#utility.yul\":4989:5005   */\n      add\n        /* \"#utility.yul\":4954:5019   */\n      tag_78\n      jump\t// in\n    tag_178:\n        /* \"#utility.yul\":5044:5073   */\n      tag_179\n        /* \"#utility.yul\":5066:5072   */\n      dup2\n        /* \"#utility.yul\":5044:5073   */\n      tag_79\n      jump\t// in\n    tag_179:\n        /* \"#utility.yul\":5039:5042   */\n      dup5\n        /* \"#utility.yul\":5035:5074   */\n      add\n        /* \"#utility.yul\":5028:5074   */\n      swap2\n      pop\n        /* \"#utility.yul\":4805:5080   */\n      pop\n        /* \"#utility.yul\":4723:5080   */\n      swap3\n      swap2\n      pop\n      pop\n      jump\t// out\n        /* \"#utility.yul\":5086:5194   */\n    tag_88:\n        /* \"#utility.yul\":5163:5187   */\n      tag_181\n        /* \"#utility.yul\":5181:5186   */\n      dup2\n        /* \"#utility.yul\":5163:5187   */\n      tag_72\n      jump\t// in\n    tag_181:\n        /* \"#utility.yul\":5158:5161   */\n      dup3\n        /* \"#utility.yul\":5151:5188   */\n      mstore\n        /* \"#utility.yul\":5086:5194   */\n      pop\n      pop\n      jump\t// out\n        /* \"#utility.yul\":5252:6199   */\n    tag_89:\n        /* \"#utility.yul\":5353:5356   */\n      0x00\n        /* \"#utility.yul\":5389:5393   */\n      0x80\n        /* \"#utility.yul\":5384:5387   */\n      dup4\n        /* \"#utility.yul\":5380:5394   */\n      add\n        /* \"#utility.yul\":5478:5482   */\n      0x00\n        /* \"#utility.yul\":5471:5476   */\n      dup4\n        /* \"#utility.yul\":5467:5483   */\n      add\n        /* \"#utility.yul\":5461:5484   */\n      mload\n        /* \"#utility.yul\":5497:5560   */\n      tag_183\n        /* \"#utility.yul\":5554:5558   */\n      0x00\n        /* \"#utility.yul\":5549:5552   */\n      dup7\n        /* \"#utility.yul\":5545:5559   */\n      add\n        /* \"#utility.yul\":5531:5543   */\n      dup3\n        /* \"#utility.yul\":5497:5560   */\n      tag_85\n      jump\t// in\n    tag_183:\n        /* \"#utility.yul\":5404:5570   */\n      pop\n        /* \"#utility.yul\":5655:5659   */\n      0x20\n        /* \"#utility.yul\":5648:5653   */\n      dup4\n        /* \"#utility.yul\":5644:5660   */\n      add\n        /* \"#utility.yul\":5638:5661   */\n      mload\n        /* \"#utility.yul\":5708:5711   */\n      dup5\n        /* \"#utility.yul\":5702:5706   */\n      dup3\n        /* \"#utility.yul\":5698:5712   */\n      sub\n        /* \"#utility.yul\":5691:5695   */\n      0x20\n        /* \"#utility.yul\":5686:5689   */\n      dup7\n        /* \"#utility.yul\":5682:5696   */\n      add\n        /* \"#utility.yul\":5675:5713   */\n      mstore\n        /* \"#utility.yul\":5734:5807   */\n      tag_184\n        /* \"#utility.yul\":5802:5806   */\n      dup3\n        /* \"#utility.yul\":5788:5800   */\n      dup3\n        /* \"#utility.yul\":5734:5807   */\n      tag_87\n      jump\t// in\n    tag_184:\n        /* \"#utility.yul\":5726:5807   */\n      swap2\n      pop\n        /* \"#utility.yul\":5580:5818   */\n      pop\n        /* \"#utility.yul\":5905:5909   */\n      0x40\n        /* \"#utility.yul\":5898:5903   */\n      dup4\n        /* \"#utility.yul\":5894:5910   */\n      add\n        /* \"#utility.yul\":5888:5911   */\n      mload\n        /* \"#utility.yul\":5924:5987   */\n      tag_185\n        /* \"#utility.yul\":5981:5985   */\n      0x40\n        /* \"#utility.yul\":5976:5979   */\n      dup7\n        /* \"#utility.yul\":5972:5986   */\n      add\n        /* \"#utility.yul\":5958:5970   */\n      dup3\n        /* \"#utility.yul\":5924:5987   */\n      tag_88\n      jump\t// in\n    tag_185:\n        /* \"#utility.yul\":5828:5997   */\n      pop\n        /* \"#utility.yul\":6080:6084   */\n      0x60\n        /* \"#utility.yul\":6073:6078   */\n      dup4\n        /* \"#utility.yul\":6069:6085   */\n      add\n        /* \"#utility.yul\":6063:6086   */\n      mload\n        /* \"#utility.yul\":6099:6162   */\n      tag_186\n        /* \"#utility.yul\":6156:6160   */\n      0x60\n        /* \"#utility.yul\":6151:6154   */\n      dup7\n        /* \"#utility.yul\":6147:6161   */\n      add\n        /* \"#utility.yul\":6133:6145   */\n      dup3\n        /* \"#utility.yul\":6099:6162   */\n      tag_88\n      jump\t// in\n    tag_186:\n        /* \"#utility.yul\":6007:6172   */\n      pop\n        /* \"#utility.yul\":6189:6193   */\n      dup1\n        /* \"#utility.yul\":6182:6193   */\n      swap2\n      pop\n        /* \"#utility.yul\":5358:6199   */\n      pop\n        /* \"#utility.yul\":5252:6199   */\n      swap3\n      swap2\n      pop\n      pop\n      jump\t// out\n        /* \"#utility.yul\":6205:6445   */\n    tag_90:\n        /* \"#utility.yul\":6316:6326   */\n      0x00\n        /* \"#utility.yul\":6351:6439   */\n      tag_188\n        /* \"#utility.yul\":6435:6438   */\n      dup4\n        /* \"#utility.yul\":6427:6433   */\n      dup4\n        /* \"#utility.yul\":6351:6439   */\n      tag_89\n      jump\t// in\n    tag_188:\n        /* \"#utility.yul\":6337:6439   */\n      swap1\n      pop\n        /* \"#utility.yul\":6205:6445   */\n      swap3\n      swap2\n      pop\n      pop\n      jump\t// out\n        /* \"#utility.yul\":6451:6585   */\n    tag_91:\n        /* \"#utility.yul\":6542:6546   */\n      0x00\n        /* \"#utility.yul\":6574:6578   */\n      0x20\n        /* \"#utility.yul\":6569:6572   */\n      dup3\n        /* \"#utility.yul\":6565:6579   */\n      add\n        /* \"#utility.yul\":6557:6579   */\n      swap1\n      pop\n        /* \"#utility.yul\":6451:6585   */\n      swap2\n      swap1\n      pop\n      jump\t// out\n        /* \"#utility.yul\":6647:7726   */\n    tag_92:\n        /* \"#utility.yul\":6808:6811   */\n      0x00\n        /* \"#utility.yul\":6837:6912   */\n      tag_191\n        /* \"#utility.yul\":6906:6911   */\n      dup3\n        /* \"#utility.yul\":6837:6912   */\n      tag_82\n      jump\t// in\n    tag_191:\n        /* \"#utility.yul\":6928:7035   */\n      tag_192\n        /* \"#utility.yul\":7028:7034   */\n      dup2\n        /* \"#utility.yul\":7023:7026   */\n      dup6\n        /* \"#utility.yul\":6928:7035   */\n      tag_83\n      jump\t// in\n    tag_192:\n        /* \"#utility.yul\":6921:7035   */\n      swap4\n      pop\n        /* \"#utility.yul\":7061:7064   */\n      dup4\n        /* \"#utility.yul\":7106:7110   */\n      0x20\n        /* \"#utility.yul\":7098:7104   */\n      dup3\n        /* \"#utility.yul\":7094:7111   */\n      mul\n        /* \"#utility.yul\":7089:7092   */\n      dup6\n        /* \"#utility.yul\":7085:7112   */\n      add\n        /* \"#utility.yul\":7136:7213   */\n      tag_193\n        /* \"#utility.yul\":7207:7212   */\n      dup6\n        /* \"#utility.yul\":7136:7213   */\n      tag_84\n      jump\t// in\n    tag_193:\n        /* \"#utility.yul\":7236:7243   */\n      dup1\n        /* \"#utility.yul\":7267:7268   */\n      0x00\n        /* \"#utility.yul\":7252:7681   */\n    tag_194:\n        /* \"#utility.yul\":7277:7283   */\n      dup6\n        /* \"#utility.yul\":7274:7275   */\n      dup2\n        /* \"#utility.yul\":7271:7284   */\n      lt\n        /* \"#utility.yul\":7252:7681   */\n      iszero\n      tag_196\n      jumpi\n        /* \"#utility.yul\":7348:7357   */\n      dup5\n        /* \"#utility.yul\":7342:7346   */\n      dup5\n        /* \"#utility.yul\":7338:7358   */\n      sub\n        /* \"#utility.yul\":7333:7336   */\n      dup10\n        /* \"#utility.yul\":7326:7359   */\n      mstore\n        /* \"#utility.yul\":7399:7405   */\n      dup2\n        /* \"#utility.yul\":7393:7406   */\n      mload\n        /* \"#utility.yul\":7427:7533   */\n      tag_197\n        /* \"#utility.yul\":7528:7532   */\n      dup6\n        /* \"#utility.yul\":7513:7526   */\n      dup3\n        /* \"#utility.yul\":7427:7533   */\n      tag_90\n      jump\t// in\n    tag_197:\n        /* \"#utility.yul\":7419:7533   */\n      swap5\n      pop\n        /* \"#utility.yul\":7556:7637   */\n      tag_198\n        /* \"#utility.yul\":7630:7636   */\n      dup4\n        /* \"#utility.yul\":7556:7637   */\n      tag_91\n      jump\t// in\n    tag_198:\n        /* \"#utility.yul\":7546:7637   */\n      swap3\n      pop\n        /* \"#utility.yul\":7666:7670   */\n      0x20\n        /* \"#utility.yul\":7661:7664   */\n      dup11\n        /* \"#utility.yul\":7657:7671   */\n      add\n        /* \"#utility.yul\":7650:7671   */\n      swap10\n      pop\n        /* \"#utility.yul\":7312:7681   */\n      pop\n        /* \"#utility.yul\":7299:7300   */\n      0x01\n        /* \"#utility.yul\":7296:7297   */\n      dup2\n        /* \"#utility.yul\":7292:7301   */\n      add\n        /* \"#utility.yul\":7287:7301   */\n      swap1\n      pop\n        /* \"#utility.yul\":7252:7681   */\n      jump(tag_194)\n    tag_196:\n        /* \"#utility.yul\":7256:7270   */\n      pop\n        /* \"#utility.yul\":7697:7701   */\n      dup3\n        /* \"#utility.yul\":7690:7701   */\n      swap8\n      pop\n        /* \"#utility.yul\":7717:7720   */\n      dup8\n        /* \"#utility.yul\":7710:7720   */\n      swap6\n      pop\n        /* \"#utility.yul\":6813:7726   */\n      pop\n      pop\n      pop\n      pop\n      pop\n        /* \"#utility.yul\":6647:7726   */\n      swap3\n      swap2\n      pop\n      pop\n      jump\t// out\n        /* \"#utility.yul\":7732:8189   */\n    tag_18:\n        /* \"#utility.yul\":7917:7921   */\n      0x00\n        /* \"#utility.yul\":7955:7957   */\n      0x20\n        /* \"#utility.yul\":7944:7953   */\n      dup3\n        /* \"#utility.yul\":7940:7958   */\n      add\n        /* \"#utility.yul\":7932:7958   */\n      swap1\n      pop\n        /* \"#utility.yul\":8004:8013   */\n      dup2\n        /* \"#utility.yul\":7998:8002   */\n      dup2\n        /* \"#utility.yul\":7994:8014   */\n      sub\n        /* \"#utility.yul\":7990:7991   */\n      0x00\n        /* \"#utility.yul\":7979:7988   */\n      dup4\n        /* \"#utility.yul\":7975:7992   */\n      add\n        /* \"#utility.yul\":7968:8015   */\n      mstore\n        /* \"#utility.yul\":8032:8182   */\n      tag_200\n        /* \"#utility.yul\":8177:8181   */\n      dup2\n        /* \"#utility.yul\":8168:8174   */\n      dup5\n        /* \"#utility.yul\":8032:8182   */\n      tag_92\n      jump\t// in\n    tag_200:\n        /* \"#utility.yul\":8024:8182   */\n      swap1\n      pop\n        /* \"#utility.yul\":7732:8189   */\n      swap3\n      swap2\n      pop\n      pop\n      jump\t// out\n        /* \"#utility.yul\":8195:8312   */\n    tag_93:\n        /* \"#utility.yul\":8304:8305   */\n      0x00\n        /* \"#utility.yul\":8301:8302   */\n      dup1\n        /* \"#utility.yul\":8294:8306   */\n      revert\n        /* \"#utility.yul\":8318:8435   */\n    tag_94:\n        /* \"#utility.yul\":8427:8428   */\n      0x00\n        /* \"#utility.yul\":8424:8425   */\n      dup1\n        /* \"#utility.yul\":8417:8429   */\n      revert\n        /* \"#utility.yul\":8441:8621   */\n    tag_95:\n        /* \"#utility.yul\":8489:8566   */\n      0x4e487b7100000000000000000000000000000000000000000000000000000000\n        /* \"#utility.yul\":8486:8487   */\n      0x00\n        /* \"#utility.yul\":8479:8567   */\n      mstore\n        /* \"#utility.yul\":8586:8590   */\n      0x41\n        /* \"#utility.yul\":8583:8584   */\n      0x04\n        /* \"#utility.yul\":8576:8591   */\n      mstore\n        /* \"#utility.yul\":8610:8614   */\n      0x24\n        /* \"#utility.yul\":8607:8608   */\n      0x00\n        /* \"#utility.yul\":8600:8615   */\n      revert\n        /* \"#utility.yul\":8627:8908   */\n    tag_96:\n        /* \"#utility.yul\":8710:8737   */\n      tag_205\n        /* \"#utility.yul\":8732:8736   */\n      dup3\n        /* \"#utility.yul\":8710:8737   */\n      tag_79\n      jump\t// in\n    tag_205:\n        /* \"#utility.yul\":8702:8708   */\n      dup2\n        /* \"#utility.yul\":8698:8738   */\n      add\n        /* \"#utility.yul\":8840:8846   */\n      dup2\n        /* \"#utility.yul\":8828:8838   */\n      dup2\n        /* \"#utility.yul\":8825:8847   */\n      lt\n        /* \"#utility.yul\":8804:8822   */\n      0xffffffffffffffff\n        /* \"#utility.yul\":8792:8802   */\n      dup3\n        /* \"#utility.yul\":8789:8823   */\n      gt\n        /* \"#utility.yul\":8786:8848   */\n      or\n        /* \"#utility.yul\":8783:8871   */\n      iszero\n      tag_206\n      jumpi\n        /* \"#utility.yul\":8851:8869   */\n      tag_207\n      tag_95\n      jump\t// in\n    tag_207:\n        /* \"#utility.yul\":8783:8871   */\n    tag_206:\n        /* \"#utility.yul\":8891:8901   */\n      dup1\n        /* \"#utility.yul\":8887:8889   */\n      0x40\n        /* \"#utility.yul\":8880:8902   */\n      mstore\n        /* \"#utility.yul\":8670:8908   */\n      pop\n        /* \"#utility.yul\":8627:8908   */\n      pop\n      pop\n      jump\t// out\n        /* \"#utility.yul\":8914:9043   */\n    tag_97:\n        /* \"#utility.yul\":8948:8954   */\n      0x00\n        /* \"#utility.yul\":8975:8995   */\n      tag_209\n      tag_65\n      jump\t// in\n    tag_209:\n        /* \"#utility.yul\":8965:8995   */\n      swap1\n      pop\n        /* \"#utility.yul\":9004:9037   */\n      tag_210\n        /* \"#utility.yul\":9032:9036   */\n      dup3\n        /* \"#utility.yul\":9024:9030   */\n      dup3\n        /* \"#utility.yul\":9004:9037   */\n      tag_96\n      jump\t// in\n    tag_210:\n        /* \"#utility.yul\":8914:9043   */\n      swap2\n      swap1\n      pop\n      jump\t// out\n        /* \"#utility.yul\":9049:9357   */\n    tag_98:\n        /* \"#utility.yul\":9111:9115   */\n      0x00\n        /* \"#utility.yul\":9201:9219   */\n      0xffffffffffffffff\n        /* \"#utility.yul\":9193:9199   */\n      dup3\n        /* \"#utility.yul\":9190:9220   */\n      gt\n        /* \"#utility.yul\":9187:9243   */\n      iszero\n      tag_212\n      jumpi\n        /* \"#utility.yul\":9223:9241   */\n      tag_213\n      tag_95\n      jump\t// in\n    tag_213:\n        /* \"#utility.yul\":9187:9243   */\n    tag_212:\n        /* \"#utility.yul\":9261:9290   */\n      tag_214\n        /* \"#utility.yul\":9283:9289   */\n      dup3\n        /* \"#utility.yul\":9261:9290   */\n      tag_79\n      jump\t// in\n    tag_214:\n        /* \"#utility.yul\":9253:9290   */\n      swap1\n      pop\n        /* \"#utility.yul\":9345:9349   */\n      0x20\n        /* \"#utility.yul\":9339:9343   */\n      dup2\n        /* \"#utility.yul\":9335:9350   */\n      add\n        /* \"#utility.yul\":9327:9350   */\n      swap1\n      pop\n        /* \"#utility.yul\":9049:9357   */\n      swap2\n      swap1\n      pop\n      jump\t// out\n        /* \"#utility.yul\":9363:9509   */\n    tag_99:\n        /* \"#utility.yul\":9460:9466   */\n      dup3\n        /* \"#utility.yul\":9455:9458   */\n      dup2\n        /* \"#utility.yul\":9450:9453   */\n      dup4\n        /* \"#utility.yul\":9437:9467   */\n      calldatacopy\n        /* \"#utility.yul\":9501:9502   */\n      0x00\n        /* \"#utility.yul\":9492:9498   */\n      dup4\n        /* \"#utility.yul\":9487:9490   */\n      dup4\n        /* \"#utility.yul\":9483:9499   */\n      add\n        /* \"#utility.yul\":9476:9503   */\n      mstore\n        /* \"#utility.yul\":9363:9509   */\n      pop\n      pop\n      pop\n      jump\t// out\n        /* \"#utility.yul\":9515:9940   */\n    tag_100:\n        /* \"#utility.yul\":9593:9598   */\n      0x00\n        /* \"#utility.yul\":9618:9684   */\n      tag_217\n        /* \"#utility.yul\":9634:9683   */\n      tag_218\n        /* \"#utility.yul\":9676:9682   */\n      dup5\n        /* \"#utility.yul\":9634:9683   */\n      tag_98\n      jump\t// in\n    tag_218:\n        /* \"#utility.yul\":9618:9684   */\n      tag_97\n      jump\t// in\n    tag_217:\n        /* \"#utility.yul\":9609:9684   */\n      swap1\n      pop\n        /* \"#utility.yul\":9707:9713   */\n      dup3\n        /* \"#utility.yul\":9700:9705   */\n      dup2\n        /* \"#utility.yul\":9693:9714   */\n      mstore\n        /* \"#utility.yul\":9745:9749   */\n      0x20\n        /* \"#utility.yul\":9738:9743   */\n      dup2\n        /* \"#utility.yul\":9734:9750   */\n      add\n        /* \"#utility.yul\":9783:9786   */\n      dup5\n        /* \"#utility.yul\":9774:9780   */\n      dup5\n        /* \"#utility.yul\":9769:9772   */\n      dup5\n        /* \"#utility.yul\":9765:9781   */\n      add\n        /* \"#utility.yul\":9762:9787   */\n      gt\n        /* \"#utility.yul\":9759:9871   */\n      iszero\n      tag_219\n      jumpi\n        /* \"#utility.yul\":9790:9869   */\n      tag_220\n      tag_94\n      jump\t// in\n    tag_220:\n        /* \"#utility.yul\":9759:9871   */\n    tag_219:\n        /* \"#utility.yul\":9880:9934   */\n      tag_221\n        /* \"#utility.yul\":9927:9933   */\n      dup5\n        /* \"#utility.yul\":9922:9925   */\n      dup3\n        /* \"#utility.yul\":9917:9920   */\n      dup6\n        /* \"#utility.yul\":9880:9934   */\n      tag_99\n      jump\t// in\n    tag_221:\n        /* \"#utility.yul\":9599:9940   */\n      pop\n        /* \"#utility.yul\":9515:9940   */\n      swap4\n      swap3\n      pop\n      pop\n      pop\n      jump\t// out\n        /* \"#utility.yul\":9960:10300   */\n    tag_101:\n        /* \"#utility.yul\":10016:10021   */\n      0x00\n        /* \"#utility.yul\":10065:10068   */\n      dup3\n        /* \"#utility.yul\":10058:10062   */\n      0x1f\n        /* \"#utility.yul\":10050:10056   */\n      dup4\n        /* \"#utility.yul\":10046:10063   */\n      add\n        /* \"#utility.yul\":10042:10069   */\n      slt\n        /* \"#utility.yul\":10032:10154   */\n      tag_223\n      jumpi\n        /* \"#utility.yul\":10073:10152   */\n      tag_224\n      tag_93\n      jump\t// in\n    tag_224:\n        /* \"#utility.yul\":10032:10154   */\n    tag_223:\n        /* \"#utility.yul\":10190:10196   */\n      dup2\n        /* \"#utility.yul\":10177:10197   */\n      calldataload\n        /* \"#utility.yul\":10215:10294   */\n      tag_225\n        /* \"#utility.yul\":10290:10293   */\n      dup5\n        /* \"#utility.yul\":10282:10288   */\n      dup3\n        /* \"#utility.yul\":10275:10279   */\n      0x20\n        /* \"#utility.yul\":10267:10273   */\n      dup7\n        /* \"#utility.yul\":10263:10280   */\n      add\n        /* \"#utility.yul\":10215:10294   */\n      tag_100\n      jump\t// in\n    tag_225:\n        /* \"#utility.yul\":10206:10294   */\n      swap2\n      pop\n        /* \"#utility.yul\":10022:10300   */\n      pop\n        /* \"#utility.yul\":9960:10300   */\n      swap3\n      swap2\n      pop\n      pop\n      jump\t// out\n        /* \"#utility.yul\":10306:10815   */\n    tag_21:\n        /* \"#utility.yul\":10375:10381   */\n      0x00\n        /* \"#utility.yul\":10424:10426   */\n      0x20\n        /* \"#utility.yul\":10412:10421   */\n      dup3\n        /* \"#utility.yul\":10403:10410   */\n      dup5\n        /* \"#utility.yul\":10399:10422   */\n      sub\n        /* \"#utility.yul\":10395:10427   */\n      slt\n        /* \"#utility.yul\":10392:10511   */\n      iszero\n      tag_227\n      jumpi\n        /* \"#utility.yul\":10430:10509   */\n      tag_228\n      tag_66\n      jump\t// in\n    tag_228:\n        /* \"#utility.yul\":10392:10511   */\n    tag_227:\n        /* \"#utility.yul\":10578:10579   */\n      0x00\n        /* \"#utility.yul\":10567:10576   */\n      dup3\n        /* \"#utility.yul\":10563:10580   */\n      add\n        /* \"#utility.yul\":10550:10581   */\n      calldataload\n        /* \"#utility.yul\":10608:10626   */\n      0xffffffffffffffff\n        /* \"#utility.yul\":10600:10606   */\n      dup2\n        /* \"#utility.yul\":10597:10627   */\n      gt\n        /* \"#utility.yul\":10594:10711   */\n      iszero\n      tag_229\n      jumpi\n        /* \"#utility.yul\":10630:10709   */\n      tag_230\n      tag_67\n      jump\t// in\n    tag_230:\n        /* \"#utility.yul\":10594:10711   */\n    tag_229:\n        /* \"#utility.yul\":10735:10798   */\n      tag_231\n        /* \"#utility.yul\":10790:10797   */\n      dup5\n        /* \"#utility.yul\":10781:10787   */\n      dup3\n        /* \"#utility.yul\":10770:10779   */\n      dup6\n        /* \"#utility.yul\":10766:10788   */\n      add\n        /* \"#utility.yul\":10735:10798   */\n      tag_101\n      jump\t// in\n    tag_231:\n        /* \"#utility.yul\":10725:10798   */\n      swap2\n      pop\n        /* \"#utility.yul\":10521:10808   */\n      pop\n        /* \"#utility.yul\":10306:10815   */\n      swap3\n      swap2\n      pop\n      pop\n      jump\t// out\n        /* \"#utility.yul\":10821:11150   */\n    tag_25:\n        /* \"#utility.yul\":10880:10886   */\n      0x00\n        /* \"#utility.yul\":10929:10931   */\n      0x20\n        /* \"#utility.yul\":10917:10926   */\n      dup3\n        /* \"#utility.yul\":10908:10915   */\n      dup5\n        /* \"#utility.yul\":10904:10927   */\n      sub\n        /* \"#utility.yul\":10900:10932   */\n      slt\n        /* \"#utility.yul\":10897:11016   */\n      iszero\n      tag_233\n      jumpi\n        /* \"#utility.yul\":10935:11014   */\n      tag_234\n      tag_66\n      jump\t// in\n    tag_234:\n        /* \"#utility.yul\":10897:11016   */\n    tag_233:\n        /* \"#utility.yul\":11055:11056   */\n      0x00\n        /* \"#utility.yul\":11080:11133   */\n      tag_235\n        /* \"#utility.yul\":11125:11132   */\n      dup5\n        /* \"#utility.yul\":11116:11122   */\n      dup3\n        /* \"#utility.yul\":11105:11114   */\n      dup6\n        /* \"#utility.yul\":11101:11123   */\n      add\n        /* \"#utility.yul\":11080:11133   */\n      tag_74\n      jump\t// in\n    tag_235:\n        /* \"#utility.yul\":11070:11133   */\n      swap2\n      pop\n        /* \"#utility.yul\":11026:11143   */\n      pop\n        /* \"#utility.yul\":10821:11150   */\n      swap3\n      swap2\n      pop\n      pop\n      jump\t// out\n        /* \"#utility.yul\":11208:12165   */\n    tag_102:\n        /* \"#utility.yul\":11319:11322   */\n      0x00\n        /* \"#utility.yul\":11355:11359   */\n      0x80\n        /* \"#utility.yul\":11350:11353   */\n      dup4\n        /* \"#utility.yul\":11346:11360   */\n      add\n        /* \"#utility.yul\":11444:11448   */\n      0x00\n        /* \"#utility.yul\":11437:11442   */\n      dup4\n        /* \"#utility.yul\":11433:11449   */\n      add\n        /* \"#utility.yul\":11427:11450   */\n      mload\n        /* \"#utility.yul\":11463:11526   */\n      tag_237\n        /* \"#utility.yul\":11520:11524   */\n      0x00\n        /* \"#utility.yul\":11515:11518   */\n      dup7\n        /* \"#utility.yul\":11511:11525   */\n      add\n        /* \"#utility.yul\":11497:11509   */\n      dup3\n        /* \"#utility.yul\":11463:11526   */\n      tag_85\n      jump\t// in\n    tag_237:\n        /* \"#utility.yul\":11370:11536   */\n      pop\n        /* \"#utility.yul\":11621:11625   */\n      0x20\n        /* \"#utility.yul\":11614:11619   */\n      dup4\n        /* \"#utility.yul\":11610:11626   */\n      add\n        /* \"#utility.yul\":11604:11627   */\n      mload\n        /* \"#utility.yul\":11674:11677   */\n      dup5\n        /* \"#utility.yul\":11668:11672   */\n      dup3\n        /* \"#utility.yul\":11664:11678   */\n      sub\n        /* \"#utility.yul\":11657:11661   */\n      0x20\n        /* \"#utility.yul\":11652:11655   */\n      dup7\n        /* \"#utility.yul\":11648:11662   */\n      add\n        /* \"#utility.yul\":11641:11679   */\n      mstore\n        /* \"#utility.yul\":11700:11773   */\n      tag_238\n        /* \"#utility.yul\":11768:11772   */\n      dup3\n        /* \"#utility.yul\":11754:11766   */\n      dup3\n        /* \"#utility.yul\":11700:11773   */\n      tag_87\n      jump\t// in\n    tag_238:\n        /* \"#utility.yul\":11692:11773   */\n      swap2\n      pop\n        /* \"#utility.yul\":11546:11784   */\n      pop\n        /* \"#utility.yul\":11871:11875   */\n      0x40\n        /* \"#utility.yul\":11864:11869   */\n      dup4\n        /* \"#utility.yul\":11860:11876   */\n      add\n        /* \"#utility.yul\":11854:11877   */\n      mload\n        /* \"#utility.yul\":11890:11953   */\n      tag_239\n        /* \"#utility.yul\":11947:11951   */\n      0x40\n        /* \"#utility.yul\":11942:11945   */\n      dup7\n        /* \"#utility.yul\":11938:11952   */\n      add\n        /* \"#utility.yul\":11924:11936   */\n      dup3\n        /* \"#utility.yul\":11890:11953   */\n      tag_88\n      jump\t// in\n    tag_239:\n        /* \"#utility.yul\":11794:11963   */\n      pop\n        /* \"#utility.yul\":12046:12050   */\n      0x60\n        /* \"#utility.yul\":12039:12044   */\n      dup4\n        /* \"#utility.yul\":12035:12051   */\n      add\n        /* \"#utility.yul\":12029:12052   */\n      mload\n        /* \"#utility.yul\":12065:12128   */\n      tag_240\n        /* \"#utility.yul\":12122:12126   */\n      0x60\n        /* \"#utility.yul\":12117:12120   */\n      dup7\n        /* \"#utility.yul\":12113:12127   */\n      add\n        /* \"#utility.yul\":12099:12111   */\n      dup3\n        /* \"#utility.yul\":12065:12128   */\n      tag_88\n      jump\t// in\n    tag_240:\n        /* \"#utility.yul\":11973:12138   */\n      pop\n        /* \"#utility.yul\":12155:12159   */\n      dup1\n        /* \"#utility.yul\":12148:12159   */\n      swap2\n      pop\n        /* \"#utility.yul\":11324:12165   */\n      pop\n        /* \"#utility.yul\":11208:12165   */\n      swap3\n      swap2\n      pop\n      pop\n      jump\t// out\n        /* \"#utility.yul\":12171:12528   */\n    tag_28:\n        /* \"#utility.yul\":12306:12310   */\n      0x00\n        /* \"#utility.yul\":12344:12346   */\n      0x20\n        /* \"#utility.yul\":12333:12342   */\n      dup3\n        /* \"#utility.yul\":12329:12347   */\n      add\n        /* \"#utility.yul\":12321:12347   */\n      swap1\n      pop\n        /* \"#utility.yul\":12393:12402   */\n      dup2\n        /* \"#utility.yul\":12387:12391   */\n      dup2\n        /* \"#utility.yul\":12383:12403   */\n      sub\n        /* \"#utility.yul\":12379:12380   */\n      0x00\n        /* \"#utility.yul\":12368:12377   */\n      dup4\n        /* \"#utility.yul\":12364:12381   */\n      add\n        /* \"#utility.yul\":12357:12404   */\n      mstore\n        /* \"#utility.yul\":12421:12521   */\n      tag_242\n        /* \"#utility.yul\":12516:12520   */\n      dup2\n        /* \"#utility.yul\":12507:12513   */\n      dup5\n        /* \"#utility.yul\":12421:12521   */\n      tag_102\n      jump\t// in\n    tag_242:\n        /* \"#utility.yul\":12413:12521   */\n      swap1\n      pop\n        /* \"#utility.yul\":12171:12528   */\n      swap3\n      swap2\n      pop\n      pop\n      jump\t// out\n        /* \"#utility.yul\":12534:12714   */\n    tag_103:\n        /* \"#utility.yul\":12582:12659   */\n      0x4e487b7100000000000000000000000000000000000000000000000000000000\n        /* \"#utility.yul\":12579:12580   */\n      0x00\n        /* \"#utility.yul\":12572:12660   */\n      mstore\n        /* \"#utility.yul\":12679:12683   */\n      0x22\n        /* \"#utility.yul\":12676:12677   */\n      0x04\n        /* \"#utility.yul\":12669:12684   */\n      mstore\n        /* \"#utility.yul\":12703:12707   */\n      0x24\n        /* \"#utility.yul\":12700:12701   */\n      0x00\n        /* \"#utility.yul\":12693:12708   */\n      revert\n        /* \"#utility.yul\":12720:13040   */\n    tag_32:\n        /* \"#utility.yul\":12764:12770   */\n      0x00\n        /* \"#utility.yul\":12801:12802   */\n      0x02\n        /* \"#utility.yul\":12795:12799   */\n      dup3\n        /* \"#utility.yul\":12791:12803   */\n      div\n        /* \"#utility.yul\":12781:12803   */\n      swap1\n      pop\n        /* \"#utility.yul\":12848:12849   */\n      0x01\n        /* \"#utility.yul\":12842:12846   */\n      dup3\n        /* \"#utility.yul\":12838:12850   */\n      and\n        /* \"#utility.yul\":12869:12887   */\n      dup1\n        /* \"#utility.yul\":12859:12940   */\n      tag_245\n      jumpi\n        /* \"#utility.yul\":12925:12929   */\n      0x7f\n        /* \"#utility.yul\":12917:12923   */\n      dup3\n        /* \"#utility.yul\":12913:12930   */\n      and\n        /* \"#utility.yul\":12903:12930   */\n      swap2\n      pop\n        /* \"#utility.yul\":12859:12940   */\n    tag_245:\n        /* \"#utility.yul\":12987:12989   */\n      0x20\n        /* \"#utility.yul\":12979:12985   */\n      dup3\n        /* \"#utility.yul\":12976:12990   */\n      lt\n        /* \"#utility.yul\":12956:12974   */\n      dup2\n        /* \"#utility.yul\":12953:12991   */\n      sub\n        /* \"#utility.yul\":12950:13034   */\n      tag_246\n      jumpi\n        /* \"#utility.yul\":13006:13024   */\n      tag_247\n      tag_103\n      jump\t// in\n    tag_247:\n        /* \"#utility.yul\":12950:13034   */\n    tag_246:\n        /* \"#utility.yul\":12771:13040   */\n      pop\n        /* \"#utility.yul\":12720:13040   */\n      swap2\n      swap1\n      pop\n      jump\t// out\n        /* \"#utility.yul\":13046:13218   */\n    tag_104:\n        /* \"#utility.yul\":13186:13210   */\n      0x547765657420697320746f6f206c6f6e672062726f2100000000000000000000\n        /* \"#utility.yul\":13182:13183   */\n      0x00\n        /* \"#utility.yul\":13174:13180   */\n      dup3\n        /* \"#utility.yul\":13170:13184   */\n      add\n        /* \"#utility.yul\":13163:13211   */\n      mstore\n        /* \"#utility.yul\":13046:13218   */\n      pop\n      jump\t// out\n        /* \"#utility.yul\":13224:13590   */\n    tag_105:\n        /* \"#utility.yul\":13366:13369   */\n      0x00\n        /* \"#utility.yul\":13387:13454   */\n      tag_250\n        /* \"#utility.yul\":13451:13453   */\n      0x16\n        /* \"#utility.yul\":13446:13449   */\n      dup4\n        /* \"#utility.yul\":13387:13454   */\n      tag_77\n      jump\t// in\n    tag_250:\n        /* \"#utility.yul\":13380:13454   */\n      swap2\n      pop\n        /* \"#utility.yul\":13463:13556   */\n      tag_251\n        /* \"#utility.yul\":13552:13555   */\n      dup3\n        /* \"#utility.yul\":13463:13556   */\n      tag_104\n      jump\t// in\n    tag_251:\n        /* \"#utility.yul\":13581:13583   */\n      0x20\n        /* \"#utility.yul\":13576:13579   */\n      dup3\n        /* \"#utility.yul\":13572:13584   */\n      add\n        /* \"#utility.yul\":13565:13584   */\n      swap1\n      pop\n        /* \"#utility.yul\":13224:13590   */\n      swap2\n      swap1\n      pop\n      jump\t// out\n        /* \"#utility.yul\":13596:14015   */\n    tag_49:\n        /* \"#utility.yul\":13762:13766   */\n      0x00\n        /* \"#utility.yul\":13800:13802   */\n      0x20\n        /* \"#utility.yul\":13789:13798   */\n      dup3\n        /* \"#utility.yul\":13785:13803   */\n      add\n        /* \"#utility.yul\":13777:13803   */\n      swap1\n      pop\n        /* \"#utility.yul\":13849:13858   */\n      dup2\n        /* \"#utility.yul\":13843:13847   */\n      dup2\n        /* \"#utility.yul\":13839:13859   */\n      sub\n        /* \"#utility.yul\":13835:13836   */\n      0x00\n        /* \"#utility.yul\":13824:13833   */\n      dup4\n        /* \"#utility.yul\":13820:13837   */\n      add\n        /* \"#utility.yul\":13813:13860   */\n      mstore\n        /* \"#utility.yul\":13877:14008   */\n      tag_253\n        /* \"#utility.yul\":14003:14007   */\n      dup2\n        /* \"#utility.yul\":13877:14008   */\n      tag_105\n      jump\t// in\n    tag_253:\n        /* \"#utility.yul\":13869:14008   */\n      swap1\n      pop\n        /* \"#utility.yul\":13596:14015   */\n      swap2\n      swap1\n      pop\n      jump\t// out\n        /* \"#utility.yul\":14021:14162   */\n    tag_106:\n        /* \"#utility.yul\":14070:14074   */\n      0x00\n        /* \"#utility.yul\":14093:14096   */\n      dup2\n        /* \"#utility.yul\":14085:14096   */\n      swap1\n      pop\n        /* \"#utility.yul\":14116:14119   */\n      dup2\n        /* \"#utility.yul\":14113:14114   */\n      0x00\n        /* \"#utility.yul\":14106:14120   */\n      mstore\n        /* \"#utility.yul\":14150:14154   */\n      0x20\n        /* \"#utility.yul\":14147:14148   */\n      0x00\n        /* \"#utility.yul\":14137:14155   */\n      keccak256\n        /* \"#utility.yul\":14129:14155   */\n      swap1\n      pop\n        /* \"#utility.yul\":14021:14162   */\n      swap2\n      swap1\n      pop\n      jump\t// out\n        /* \"#utility.yul\":14168:14261   */\n    tag_107:\n        /* \"#utility.yul\":14205:14211   */\n      0x00\n        /* \"#utility.yul\":14252:14254   */\n      0x20\n        /* \"#utility.yul\":14247:14249   */\n      0x1f\n        /* \"#utility.yul\":14240:14245   */\n      dup4\n        /* \"#utility.yul\":14236:14250   */\n      add\n        /* \"#utility.yul\":14232:14255   */\n      div\n        /* \"#utility.yul\":14222:14255   */\n      swap1\n      pop\n        /* \"#utility.yul\":14168:14261   */\n      swap2\n      swap1\n      pop\n      jump\t// out\n        /* \"#utility.yul\":14267:14374   */\n    tag_108:\n        /* \"#utility.yul\":14311:14319   */\n      0x00\n        /* \"#utility.yul\":14361:14366   */\n      dup3\n        /* \"#utility.yul\":14355:14359   */\n      dup3\n        /* \"#utility.yul\":14351:14367   */\n      shl\n        /* \"#utility.yul\":14330:14367   */\n      swap1\n      pop\n        /* \"#utility.yul\":14267:14374   */\n      swap3\n      swap2\n      pop\n      pop\n      jump\t// out\n        /* \"#utility.yul\":14380:14773   */\n    tag_109:\n        /* \"#utility.yul\":14449:14455   */\n      0x00\n        /* \"#utility.yul\":14499:14500   */\n      0x08\n        /* \"#utility.yul\":14487:14497   */\n      dup4\n        /* \"#utility.yul\":14483:14501   */\n      mul\n        /* \"#utility.yul\":14522:14619   */\n      tag_258\n        /* \"#utility.yul\":14552:14618   */\n      0xffffffffffffffffffffffffffffffffffffffffffffffffffffffffffffffff\n        /* \"#utility.yul\":14541:14550   */\n      dup3\n        /* \"#utility.yul\":14522:14619   */\n      tag_108\n      jump\t// in\n    tag_258:\n        /* \"#utility.yul\":14640:14679   */\n      tag_259\n        /* \"#utility.yul\":14670:14678   */\n      dup7\n        /* \"#utility.yul\":14659:14668   */\n      dup4\n        /* \"#utility.yul\":14640:14679   */\n      tag_108\n      jump\t// in\n    tag_259:\n        /* \"#utility.yul\":14628:14679   */\n      swap6\n      pop\n        /* \"#utility.yul\":14712:14716   */\n      dup1\n        /* \"#utility.yul\":14708:14717   */\n      not\n        /* \"#utility.yul\":14701:14706   */\n      dup5\n        /* \"#utility.yul\":14697:14718   */\n      and\n        /* \"#utility.yul\":14688:14718   */\n      swap4\n      pop\n        /* \"#utility.yul\":14761:14765   */\n      dup1\n        /* \"#utility.yul\":14751:14759   */\n      dup7\n        /* \"#utility.yul\":14747:14766   */\n      and\n        /* \"#utility.yul\":14740:14745   */\n      dup5\n        /* \"#utility.yul\":14737:14767   */\n      or\n        /* \"#utility.yul\":14727:14767   */\n      swap3\n      pop\n        /* \"#utility.yul\":14456:14773   */\n      pop\n      pop\n        /* \"#utility.yul\":14380:14773   */\n      swap4\n      swap3\n      pop\n      pop\n      pop\n      jump\t// out\n        /* \"#utility.yul\":14779:14839   */\n    tag_110:\n        /* \"#utility.yul\":14807:14810   */\n      0x00\n        /* \"#utility.yul\":14828:14833   */\n      dup2\n        /* \"#utility.yul\":14821:14833   */\n      swap1\n      pop\n        /* \"#utility.yul\":14779:14839   */\n      swap2\n      swap1\n      pop\n      jump\t// out\n        /* \"#utility.yul\":14845:14987   */\n    tag_111:\n        /* \"#utility.yul\":14895:14904   */\n      0x00\n        /* \"#utility.yul\":14928:14981   */\n      tag_262\n        /* \"#utility.yul\":14946:14980   */\n      tag_263\n        /* \"#utility.yul\":14955:14979   */\n      tag_264\n        /* \"#utility.yul\":14973:14978   */\n      dup5\n        /* \"#utility.yul\":14955:14979   */\n      tag_72\n      jump\t// in\n    tag_264:\n        /* \"#utility.yul\":14946:14980   */\n      tag_110\n      jump\t// in\n    tag_263:\n        /* \"#utility.yul\":14928:14981   */\n      tag_72\n      jump\t// in\n    tag_262:\n        /* \"#utility.yul\":14915:14981   */\n      swap1\n      pop\n        /* \"#utility.yul\":14845:14987   */\n      swap2\n      swap1\n      pop\n      jump\t// out\n        /* \"#utility.yul\":14993:15068   */\n    tag_112:\n        /* \"#utility.yul\":15036:15039   */\n      0x00\n        /* \"#utility.yul\":15057:15062   */\n      dup2\n        /* \"#utility.yul\":15050:15062   */\n      swap1\n      pop\n        /* \"#utility.yul\":14993:15068   */\n      swap2\n      swap1\n      pop\n      jump\t// out\n        /* \"#utility.yul\":15074:15343   */\n    tag_113:\n        /* \"#utility.yul\":15184:15223   */\n      tag_267\n        /* \"#utility.yul\":15215:15222   */\n      dup4\n        /* \"#utility.yul\":15184:15223   */\n      tag_111\n      jump\t// in\n    tag_267:\n        /* \"#utility.yul\":15245:15336   */\n      tag_268\n        /* \"#utility.yul\":15294:15335   */\n      tag_269\n        /* \"#utility.yul\":15318:15334   */\n      dup3\n        /* \"#utility.yul\":15294:15335   */\n      tag_112\n      jump\t// in\n    tag_269:\n        /* \"#utility.yul\":15286:15292   */\n      dup5\n        /* \"#utility.yul\":15279:15283   */\n      dup5\n        /* \"#utility.yul\":15273:15284   */\n      sload\n        /* \"#utility.yul\":15245:15336   */\n      tag_109\n      jump\t// in\n    tag_268:\n        /* \"#utility.yul\":15239:15243   */\n      dup3\n        /* \"#utility.yul\":15232:15337   */\n      sstore\n        /* \"#utility.yul\":15150:15343   */\n      pop\n        /* \"#utility.yul\":15074:15343   */\n      pop\n      pop\n      pop\n      jump\t// out\n        /* \"#utility.yul\":15349:15422   */\n    tag_114:\n        /* \"#utility.yul\":15394:15397   */\n      0x00\n        /* \"#utility.yul\":15349:15422   */\n      swap1\n      jump\t// out\n        /* \"#utility.yul\":15428:15617   */\n    tag_115:\n        /* \"#utility.yul\":15505:15537   */\n      tag_272\n      tag_114\n      jump\t// in\n    tag_272:\n        /* \"#utility.yul\":15546:15611   */\n      tag_273\n        /* \"#utility.yul\":15604:15610   */\n      dup2\n        /* \"#utility.yul\":15596:15602   */\n      dup5\n        /* \"#utility.yul\":15590:15594   */\n      dup5\n        /* \"#utility.yul\":15546:15611   */\n      tag_113\n      jump\t// in\n    tag_273:\n        /* \"#utility.yul\":15481:15617   */\n      pop\n        /* \"#utility.yul\":15428:15617   */\n      pop\n      pop\n      jump\t// out\n        /* \"#utility.yul\":15623:15809   */\n    tag_116:\n        /* \"#utility.yul\":15683:15803   */\n    tag_275:\n        /* \"#utility.yul\":15700:15703   */\n      dup2\n        /* \"#utility.yul\":15693:15698   */\n      dup2\n        /* \"#utility.yul\":15690:15704   */\n      lt\n        /* \"#utility.yul\":15683:15803   */\n      iszero\n      tag_277\n      jumpi\n        /* \"#utility.yul\":15754:15793   */\n      tag_278\n        /* \"#utility.yul\":15791:15792   */\n      0x00\n        /* \"#utility.yul\":15784:15789   */\n      dup3\n        /* \"#utility.yul\":15754:15793   */\n      tag_115\n      jump\t// in\n    tag_278:\n        /* \"#utility.yul\":15727:15728   */\n      0x01\n        /* \"#utility.yul\":15720:15725   */\n      dup2\n        /* \"#utility.yul\":15716:15729   */\n      add\n        /* \"#utility.yul\":15707:15729   */\n      swap1\n      pop\n        /* \"#utility.yul\":15683:15803   */\n      jump(tag_275)\n    tag_277:\n        /* \"#utility.yul\":15623:15809   */\n      pop\n      pop\n      jump\t// out\n        /* \"#utility.yul\":15815:16358   */\n    tag_117:\n        /* \"#utility.yul\":15916:15918   */\n      0x1f\n        /* \"#utility.yul\":15911:15914   */\n      dup3\n        /* \"#utility.yul\":15908:15919   */\n      gt\n        /* \"#utility.yul\":15905:16351   */\n      iszero\n      tag_280\n      jumpi\n        /* \"#utility.yul\":15950:15988   */\n      tag_281\n        /* \"#utility.yul\":15982:15987   */\n      dup2\n        /* \"#utility.yul\":15950:15988   */\n      tag_106\n      jump\t// in\n    tag_281:\n        /* \"#utility.yul\":16034:16063   */\n      tag_282\n        /* \"#utility.yul\":16052:16062   */\n      dup5\n        /* \"#utility.yul\":16034:16063   */\n      tag_107\n      jump\t// in\n    tag_282:\n        /* \"#utility.yul\":16024:16032   */\n      dup2\n        /* \"#utility.yul\":16020:16064   */\n      add\n        /* \"#utility.yul\":16217:16219   */\n      0x20\n        /* \"#utility.yul\":16205:16215   */\n      dup6\n        /* \"#utility.yul\":16202:16220   */\n      lt\n        /* \"#utility.yul\":16199:16248   */\n      iszero\n      tag_283\n      jumpi\n        /* \"#utility.yul\":16238:16246   */\n      dup2\n        /* \"#utility.yul\":16223:16246   */\n      swap1\n      pop\n        /* \"#utility.yul\":16199:16248   */\n    tag_283:\n        /* \"#utility.yul\":16261:16341   */\n      tag_284\n        /* \"#utility.yul\":16317:16339   */\n      tag_285\n        /* \"#utility.yul\":16335:16338   */\n      dup6\n        /* \"#utility.yul\":16317:16339   */\n      tag_107\n      jump\t// in\n    tag_285:\n        /* \"#utility.yul\":16307:16315   */\n      dup4\n        /* \"#utility.yul\":16303:16340   */\n      add\n        /* \"#utility.yul\":16290:16301   */\n      dup3\n        /* \"#utility.yul\":16261:16341   */\n      tag_116\n      jump\t// in\n    tag_284:\n        /* \"#utility.yul\":15920:16351   */\n      pop\n      pop\n        /* \"#utility.yul\":15905:16351   */\n    tag_280:\n        /* \"#utility.yul\":15815:16358   */\n      pop\n      pop\n      pop\n      jump\t// out\n        /* \"#utility.yul\":16364:16481   */\n    tag_118:\n        /* \"#utility.yul\":16418:16426   */\n      0x00\n        /* \"#utility.yul\":16468:16473   */\n      dup3\n        /* \"#utility.yul\":16462:16466   */\n      dup3\n        /* \"#utility.yul\":16458:16474   */\n      shr\n        /* \"#utility.yul\":16437:16474   */\n      swap1\n      pop\n        /* \"#utility.yul\":16364:16481   */\n      swap3\n      swap2\n      pop\n      pop\n      jump\t// out\n        /* \"#utility.yul\":16487:16656   */\n    tag_119:\n        /* \"#utility.yul\":16531:16537   */\n      0x00\n        /* \"#utility.yul\":16564:16615   */\n      tag_288\n        /* \"#utility.yul\":16612:16613   */\n      0x00\n        /* \"#utility.yul\":16608:16614   */\n      not\n        /* \"#utility.yul\":16600:16605   */\n      dup5\n        /* \"#utility.yul\":16597:16598   */\n      0x08\n        /* \"#utility.yul\":16593:16606   */\n      mul\n        /* \"#utility.yul\":16564:16615   */\n      tag_118\n      jump\t// in\n    tag_288:\n        /* \"#utility.yul\":16560:16616   */\n      not\n        /* \"#utility.yul\":16645:16649   */\n      dup1\n        /* \"#utility.yul\":16639:16643   */\n      dup4\n        /* \"#utility.yul\":16635:16650   */\n      and\n        /* \"#utility.yul\":16625:16650   */\n      swap2\n      pop\n        /* \"#utility.yul\":16538:16656   */\n      pop\n        /* \"#utility.yul\":16487:16656   */\n      swap3\n      swap2\n      pop\n      pop\n      jump\t// out\n        /* \"#utility.yul\":16661:16956   */\n    tag_120:\n        /* \"#utility.yul\":16737:16741   */\n      0x00\n        /* \"#utility.yul\":16883:16912   */\n      tag_290\n        /* \"#utility.yul\":16908:16911   */\n      dup4\n        /* \"#utility.yul\":16902:16906   */\n      dup4\n        /* \"#utility.yul\":16883:16912   */\n      tag_119\n      jump\t// in\n    tag_290:\n        /* \"#utility.yul\":16875:16912   */\n      swap2\n      pop\n        /* \"#utility.yul\":16945:16948   */\n      dup3\n        /* \"#utility.yul\":16942:16943   */\n      0x02\n        /* \"#utility.yul\":16938:16949   */\n      mul\n        /* \"#utility.yul\":16932:16936   */\n      dup3\n        /* \"#utility.yul\":16929:16950   */\n      or\n        /* \"#utility.yul\":16921:16950   */\n      swap1\n      pop\n        /* \"#utility.yul\":16661:16956   */\n      swap3\n      swap2\n      pop\n      pop\n      jump\t// out\n        /* \"#utility.yul\":16961:18356   */\n    tag_52:\n        /* \"#utility.yul\":17078:17115   */\n      tag_292\n        /* \"#utility.yul\":17111:17114   */\n      dup3\n        /* \"#utility.yul\":17078:17115   */\n      tag_76\n      jump\t// in\n    tag_292:\n        /* \"#utility.yul\":17180:17198   */\n      0xffffffffffffffff\n        /* \"#utility.yul\":17172:17178   */\n      dup2\n        /* \"#utility.yul\":17169:17199   */\n      gt\n        /* \"#utility.yul\":17166:17222   */\n      iszero\n      tag_293\n      jumpi\n        /* \"#utility.yul\":17202:17220   */\n      tag_294\n      tag_95\n      jump\t// in\n    tag_294:\n        /* \"#utility.yul\":17166:17222   */\n    tag_293:\n        /* \"#utility.yul\":17246:17284   */\n      tag_295\n        /* \"#utility.yul\":17278:17282   */\n      dup3\n        /* \"#utility.yul\":17272:17283   */\n      sload\n        /* \"#utility.yul\":17246:17284   */\n      tag_32\n      jump\t// in\n    tag_295:\n        /* \"#utility.yul\":17331:17398   */\n      tag_296\n        /* \"#utility.yul\":17391:17397   */\n      dup3\n        /* \"#utility.yul\":17383:17389   */\n      dup3\n        /* \"#utility.yul\":17377:17381   */\n      dup6\n        /* \"#utility.yul\":17331:17398   */\n      tag_117\n      jump\t// in\n    tag_296:\n        /* \"#utility.yul\":17425:17426   */\n      0x00\n        /* \"#utility.yul\":17449:17453   */\n      0x20\n        /* \"#utility.yul\":17436:17453   */\n      swap1\n      pop\n        /* \"#utility.yul\":17481:17483   */\n      0x1f\n        /* \"#utility.yul\":17473:17479   */\n      dup4\n        /* \"#utility.yul\":17470:17484   */\n      gt\n        /* \"#utility.yul\":17498:17499   */\n      0x01\n        /* \"#utility.yul\":17493:18111   */\n      dup2\n      eq\n      tag_298\n      jumpi\n        /* \"#utility.yul\":18155:18156   */\n      0x00\n        /* \"#utility.yul\":18172:18178   */\n      dup5\n        /* \"#utility.yul\":18169:18246   */\n      iszero\n      tag_299\n      jumpi\n        /* \"#utility.yul\":18221:18230   */\n      dup3\n        /* \"#utility.yul\":18216:18219   */\n      dup8\n        /* \"#utility.yul\":18212:18231   */\n      add\n        /* \"#utility.yul\":18206:18232   */\n      mload\n        /* \"#utility.yul\":18197:18232   */\n      swap1\n      pop\n        /* \"#utility.yul\":18169:18246   */\n    tag_299:\n        /* \"#utility.yul\":18272:18339   */\n      tag_300\n        /* \"#utility.yul\":18332:18338   */\n      dup6\n        /* \"#utility.yul\":18325:18330   */\n      dup3\n        /* \"#utility.yul\":18272:18339   */\n      tag_120\n      jump\t// in\n    tag_300:\n        /* \"#utility.yul\":18266:18270   */\n      dup7\n        /* \"#utility.yul\":18259:18340   */\n      sstore\n        /* \"#utility.yul\":18128:18350   */\n      pop\n        /* \"#utility.yul\":17463:18350   */\n      jump(tag_297)\n        /* \"#utility.yul\":17493:18111   */\n    tag_298:\n        /* \"#utility.yul\":17545:17549   */\n      0x1f\n        /* \"#utility.yul\":17541:17550   */\n      not\n        /* \"#utility.yul\":17533:17539   */\n      dup5\n        /* \"#utility.yul\":17529:17551   */\n      and\n        /* \"#utility.yul\":17579:17616   */\n      tag_301\n        /* \"#utility.yul\":17611:17615   */\n      dup7\n        /* \"#utility.yul\":17579:17616   */\n      tag_106\n      jump\t// in\n    tag_301:\n        /* \"#utility.yul\":17638:17639   */\n      0x00\n        /* \"#utility.yul\":17652:17860   */\n    tag_302:\n        /* \"#utility.yul\":17666:17673   */\n      dup3\n        /* \"#utility.yul\":17663:17664   */\n      dup2\n        /* \"#utility.yul\":17660:17674   */\n      lt\n        /* \"#utility.yul\":17652:17860   */\n      iszero\n      tag_304\n      jumpi\n        /* \"#utility.yul\":17745:17754   */\n      dup5\n        /* \"#utility.yul\":17740:17743   */\n      dup10\n        /* \"#utility.yul\":17736:17755   */\n      add\n        /* \"#utility.yul\":17730:17756   */\n      mload\n        /* \"#utility.yul\":17722:17728   */\n      dup3\n        /* \"#utility.yul\":17715:17757   */\n      sstore\n        /* \"#utility.yul\":17796:17797   */\n      0x01\n        /* \"#utility.yul\":17788:17794   */\n      dup3\n        /* \"#utility.yul\":17784:17798   */\n      add\n        /* \"#utility.yul\":17774:17798   */\n      swap2\n      pop\n        /* \"#utility.yul\":17843:17845   */\n      0x20\n        /* \"#utility.yul\":17832:17841   */\n      dup6\n        /* \"#utility.yul\":17828:17846   */\n      add\n        /* \"#utility.yul\":17815:17846   */\n      swap5\n      pop\n        /* \"#utility.yul\":17689:17693   */\n      0x20\n        /* \"#utility.yul\":17686:17687   */\n      dup2\n        /* \"#utility.yul\":17682:17694   */\n      add\n        /* \"#utility.yul\":17677:17694   */\n      swap1\n      pop\n        /* \"#utility.yul\":17652:17860   */\n      jump(tag_302)\n    tag_304:\n        /* \"#utility.yul\":17888:17894   */\n      dup7\n        /* \"#utility.yul\":17879:17886   */\n      dup4\n        /* \"#utility.yul\":17876:17895   */\n      lt\n        /* \"#utility.yul\":17873:18052   */\n      iszero\n      tag_305\n      jumpi\n        /* \"#utility.yul\":17946:17955   */\n      dup5\n        /* \"#utility.yul\":17941:17944   */\n      dup10\n        /* \"#utility.yul\":17937:17956   */\n      add\n        /* \"#utility.yul\":17931:17957   */\n      mload\n        /* \"#utility.yul\":17989:18037   */\n      tag_306\n        /* \"#utility.yul\":18031:18035   */\n      0x1f\n        /* \"#utility.yul\":18023:18029   */\n      dup10\n        /* \"#utility.yul\":18019:18036   */\n      and\n        /* \"#utility.yul\":18008:18017   */\n      dup3\n        /* \"#utility.yul\":17989:18037   */\n      tag_119\n      jump\t// in\n    tag_306:\n        /* \"#utility.yul\":17981:17987   */\n      dup4\n        /* \"#utility.yul\":17974:18038   */\n      sstore\n        /* \"#utility.yul\":17896:18052   */\n      pop\n        /* \"#utility.yul\":17873:18052   */\n    tag_305:\n        /* \"#utility.yul\":18098:18099   */\n      0x01\n        /* \"#utility.yul\":18094:18095   */\n      0x02\n        /* \"#utility.yul\":18086:18092   */\n      dup9\n        /* \"#utility.yul\":18082:18096   */\n      mul\n        /* \"#utility.yul\":18078:18100   */\n      add\n        /* \"#utility.yul\":18072:18076   */\n      dup9\n        /* \"#utility.yul\":18065:18101   */\n      sstore\n        /* \"#utility.yul\":17500:18111   */\n      pop\n      pop\n      pop\n        /* \"#utility.yul\":17463:18350   */\n    tag_297:\n      pop\n        /* \"#utility.yul\":17053:18356   */\n      pop\n      pop\n      pop\n        /* \"#utility.yul\":16961:18356   */\n      pop\n      pop\n      jump\t// out\n        /* \"#utility.yul\":18362:18542   */\n    tag_58:\n        /* \"#utility.yul\":18410:18487   */\n      0x4e487b7100000000000000000000000000000000000000000000000000000000\n        /* \"#utility.yul\":18407:18408   */\n      0x00\n        /* \"#utility.yul\":18400:18488   */\n      mstore\n        /* \"#utility.yul\":18507:18511   */\n      0x32\n        /* \"#utility.yul\":18504:18505   */\n      0x04\n        /* \"#utility.yul\":18497:18512   */\n      mstore\n        /* \"#utility.yul\":18531:18535   */\n      0x24\n        /* \"#utility.yul\":18528:18529   */\n      0x00\n        /* \"#utility.yul\":18521:18536   */\n      revert\n\n    auxdata: 0xa26469706673582212205920ecfe633dbb80c60fe52ed1e343ccda591f000b84265a8617fe1de8e833f664736f6c63430008120033\n}\n",
				"bytecode": {
					"linkReferences": {},
					"object": "608060405234801561001057600080fd5b50611042806100206000396000f3fe608060405234801561001057600080fd5b506004361061004c5760003560e01c806305a1b4a91461005157806312e7ee1c146100845780637c9cd2bc146100b4578063c3ad5ecb146100d0575b600080fd5b61006b6004803603810190610066919061074d565b610100565b60405161007b949392919061083b565b60405180910390f35b61009e60048036038101906100999190610887565b6101f5565b6040516100ab9190610a41565b60405180910390f35b6100ce60048036038101906100c99190610b98565b61038e565b005b6100ea60048036038101906100e59190610be1565b6104f3565b6040516100f79190610c71565b60405180910390f35b6000602052816000526040600020818154811061011c57600080fd5b9060005260206000209060040201600091509150508060000160009054906101000a900473ffffffffffffffffffffffffffffffffffffffff169080600101805461016690610cc2565b80601f016020809104026020016040519081016040528092919081815260200182805461019290610cc2565b80156101df5780601f106101b4576101008083540402835291602001916101df565b820191906000526020600020905b8154815290600101906020018083116101c257829003601f168201915b5050505050908060020154908060030154905084565b60606000808373ffffffffffffffffffffffffffffffffffffffff1673ffffffffffffffffffffffffffffffffffffffff168152602001908152602001600020805480602002602001604051908101604052809291908181526020016000905b8282101561038357838290600052602060002090600402016040518060800160405290816000820160009054906101000a900473ffffffffffffffffffffffffffffffffffffffff1673ffffffffffffffffffffffffffffffffffffffff1673ffffffffffffffffffffffffffffffffffffffff1681526020016001820180546102de90610cc2565b80601f016020809104026020016040519081016040528092919081815260200182805461030a90610cc2565b80156103575780601f1061032c57610100808354040283529160200191610357565b820191906000526020600020905b81548152906001019060200180831161033a57829003601f168201915b505050505081526020016002820154815260200160038201548152505081526020019060010190610255565b505050509050919050565b61011861ffff16815111156103d8576040517f08c379a00000000000000000000000000000000000000000000000000000000081526004016103cf90610d3f565b60405180910390fd5b600060405180608001604052803373ffffffffffffffffffffffffffffffffffffffff168152602001838152602001428152602001600081525090506000803373ffffffffffffffffffffffffffffffffffffffff1673ffffffffffffffffffffffffffffffffffffffff16815260200190815260200160002081908060018154018082558091505060019003906000526020600020906004020160009091909190915060008201518160000160006101000a81548173ffffffffffffffffffffffffffffffffffffffff021916908373ffffffffffffffffffffffffffffffffffffffff16021790555060208201518160010190816104d89190610f0b565b50604082015181600201556060820151816003015550505050565b6104fb610667565b6000803373ffffffffffffffffffffffffffffffffffffffff1673ffffffffffffffffffffffffffffffffffffffff168152602001908152602001600020828154811061054b5761054a610fdd565b5b90600052602060002090600402016040518060800160405290816000820160009054906101000a900473ffffffffffffffffffffffffffffffffffffffff1673ffffffffffffffffffffffffffffffffffffffff1673ffffffffffffffffffffffffffffffffffffffff1681526020016001820180546105ca90610cc2565b80601f01602080910402602001604051908101604052809291908181526020018280546105f690610cc2565b80156106435780601f1061061857610100808354040283529160200191610643565b820191906000526020600020905b81548152906001019060200180831161062657829003601f168201915b50505050508152602001600282015481526020016003820154815250509050919050565b6040518060800160405280600073ffffffffffffffffffffffffffffffffffffffff1681526020016060815260200160008152602001600081525090565b6000604051905090565b600080fd5b600080fd5b600073ffffffffffffffffffffffffffffffffffffffff82169050919050565b60006106e4826106b9565b9050919050565b6106f4816106d9565b81146106ff57600080fd5b50565b600081359050610711816106eb565b92915050565b6000819050919050565b61072a81610717565b811461073557600080fd5b50565b60008135905061074781610721565b92915050565b60008060408385031215610764576107636106af565b5b600061077285828601610702565b925050602061078385828601610738565b9150509250929050565b610796816106d9565b82525050565b600081519050919050565b600082825260208201905092915050565b60005b838110156107d65780820151818401526020810190506107bb565b60008484015250505050565b6000601f19601f8301169050919050565b60006107fe8261079c565b61080881856107a7565b93506108188185602086016107b8565b610821816107e2565b840191505092915050565b61083581610717565b82525050565b6000608082019050610850600083018761078d565b818103602083015261086281866107f3565b9050610871604083018561082c565b61087e606083018461082c565b95945050505050565b60006020828403121561089d5761089c6106af565b5b60006108ab84828501610702565b91505092915050565b600081519050919050565b600082825260208201905092915050565b6000819050602082019050919050565b6108e9816106d9565b82525050565b600082825260208201905092915050565b600061090b8261079c565b61091581856108ef565b93506109258185602086016107b8565b61092e816107e2565b840191505092915050565b61094281610717565b82525050565b600060808301600083015161096060008601826108e0565b50602083015184820360208601526109788282610900565b915050604083015161098d6040860182610939565b5060608301516109a06060860182610939565b508091505092915050565b60006109b78383610948565b905092915050565b6000602082019050919050565b60006109d7826108b4565b6109e181856108bf565b9350836020820285016109f3856108d0565b8060005b85811015610a2f5784840389528151610a1085826109ab565b9450610a1b836109bf565b925060208a019950506001810190506109f7565b50829750879550505050505092915050565b60006020820190508181036000830152610a5b81846109cc565b905092915050565b600080fd5b600080fd5b7f4e487b7100000000000000000000000000000000000000000000000000000000600052604160045260246000fd5b610aa5826107e2565b810181811067ffffffffffffffff82111715610ac457610ac3610a6d565b5b80604052505050565b6000610ad76106a5565b9050610ae38282610a9c565b919050565b600067ffffffffffffffff821115610b0357610b02610a6d565b5b610b0c826107e2565b9050602081019050919050565b82818337600083830152505050565b6000610b3b610b3684610ae8565b610acd565b905082815260208101848484011115610b5757610b56610a68565b5b610b62848285610b19565b509392505050565b600082601f830112610b7f57610b7e610a63565b5b8135610b8f848260208601610b28565b91505092915050565b600060208284031215610bae57610bad6106af565b5b600082013567ffffffffffffffff811115610bcc57610bcb6106b4565b5b610bd884828501610b6a565b91505092915050565b600060208284031215610bf757610bf66106af565b5b6000610c0584828501610738565b91505092915050565b6000608083016000830151610c2660008601826108e0565b5060208301518482036020860152610c3e8282610900565b9150506040830151610c536040860182610939565b506060830151610c666060860182610939565b508091505092915050565b60006020820190508181036000830152610c8b8184610c0e565b905092915050565b7f4e487b7100000000000000000000000000000000000000000000000000000000600052602260045260246000fd5b60006002820490506001821680610cda57607f821691505b602082108103610ced57610cec610c93565b5b50919050565b7f547765657420697320746f6f206c6f6e672062726f2100000000000000000000600082015250565b6000610d296016836107a7565b9150610d3482610cf3565b602082019050919050565b60006020820190508181036000830152610d5881610d1c565b9050919050565b60008190508160005260206000209050919050565b60006020601f8301049050919050565b600082821b905092915050565b600060088302610dc17fffffffffffffffffffffffffffffffffffffffffffffffffffffffffffffffff82610d84565b610dcb8683610d84565b95508019841693508086168417925050509392505050565b6000819050919050565b6000610e08610e03610dfe84610717565b610de3565b610717565b9050919050565b6000819050919050565b610e2283610ded565b610e36610e2e82610e0f565b848454610d91565b825550505050565b600090565b610e4b610e3e565b610e56818484610e19565b505050565b5b81811015610e7a57610e6f600082610e43565b600181019050610e5c565b5050565b601f821115610ebf57610e9081610d5f565b610e9984610d74565b81016020851015610ea8578190505b610ebc610eb485610d74565b830182610e5b565b50505b505050565b600082821c905092915050565b6000610ee260001984600802610ec4565b1980831691505092915050565b6000610efb8383610ed1565b9150826002028217905092915050565b610f148261079c565b67ffffffffffffffff811115610f2d57610f2c610a6d565b5b610f378254610cc2565b610f42828285610e7e565b600060209050601f831160018114610f755760008415610f63578287015190505b610f6d8582610eef565b865550610fd5565b601f198416610f8386610d5f565b60005b82811015610fab57848901518255600182019150602085019450602081019050610f86565b86831015610fc85784890151610fc4601f891682610ed1565b8355505b6001600288020188555050505b505050505050565b7f4e487b7100000000000000000000000000000000000000000000000000000000600052603260045260246000fdfea26469706673582212205920ecfe633dbb80c60fe52ed1e343ccda591f000b84265a8617fe1de8e833f664736f6c63430008120033",
					"opcodes": "PUSH1 0x80 PUSH1 0x40 MSTORE CALLVALUE DUP1 ISZERO PUSH2 0x10 JUMPI PUSH1 0x0 DUP1 REVERT JUMPDEST POP PUSH2 0x1042 DUP1 PUSH2 0x20 PUSH1 0x0 CODECOPY PUSH1 0x0 RETURN INVALID PUSH1 0x80 PUSH1 0x40 MSTORE CALLVALUE DUP1 ISZERO PUSH2 0x10 JUMPI PUSH1 0x0 DUP1 REVERT JUMPDEST POP PUSH1 0x4 CALLDATASIZE LT PUSH2 0x4C JUMPI PUSH1 0x0 CALLDATALOAD PUSH1 0xE0 SHR DUP1 PUSH4 0x5A1B4A9 EQ PUSH2 0x51 JUMPI DUP1 PUSH4 0x12E7EE1C EQ PUSH2 0x84 JUMPI DUP1 PUSH4 0x7C9CD2BC EQ PUSH2 0xB4 JUMPI DUP1 PUSH4 0xC3AD5ECB EQ PUSH2 0xD0 JUMPI JUMPDEST PUSH1 0x0 DUP1 REVERT JUMPDEST PUSH2 0x6B PUSH1 0x4 DUP1 CALLDATASIZE SUB DUP2 ADD SWAP1 PUSH2 0x66 SWAP2 SWAP1 PUSH2 0x74D JUMP JUMPDEST PUSH2 0x100 JUMP JUMPDEST PUSH1 0x40 MLOAD PUSH2 0x7B SWAP5 SWAP4 SWAP3 SWAP2 SWAP1 PUSH2 0x83B JUMP JUMPDEST PUSH1 0x40 MLOAD DUP1 SWAP2 SUB SWAP1 RETURN JUMPDEST PUSH2 0x9E PUSH1 0x4 DUP1 CALLDATASIZE SUB DUP2 ADD SWAP1 PUSH2 0x99 SWAP2 SWAP1 PUSH2 0x887 JUMP JUMPDEST PUSH2 0x1F5 JUMP JUMPDEST PUSH1 0x40 MLOAD PUSH2 0xAB SWAP2 SWAP1 PUSH2 0xA41 JUMP JUMPDEST PUSH1 0x40 MLOAD DUP1 SWAP2 SUB SWAP1 RETURN JUMPDEST PUSH2 0xCE PUSH1 0x4 DUP1 CALLDATASIZE SUB DUP2 ADD SWAP1 PUSH2 0xC9 SWAP2 SWAP1 PUSH2 0xB98 JUMP JUMPDEST PUSH2 0x38E JUMP JUMPDEST STOP JUMPDEST PUSH2 0xEA PUSH1 0x4 DUP1 CALLDATASIZE SUB DUP2 ADD SWAP1 PUSH2 0xE5 SWAP2 SWAP1 PUSH2 0xBE1 JUMP JUMPDEST PUSH2 0x4F3 JUMP JUMPDEST PUSH1 0x40 MLOAD PUSH2 0xF7 SWAP2 SWAP1 PUSH2 0xC71 JUMP JUMPDEST PUSH1 0x40 MLOAD DUP1 SWAP2 SUB SWAP1 RETURN JUMPDEST PUSH1 0x0 PUSH1 0x20 MSTORE DUP2 PUSH1 0x0 MSTORE PUSH1 0x40 PUSH1 0x0 KECCAK256 DUP2 DUP2 SLOAD DUP2 LT PUSH2 0x11C JUMPI PUSH1 0x0 DUP1 REVERT JUMPDEST SWAP1 PUSH1 0x0 MSTORE PUSH1 0x20 PUSH1 0x0 KECCAK256 SWAP1 PUSH1 0x4 MUL ADD PUSH1 0x0 SWAP2 POP SWAP2 POP POP DUP1 PUSH1 0x0 ADD PUSH1 0x0 SWAP1 SLOAD SWAP1 PUSH2 0x100 EXP SWAP1 DIV PUSH20 0xFFFFFFFFFFFFFFFFFFFFFFFFFFFFFFFFFFFFFFFF AND SWAP1 DUP1 PUSH1 0x1 ADD DUP1 SLOAD PUSH2 0x166 SWAP1 PUSH2 0xCC2 JUMP JUMPDEST DUP1 PUSH1 0x1F ADD PUSH1 0x20 DUP1 SWAP2 DIV MUL PUSH1 0x20 ADD PUSH1 0x40 MLOAD SWAP1 DUP2 ADD PUSH1 0x40 MSTORE DUP1 SWAP3 SWAP2 SWAP1 DUP2 DUP2 MSTORE PUSH1 0x20 ADD DUP3 DUP1 SLOAD PUSH2 0x192 SWAP1 PUSH2 0xCC2 JUMP JUMPDEST DUP1 ISZERO PUSH2 0x1DF JUMPI DUP1 PUSH1 0x1F LT PUSH2 0x1B4 JUMPI PUSH2 0x100 DUP1 DUP4 SLOAD DIV MUL DUP4 MSTORE SWAP2 PUSH1 0x20 ADD SWAP2 PUSH2 0x1DF JUMP JUMPDEST DUP3 ADD SWAP2 SWAP1 PUSH1 0x0 MSTORE PUSH1 0x20 PUSH1 0x0 KECCAK256 SWAP1 JUMPDEST DUP2 SLOAD DUP2 MSTORE SWAP1 PUSH1 0x1 ADD SWAP1 PUSH1 0x20 ADD DUP1 DUP4 GT PUSH2 0x1C2 JUMPI DUP3 SWAP1 SUB PUSH1 0x1F AND DUP3 ADD SWAP2 JUMPDEST POP POP POP POP POP SWAP1 DUP1 PUSH1 0x2 ADD SLOAD SWAP1 DUP1 PUSH1 0x3 ADD SLOAD SWAP1 POP DUP5 JUMP JUMPDEST PUSH1 0x60 PUSH1 0x0 DUP1 DUP4 PUSH20 0xFFFFFFFFFFFFFFFFFFFFFFFFFFFFFFFFFFFFFFFF AND PUSH20 0xFFFFFFFFFFFFFFFFFFFFFFFFFFFFFFFFFFFFFFFF AND DUP2 MSTORE PUSH1 0x20 ADD SWAP1 DUP2 MSTORE PUSH1 0x20 ADD PUSH1 0x0 KECCAK256 DUP1 SLOAD DUP1 PUSH1 0x20 MUL PUSH1 0x20 ADD PUSH1 0x40 MLOAD SWAP1 DUP2 ADD PUSH1 0x40 MSTORE DUP1 SWAP3 SWAP2 SWAP1 DUP2 DUP2 MSTORE PUSH1 0x20 ADD PUSH1 0x0 SWAP1 JUMPDEST DUP3 DUP3 LT ISZERO PUSH2 0x383 JUMPI DUP4 DUP3 SWAP1 PUSH1 0x0 MSTORE PUSH1 0x20 PUSH1 0x0 KECCAK256 SWAP1 PUSH1 0x4 MUL ADD PUSH1 0x40 MLOAD DUP1 PUSH1 0x80 ADD PUSH1 0x40 MSTORE SWAP1 DUP2 PUSH1 0x0 DUP3 ADD PUSH1 0x0 SWAP1 SLOAD SWAP1 PUSH2 0x100 EXP SWAP1 DIV PUSH20 0xFFFFFFFFFFFFFFFFFFFFFFFFFFFFFFFFFFFFFFFF AND PUSH20 0xFFFFFFFFFFFFFFFFFFFFFFFFFFFFFFFFFFFFFFFF AND PUSH20 0xFFFFFFFFFFFFFFFFFFFFFFFFFFFFFFFFFFFFFFFF AND DUP2 MSTORE PUSH1 0x20 ADD PUSH1 0x1 DUP3 ADD DUP1 SLOAD PUSH2 0x2DE SWAP1 PUSH2 0xCC2 JUMP JUMPDEST DUP1 PUSH1 0x1F ADD PUSH1 0x20 DUP1 SWAP2 DIV MUL PUSH1 0x20 ADD PUSH1 0x40 MLOAD SWAP1 DUP2 ADD PUSH1 0x40 MSTORE DUP1 SWAP3 SWAP2 SWAP1 DUP2 DUP2 MSTORE PUSH1 0x20 ADD DUP3 DUP1 SLOAD PUSH2 0x30A SWAP1 PUSH2 0xCC2 JUMP JUMPDEST DUP1 ISZERO PUSH2 0x357 JUMPI DUP1 PUSH1 0x1F LT PUSH2 0x32C JUMPI PUSH2 0x100 DUP1 DUP4 SLOAD DIV MUL DUP4 MSTORE SWAP2 PUSH1 0x20 ADD SWAP2 PUSH2 0x357 JUMP JUMPDEST DUP3 ADD SWAP2 SWAP1 PUSH1 0x0 MSTORE PUSH1 0x20 PUSH1 0x0 KECCAK256 SWAP1 JUMPDEST DUP2 SLOAD DUP2 MSTORE SWAP1 PUSH1 0x1 ADD SWAP1 PUSH1 0x20 ADD DUP1 DUP4 GT PUSH2 0x33A JUMPI DUP3 SWAP1 SUB PUSH1 0x1F AND DUP3 ADD SWAP2 JUMPDEST POP POP POP POP POP DUP2 MSTORE PUSH1 0x20 ADD PUSH1 0x2 DUP3 ADD SLOAD DUP2 MSTORE PUSH1 0x20 ADD PUSH1 0x3 DUP3 ADD SLOAD DUP2 MSTORE POP POP DUP2 MSTORE PUSH1 0x20 ADD SWAP1 PUSH1 0x1 ADD SWAP1 PUSH2 0x255 JUMP JUMPDEST POP POP POP POP SWAP1 POP SWAP2 SWAP1 POP JUMP JUMPDEST PUSH2 0x118 PUSH2 0xFFFF AND DUP2 MLOAD GT ISZERO PUSH2 0x3D8 JUMPI PUSH1 0x40 MLOAD PUSH32 0x8C379A000000000000000000000000000000000000000000000000000000000 DUP2 MSTORE PUSH1 0x4 ADD PUSH2 0x3CF SWAP1 PUSH2 0xD3F JUMP JUMPDEST PUSH1 0x40 MLOAD DUP1 SWAP2 SUB SWAP1 REVERT JUMPDEST PUSH1 0x0 PUSH1 0x40 MLOAD DUP1 PUSH1 0x80 ADD PUSH1 0x40 MSTORE DUP1 CALLER PUSH20 0xFFFFFFFFFFFFFFFFFFFFFFFFFFFFFFFFFFFFFFFF AND DUP2 MSTORE PUSH1 0x20 ADD DUP4 DUP2 MSTORE PUSH1 0x20 ADD TIMESTAMP DUP2 MSTORE PUSH1 0x20 ADD PUSH1 0x0 DUP2 MSTORE POP SWAP1 POP PUSH1 0x0 DUP1 CALLER PUSH20 0xFFFFFFFFFFFFFFFFFFFFFFFFFFFFFFFFFFFFFFFF AND PUSH20 0xFFFFFFFFFFFFFFFFFFFFFFFFFFFFFFFFFFFFFFFF AND DUP2 MSTORE PUSH1 0x20 ADD SWAP1 DUP2 MSTORE PUSH1 0x20 ADD PUSH1 0x0 KECCAK256 DUP2 SWAP1 DUP1 PUSH1 0x1 DUP2 SLOAD ADD DUP1 DUP3 SSTORE DUP1 SWAP2 POP POP PUSH1 0x1 SWAP1 SUB SWAP1 PUSH1 0x0 MSTORE PUSH1 0x20 PUSH1 0x0 KECCAK256 SWAP1 PUSH1 0x4 MUL ADD PUSH1 0x0 SWAP1 SWAP2 SWAP1 SWAP2 SWAP1 SWAP2 POP PUSH1 0x0 DUP3 ADD MLOAD DUP2 PUSH1 0x0 ADD PUSH1 0x0 PUSH2 0x100 EXP DUP2 SLOAD DUP2 PUSH20 0xFFFFFFFFFFFFFFFFFFFFFFFFFFFFFFFFFFFFFFFF MUL NOT AND SWAP1 DUP4 PUSH20 0xFFFFFFFFFFFFFFFFFFFFFFFFFFFFFFFFFFFFFFFF AND MUL OR SWAP1 SSTORE POP PUSH1 0x20 DUP3 ADD MLOAD DUP2 PUSH1 0x1 ADD SWAP1 DUP2 PUSH2 0x4D8 SWAP2 SWAP1 PUSH2 0xF0B JUMP JUMPDEST POP PUSH1 0x40 DUP3 ADD MLOAD DUP2 PUSH1 0x2 ADD SSTORE PUSH1 0x60 DUP3 ADD MLOAD DUP2 PUSH1 0x3 ADD SSTORE POP POP POP POP JUMP JUMPDEST PUSH2 0x4FB PUSH2 0x667 JUMP JUMPDEST PUSH1 0x0 DUP1 CALLER PUSH20 0xFFFFFFFFFFFFFFFFFFFFFFFFFFFFFFFFFFFFFFFF AND PUSH20 0xFFFFFFFFFFFFFFFFFFFFFFFFFFFFFFFFFFFFFFFF AND DUP2 MSTORE PUSH1 0x20 ADD SWAP1 DUP2 MSTORE PUSH1 0x20 ADD PUSH1 0x0 KECCAK256 DUP3 DUP2 SLOAD DUP2 LT PUSH2 0x54B JUMPI PUSH2 0x54A PUSH2 0xFDD JUMP JUMPDEST JUMPDEST SWAP1 PUSH1 0x0 MSTORE PUSH1 0x20 PUSH1 0x0 KECCAK256 SWAP1 PUSH1 0x4 MUL ADD PUSH1 0x40 MLOAD DUP1 PUSH1 0x80 ADD PUSH1 0x40 MSTORE SWAP1 DUP2 PUSH1 0x0 DUP3 ADD PUSH1 0x0 SWAP1 SLOAD SWAP1 PUSH2 0x100 EXP SWAP1 DIV PUSH20 0xFFFFFFFFFFFFFFFFFFFFFFFFFFFFFFFFFFFFFFFF AND PUSH20 0xFFFFFFFFFFFFFFFFFFFFFFFFFFFFFFFFFFFFFFFF AND PUSH20 0xFFFFFFFFFFFFFFFFFFFFFFFFFFFFFFFFFFFFFFFF AND DUP2 MSTORE PUSH1 0x20 ADD PUSH1 0x1 DUP3 ADD DUP1 SLOAD PUSH2 0x5CA SWAP1 PUSH2 0xCC2 JUMP JUMPDEST DUP1 PUSH1 0x1F ADD PUSH1 0x20 DUP1 SWAP2 DIV MUL PUSH1 0x20 ADD PUSH1 0x40 MLOAD SWAP1 DUP2 ADD PUSH1 0x40 MSTORE DUP1 SWAP3 SWAP2 SWAP1 DUP2 DUP2 MSTORE PUSH1 0x20 ADD DUP3 DUP1 SLOAD PUSH2 0x5F6 SWAP1 PUSH2 0xCC2 JUMP JUMPDEST DUP1 ISZERO PUSH2 0x643 JUMPI DUP1 PUSH1 0x1F LT PUSH2 0x618 JUMPI PUSH2 0x100 DUP1 DUP4 SLOAD DIV MUL DUP4 MSTORE SWAP2 PUSH1 0x20 ADD SWAP2 PUSH2 0x643 JUMP JUMPDEST DUP3 ADD SWAP2 SWAP1 PUSH1 0x0 MSTORE PUSH1 0x20 PUSH1 0x0 KECCAK256 SWAP1 JUMPDEST DUP2 SLOAD DUP2 MSTORE SWAP1 PUSH1 0x1 ADD SWAP1 PUSH1 0x20 ADD DUP1 DUP4 GT PUSH2 0x626 JUMPI DUP3 SWAP1 SUB PUSH1 0x1F AND DUP3 ADD SWAP2 JUMPDEST POP POP POP POP POP DUP2 MSTORE PUSH1 0x20 ADD PUSH1 0x2 DUP3 ADD SLOAD DUP2 MSTORE PUSH1 0x20 ADD PUSH1 0x3 DUP3 ADD SLOAD DUP2 MSTORE POP POP SWAP1 POP SWAP2 SWAP1 POP JUMP JUMPDEST PUSH1 0x40 MLOAD DUP1 PUSH1 0x80 ADD PUSH1 0x40 MSTORE DUP1 PUSH1 0x0 PUSH20 0xFFFFFFFFFFFFFFFFFFFFFFFFFFFFFFFFFFFFFFFF AND DUP2 MSTORE PUSH1 0x20 ADD PUSH1 0x60 DUP2 MSTORE PUSH1 0x20 ADD PUSH1 0x0 DUP2 MSTORE PUSH1 0x20 ADD PUSH1 0x0 DUP2 MSTORE POP SWAP1 JUMP JUMPDEST PUSH1 0x0 PUSH1 0x40 MLOAD SWAP1 POP SWAP1 JUMP JUMPDEST PUSH1 0x0 DUP1 REVERT JUMPDEST PUSH1 0x0 DUP1 REVERT JUMPDEST PUSH1 0x0 PUSH20 0xFFFFFFFFFFFFFFFFFFFFFFFFFFFFFFFFFFFFFFFF DUP3 AND SWAP1 POP SWAP2 SWAP1 POP JUMP JUMPDEST PUSH1 0x0 PUSH2 0x6E4 DUP3 PUSH2 0x6B9 JUMP JUMPDEST SWAP1 POP SWAP2 SWAP1 POP JUMP JUMPDEST PUSH2 0x6F4 DUP2 PUSH2 0x6D9 JUMP JUMPDEST DUP2 EQ PUSH2 0x6FF JUMPI PUSH1 0x0 DUP1 REVERT JUMPDEST POP JUMP JUMPDEST PUSH1 0x0 DUP2 CALLDATALOAD SWAP1 POP PUSH2 0x711 DUP2 PUSH2 0x6EB JUMP JUMPDEST SWAP3 SWAP2 POP POP JUMP JUMPDEST PUSH1 0x0 DUP2 SWAP1 POP SWAP2 SWAP1 POP JUMP JUMPDEST PUSH2 0x72A DUP2 PUSH2 0x717 JUMP JUMPDEST DUP2 EQ PUSH2 0x735 JUMPI PUSH1 0x0 DUP1 REVERT JUMPDEST POP JUMP JUMPDEST PUSH1 0x0 DUP2 CALLDATALOAD SWAP1 POP PUSH2 0x747 DUP2 PUSH2 0x721 JUMP JUMPDEST SWAP3 SWAP2 POP POP JUMP JUMPDEST PUSH1 0x0 DUP1 PUSH1 0x40 DUP4 DUP6 SUB SLT ISZERO PUSH2 0x764 JUMPI PUSH2 0x763 PUSH2 0x6AF JUMP JUMPDEST JUMPDEST PUSH1 0x0 PUSH2 0x772 DUP6 DUP3 DUP7 ADD PUSH2 0x702 JUMP JUMPDEST SWAP3 POP POP PUSH1 0x20 PUSH2 0x783 DUP6 DUP3 DUP7 ADD PUSH2 0x738 JUMP JUMPDEST SWAP2 POP POP SWAP3 POP SWAP3 SWAP1 POP JUMP JUMPDEST PUSH2 0x796 DUP2 PUSH2 0x6D9 JUMP JUMPDEST DUP3 MSTORE POP POP JUMP JUMPDEST PUSH1 0x0 DUP2 MLOAD SWAP1 POP SWAP2 SWAP1 POP JUMP JUMPDEST PUSH1 0x0 DUP3 DUP3 MSTORE PUSH1 0x20 DUP3 ADD SWAP1 POP SWAP3 SWAP2 POP POP JUMP JUMPDEST PUSH1 0x0 JUMPDEST DUP4 DUP2 LT ISZERO PUSH2 0x7D6 JUMPI DUP1 DUP3 ADD MLOAD DUP2 DUP5 ADD MSTORE PUSH1 0x20 DUP2 ADD SWAP1 POP PUSH2 0x7BB JUMP JUMPDEST PUSH1 0x0 DUP5 DUP5 ADD MSTORE POP POP POP POP JUMP JUMPDEST PUSH1 0x0 PUSH1 0x1F NOT PUSH1 0x1F DUP4 ADD AND SWAP1 POP SWAP2 SWAP1 POP JUMP JUMPDEST PUSH1 0x0 PUSH2 0x7FE DUP3 PUSH2 0x79C JUMP JUMPDEST PUSH2 0x808 DUP2 DUP6 PUSH2 0x7A7 JUMP JUMPDEST SWAP4 POP PUSH2 0x818 DUP2 DUP6 PUSH1 0x20 DUP7 ADD PUSH2 0x7B8 JUMP JUMPDEST PUSH2 0x821 DUP2 PUSH2 0x7E2 JUMP JUMPDEST DUP5 ADD SWAP2 POP POP SWAP3 SWAP2 POP POP JUMP JUMPDEST PUSH2 0x835 DUP2 PUSH2 0x717 JUMP JUMPDEST DUP3 MSTORE POP POP JUMP JUMPDEST PUSH1 0x0 PUSH1 0x80 DUP3 ADD SWAP1 POP PUSH2 0x850 PUSH1 0x0 DUP4 ADD DUP8 PUSH2 0x78D JUMP JUMPDEST DUP2 DUP2 SUB PUSH1 0x20 DUP4 ADD MSTORE PUSH2 0x862 DUP2 DUP7 PUSH2 0x7F3 JUMP JUMPDEST SWAP1 POP PUSH2 0x871 PUSH1 0x40 DUP4 ADD DUP6 PUSH2 0x82C JUMP JUMPDEST PUSH2 0x87E PUSH1 0x60 DUP4 ADD DUP5 PUSH2 0x82C JUMP JUMPDEST SWAP6 SWAP5 POP POP POP POP POP JUMP JUMPDEST PUSH1 0x0 PUSH1 0x20 DUP3 DUP5 SUB SLT ISZERO PUSH2 0x89D JUMPI PUSH2 0x89C PUSH2 0x6AF JUMP JUMPDEST JUMPDEST PUSH1 0x0 PUSH2 0x8AB DUP5 DUP3 DUP6 ADD PUSH2 0x702 JUMP JUMPDEST SWAP2 POP POP SWAP3 SWAP2 POP POP JUMP JUMPDEST PUSH1 0x0 DUP2 MLOAD SWAP1 POP SWAP2 SWAP1 POP JUMP JUMPDEST PUSH1 0x0 DUP3 DUP3 MSTORE PUSH1 0x20 DUP3 ADD SWAP1 POP SWAP3 SWAP2 POP POP JUMP JUMPDEST PUSH1 0x0 DUP2 SWAP1 POP PUSH1 0x20 DUP3 ADD SWAP1 POP SWAP2 SWAP1 POP JUMP JUMPDEST PUSH2 0x8E9 DUP2 PUSH2 0x6D9 JUMP JUMPDEST DUP3 MSTORE POP POP JUMP JUMPDEST PUSH1 0x0 DUP3 DUP3 MSTORE PUSH1 0x20 DUP3 ADD SWAP1 POP SWAP3 SWAP2 POP POP JUMP JUMPDEST PUSH1 0x0 PUSH2 0x90B DUP3 PUSH2 0x79C JUMP JUMPDEST PUSH2 0x915 DUP2 DUP6 PUSH2 0x8EF JUMP JUMPDEST SWAP4 POP PUSH2 0x925 DUP2 DUP6 PUSH1 0x20 DUP7 ADD PUSH2 0x7B8 JUMP JUMPDEST PUSH2 0x92E DUP2 PUSH2 0x7E2 JUMP JUMPDEST DUP5 ADD SWAP2 POP POP SWAP3 SWAP2 POP POP JUMP JUMPDEST PUSH2 0x942 DUP2 PUSH2 0x717 JUMP JUMPDEST DUP3 MSTORE POP POP JUMP JUMPDEST PUSH1 0x0 PUSH1 0x80 DUP4 ADD PUSH1 0x0 DUP4 ADD MLOAD PUSH2 0x960 PUSH1 0x0 DUP7 ADD DUP3 PUSH2 0x8E0 JUMP JUMPDEST POP PUSH1 0x20 DUP4 ADD MLOAD DUP5 DUP3 SUB PUSH1 0x20 DUP7 ADD MSTORE PUSH2 0x978 DUP3 DUP3 PUSH2 0x900 JUMP JUMPDEST SWAP2 POP POP PUSH1 0x40 DUP4 ADD MLOAD PUSH2 0x98D PUSH1 0x40 DUP7 ADD DUP3 PUSH2 0x939 JUMP JUMPDEST POP PUSH1 0x60 DUP4 ADD MLOAD PUSH2 0x9A0 PUSH1 0x60 DUP7 ADD DUP3 PUSH2 0x939 JUMP JUMPDEST POP DUP1 SWAP2 POP POP SWAP3 SWAP2 POP POP JUMP JUMPDEST PUSH1 0x0 PUSH2 0x9B7 DUP4 DUP4 PUSH2 0x948 JUMP JUMPDEST SWAP1 POP SWAP3 SWAP2 POP POP JUMP JUMPDEST PUSH1 0x0 PUSH1 0x20 DUP3 ADD SWAP1 POP SWAP2 SWAP1 POP JUMP JUMPDEST PUSH1 0x0 PUSH2 0x9D7 DUP3 PUSH2 0x8B4 JUMP JUMPDEST PUSH2 0x9E1 DUP2 DUP6 PUSH2 0x8BF JUMP JUMPDEST SWAP4 POP DUP4 PUSH1 0x20 DUP3 MUL DUP6 ADD PUSH2 0x9F3 DUP6 PUSH2 0x8D0 JUMP JUMPDEST DUP1 PUSH1 0x0 JUMPDEST DUP6 DUP2 LT ISZERO PUSH2 0xA2F JUMPI DUP5 DUP5 SUB DUP10 MSTORE DUP2 MLOAD PUSH2 0xA10 DUP6 DUP3 PUSH2 0x9AB JUMP JUMPDEST SWAP5 POP PUSH2 0xA1B DUP4 PUSH2 0x9BF JUMP JUMPDEST SWAP3 POP PUSH1 0x20 DUP11 ADD SWAP10 POP POP PUSH1 0x1 DUP2 ADD SWAP1 POP PUSH2 0x9F7 JUMP JUMPDEST POP DUP3 SWAP8 POP DUP8 SWAP6 POP POP POP POP POP POP SWAP3 SWAP2 POP POP JUMP JUMPDEST PUSH1 0x0 PUSH1 0x20 DUP3 ADD SWAP1 POP DUP2 DUP2 SUB PUSH1 0x0 DUP4 ADD MSTORE PUSH2 0xA5B DUP2 DUP5 PUSH2 0x9CC JUMP JUMPDEST SWAP1 POP SWAP3 SWAP2 POP POP JUMP JUMPDEST PUSH1 0x0 DUP1 REVERT JUMPDEST PUSH1 0x0 DUP1 REVERT JUMPDEST PUSH32 0x4E487B7100000000000000000000000000000000000000000000000000000000 PUSH1 0x0 MSTORE PUSH1 0x41 PUSH1 0x4 MSTORE PUSH1 0x24 PUSH1 0x0 REVERT JUMPDEST PUSH2 0xAA5 DUP3 PUSH2 0x7E2 JUMP JUMPDEST DUP2 ADD DUP2 DUP2 LT PUSH8 0xFFFFFFFFFFFFFFFF DUP3 GT OR ISZERO PUSH2 0xAC4 JUMPI PUSH2 0xAC3 PUSH2 0xA6D JUMP JUMPDEST JUMPDEST DUP1 PUSH1 0x40 MSTORE POP POP POP JUMP JUMPDEST PUSH1 0x0 PUSH2 0xAD7 PUSH2 0x6A5 JUMP JUMPDEST SWAP1 POP PUSH2 0xAE3 DUP3 DUP3 PUSH2 0xA9C JUMP JUMPDEST SWAP2 SWAP1 POP JUMP JUMPDEST PUSH1 0x0 PUSH8 0xFFFFFFFFFFFFFFFF DUP3 GT ISZERO PUSH2 0xB03 JUMPI PUSH2 0xB02 PUSH2 0xA6D JUMP JUMPDEST JUMPDEST PUSH2 0xB0C DUP3 PUSH2 0x7E2 JUMP JUMPDEST SWAP1 POP PUSH1 0x20 DUP2 ADD SWAP1 POP SWAP2 SWAP1 POP JUMP JUMPDEST DUP3 DUP2 DUP4 CALLDATACOPY PUSH1 0x0 DUP4 DUP4 ADD MSTORE POP POP POP JUMP JUMPDEST PUSH1 0x0 PUSH2 0xB3B PUSH2 0xB36 DUP5 PUSH2 0xAE8 JUMP JUMPDEST PUSH2 0xACD JUMP JUMPDEST SWAP1 POP DUP3 DUP2 MSTORE PUSH1 0x20 DUP2 ADD DUP5 DUP5 DUP5 ADD GT ISZERO PUSH2 0xB57 JUMPI PUSH2 0xB56 PUSH2 0xA68 JUMP JUMPDEST JUMPDEST PUSH2 0xB62 DUP5 DUP3 DUP6 PUSH2 0xB19 JUMP JUMPDEST POP SWAP4 SWAP3 POP POP POP JUMP JUMPDEST PUSH1 0x0 DUP3 PUSH1 0x1F DUP4 ADD SLT PUSH2 0xB7F JUMPI PUSH2 0xB7E PUSH2 0xA63 JUMP JUMPDEST JUMPDEST DUP2 CALLDATALOAD PUSH2 0xB8F DUP5 DUP3 PUSH1 0x20 DUP7 ADD PUSH2 0xB28 JUMP JUMPDEST SWAP2 POP POP SWAP3 SWAP2 POP POP JUMP JUMPDEST PUSH1 0x0 PUSH1 0x20 DUP3 DUP5 SUB SLT ISZERO PUSH2 0xBAE JUMPI PUSH2 0xBAD PUSH2 0x6AF JUMP JUMPDEST JUMPDEST PUSH1 0x0 DUP3 ADD CALLDATALOAD PUSH8 0xFFFFFFFFFFFFFFFF DUP2 GT ISZERO PUSH2 0xBCC JUMPI PUSH2 0xBCB PUSH2 0x6B4 JUMP JUMPDEST JUMPDEST PUSH2 0xBD8 DUP5 DUP3 DUP6 ADD PUSH2 0xB6A JUMP JUMPDEST SWAP2 POP POP SWAP3 SWAP2 POP POP JUMP JUMPDEST PUSH1 0x0 PUSH1 0x20 DUP3 DUP5 SUB SLT ISZERO PUSH2 0xBF7 JUMPI PUSH2 0xBF6 PUSH2 0x6AF JUMP JUMPDEST JUMPDEST PUSH1 0x0 PUSH2 0xC05 DUP5 DUP3 DUP6 ADD PUSH2 0x738 JUMP JUMPDEST SWAP2 POP POP SWAP3 SWAP2 POP POP JUMP JUMPDEST PUSH1 0x0 PUSH1 0x80 DUP4 ADD PUSH1 0x0 DUP4 ADD MLOAD PUSH2 0xC26 PUSH1 0x0 DUP7 ADD DUP3 PUSH2 0x8E0 JUMP JUMPDEST POP PUSH1 0x20 DUP4 ADD MLOAD DUP5 DUP3 SUB PUSH1 0x20 DUP7 ADD MSTORE PUSH2 0xC3E DUP3 DUP3 PUSH2 0x900 JUMP JUMPDEST SWAP2 POP POP PUSH1 0x40 DUP4 ADD MLOAD PUSH2 0xC53 PUSH1 0x40 DUP7 ADD DUP3 PUSH2 0x939 JUMP JUMPDEST POP PUSH1 0x60 DUP4 ADD MLOAD PUSH2 0xC66 PUSH1 0x60 DUP7 ADD DUP3 PUSH2 0x939 JUMP JUMPDEST POP DUP1 SWAP2 POP POP SWAP3 SWAP2 POP POP JUMP JUMPDEST PUSH1 0x0 PUSH1 0x20 DUP3 ADD SWAP1 POP DUP2 DUP2 SUB PUSH1 0x0 DUP4 ADD MSTORE PUSH2 0xC8B DUP2 DUP5 PUSH2 0xC0E JUMP JUMPDEST SWAP1 POP SWAP3 SWAP2 POP POP JUMP JUMPDEST PUSH32 0x4E487B7100000000000000000000000000000000000000000000000000000000 PUSH1 0x0 MSTORE PUSH1 0x22 PUSH1 0x4 MSTORE PUSH1 0x24 PUSH1 0x0 REVERT JUMPDEST PUSH1 0x0 PUSH1 0x2 DUP3 DIV SWAP1 POP PUSH1 0x1 DUP3 AND DUP1 PUSH2 0xCDA JUMPI PUSH1 0x7F DUP3 AND SWAP2 POP JUMPDEST PUSH1 0x20 DUP3 LT DUP2 SUB PUSH2 0xCED JUMPI PUSH2 0xCEC PUSH2 0xC93 JUMP JUMPDEST JUMPDEST POP SWAP2 SWAP1 POP JUMP JUMPDEST PUSH32 0x547765657420697320746F6F206C6F6E672062726F2100000000000000000000 PUSH1 0x0 DUP3 ADD MSTORE POP JUMP JUMPDEST PUSH1 0x0 PUSH2 0xD29 PUSH1 0x16 DUP4 PUSH2 0x7A7 JUMP JUMPDEST SWAP2 POP PUSH2 0xD34 DUP3 PUSH2 0xCF3 JUMP JUMPDEST PUSH1 0x20 DUP3 ADD SWAP1 POP SWAP2 SWAP1 POP JUMP JUMPDEST PUSH1 0x0 PUSH1 0x20 DUP3 ADD SWAP1 POP DUP2 DUP2 SUB PUSH1 0x0 DUP4 ADD MSTORE PUSH2 0xD58 DUP2 PUSH2 0xD1C JUMP JUMPDEST SWAP1 POP SWAP2 SWAP1 POP JUMP JUMPDEST PUSH1 0x0 DUP2 SWAP1 POP DUP2 PUSH1 0x0 MSTORE PUSH1 0x20 PUSH1 0x0 KECCAK256 SWAP1 POP SWAP2 SWAP1 POP JUMP JUMPDEST PUSH1 0x0 PUSH1 0x20 PUSH1 0x1F DUP4 ADD DIV SWAP1 POP SWAP2 SWAP1 POP JUMP JUMPDEST PUSH1 0x0 DUP3 DUP3 SHL SWAP1 POP SWAP3 SWAP2 POP POP JUMP JUMPDEST PUSH1 0x0 PUSH1 0x8 DUP4 MUL PUSH2 0xDC1 PUSH32 0xFFFFFFFFFFFFFFFFFFFFFFFFFFFFFFFFFFFFFFFFFFFFFFFFFFFFFFFFFFFFFFFF DUP3 PUSH2 0xD84 JUMP JUMPDEST PUSH2 0xDCB DUP7 DUP4 PUSH2 0xD84 JUMP JUMPDEST SWAP6 POP DUP1 NOT DUP5 AND SWAP4 POP DUP1 DUP7 AND DUP5 OR SWAP3 POP POP POP SWAP4 SWAP3 POP POP POP JUMP JUMPDEST PUSH1 0x0 DUP2 SWAP1 POP SWAP2 SWAP1 POP JUMP JUMPDEST PUSH1 0x0 PUSH2 0xE08 PUSH2 0xE03 PUSH2 0xDFE DUP5 PUSH2 0x717 JUMP JUMPDEST PUSH2 0xDE3 JUMP JUMPDEST PUSH2 0x717 JUMP JUMPDEST SWAP1 POP SWAP2 SWAP1 POP JUMP JUMPDEST PUSH1 0x0 DUP2 SWAP1 POP SWAP2 SWAP1 POP JUMP JUMPDEST PUSH2 0xE22 DUP4 PUSH2 0xDED JUMP JUMPDEST PUSH2 0xE36 PUSH2 0xE2E DUP3 PUSH2 0xE0F JUMP JUMPDEST DUP5 DUP5 SLOAD PUSH2 0xD91 JUMP JUMPDEST DUP3 SSTORE POP POP POP POP JUMP JUMPDEST PUSH1 0x0 SWAP1 JUMP JUMPDEST PUSH2 0xE4B PUSH2 0xE3E JUMP JUMPDEST PUSH2 0xE56 DUP2 DUP5 DUP5 PUSH2 0xE19 JUMP JUMPDEST POP POP POP JUMP JUMPDEST JUMPDEST DUP2 DUP2 LT ISZERO PUSH2 0xE7A JUMPI PUSH2 0xE6F PUSH1 0x0 DUP3 PUSH2 0xE43 JUMP JUMPDEST PUSH1 0x1 DUP2 ADD SWAP1 POP PUSH2 0xE5C JUMP JUMPDEST POP POP JUMP JUMPDEST PUSH1 0x1F DUP3 GT ISZERO PUSH2 0xEBF JUMPI PUSH2 0xE90 DUP2 PUSH2 0xD5F JUMP JUMPDEST PUSH2 0xE99 DUP5 PUSH2 0xD74 JUMP JUMPDEST DUP2 ADD PUSH1 0x20 DUP6 LT ISZERO PUSH2 0xEA8 JUMPI DUP2 SWAP1 POP JUMPDEST PUSH2 0xEBC PUSH2 0xEB4 DUP6 PUSH2 0xD74 JUMP JUMPDEST DUP4 ADD DUP3 PUSH2 0xE5B JUMP JUMPDEST POP POP JUMPDEST POP POP POP JUMP JUMPDEST PUSH1 0x0 DUP3 DUP3 SHR SWAP1 POP SWAP3 SWAP2 POP POP JUMP JUMPDEST PUSH1 0x0 PUSH2 0xEE2 PUSH1 0x0 NOT DUP5 PUSH1 0x8 MUL PUSH2 0xEC4 JUMP JUMPDEST NOT DUP1 DUP4 AND SWAP2 POP POP SWAP3 SWAP2 POP POP JUMP JUMPDEST PUSH1 0x0 PUSH2 0xEFB DUP4 DUP4 PUSH2 0xED1 JUMP JUMPDEST SWAP2 POP DUP3 PUSH1 0x2 MUL DUP3 OR SWAP1 POP SWAP3 SWAP2 POP POP JUMP JUMPDEST PUSH2 0xF14 DUP3 PUSH2 0x79C JUMP JUMPDEST PUSH8 0xFFFFFFFFFFFFFFFF DUP2 GT ISZERO PUSH2 0xF2D JUMPI PUSH2 0xF2C PUSH2 0xA6D JUMP JUMPDEST JUMPDEST PUSH2 0xF37 DUP3 SLOAD PUSH2 0xCC2 JUMP JUMPDEST PUSH2 0xF42 DUP3 DUP3 DUP6 PUSH2 0xE7E JUMP JUMPDEST PUSH1 0x0 PUSH1 0x20 SWAP1 POP PUSH1 0x1F DUP4 GT PUSH1 0x1 DUP2 EQ PUSH2 0xF75 JUMPI PUSH1 0x0 DUP5 ISZERO PUSH2 0xF63 JUMPI DUP3 DUP8 ADD MLOAD SWAP1 POP JUMPDEST PUSH2 0xF6D DUP6 DUP3 PUSH2 0xEEF JUMP JUMPDEST DUP7 SSTORE POP PUSH2 0xFD5 JUMP JUMPDEST PUSH1 0x1F NOT DUP5 AND PUSH2 0xF83 DUP7 PUSH2 0xD5F JUMP JUMPDEST PUSH1 0x0 JUMPDEST DUP3 DUP2 LT ISZERO PUSH2 0xFAB JUMPI DUP5 DUP10 ADD MLOAD DUP3 SSTORE PUSH1 0x1 DUP3 ADD SWAP2 POP PUSH1 0x20 DUP6 ADD SWAP5 POP PUSH1 0x20 DUP2 ADD SWAP1 POP PUSH2 0xF86 JUMP JUMPDEST DUP7 DUP4 LT ISZERO PUSH2 0xFC8 JUMPI DUP5 DUP10 ADD MLOAD PUSH2 0xFC4 PUSH1 0x1F DUP10 AND DUP3 PUSH2 0xED1 JUMP JUMPDEST DUP4 SSTORE POP JUMPDEST PUSH1 0x1 PUSH1 0x2 DUP9 MUL ADD DUP9 SSTORE POP POP POP JUMPDEST POP POP POP POP POP POP JUMP JUMPDEST PUSH32 0x4E487B7100000000000000000000000000000000000000000000000000000000 PUSH1 0x0 MSTORE PUSH1 0x32 PUSH1 0x4 MSTORE PUSH1 0x24 PUSH1 0x0 REVERT INVALID LOG2 PUSH5 0x6970667358 0x22 SLT KECCAK256 MSIZE KECCAK256 0xEC INVALID PUSH4 0x3DBB80C6 0xF 0xE5 0x2E 0xD1 0xE3 NUMBER 0xCC 0xDA MSIZE 0x1F STOP SIGNEXTEND DUP5 0x26 GAS DUP7 OR INVALID SAR 0xE8 0xE8 CALLER 0xF6 PUSH5 0x736F6C6343 STOP ADDMOD SLT STOP CALLER "
				},
				"gasEstimates": {
					"creation": {
						"codeDepositCost": "832400",
						"executionCost": "870",
						"totalCost": "833270"
					},
					"external": {
						"createTweet(string)": "infinite",
						"getAllTweets(address)": "infinite",
						"getTweet(uint256)": "infinite",
						"tweets(address,uint256)": "infinite"
					}
				},
				"methodIdentifiers": {
					"createTweet(string)": "7c9cd2bc",
					"getAllTweets(address)": "12e7ee1c",
					"getTweet(uint256)": "c3ad5ecb",
					"tweets(address,uint256)": "05a1b4a9"
				}
			},
			"storageLayout": {
				"storage": [
					{
						"astId": 19,
						"contract": "contracts/CYW/test/Copy_Solutions/15-Twitter-Require-Solution.sol:Twitter",
						"label": "tweets",
						"offset": 0,
						"slot": "0",
						"type": "t_mapping(t_address,t_array(t_struct(Tweet)13_storage)dyn_storage)"
					}
				],
				"types": {
					"t_address": {
						"encoding": "inplace",
						"label": "address",
						"numberOfBytes": "20"
					},
					"t_array(t_struct(Tweet)13_storage)dyn_storage": {
						"base": "t_struct(Tweet)13_storage",
						"encoding": "dynamic_array",
						"label": "struct Twitter.Tweet[]",
						"numberOfBytes": "32"
					},
					"t_mapping(t_address,t_array(t_struct(Tweet)13_storage)dyn_storage)": {
						"encoding": "mapping",
						"key": "t_address",
						"label": "mapping(address => struct Twitter.Tweet[])",
						"numberOfBytes": "32",
						"value": "t_array(t_struct(Tweet)13_storage)dyn_storage"
					},
					"t_string_storage": {
						"encoding": "bytes",
						"label": "string",
						"numberOfBytes": "32"
					},
					"t_struct(Tweet)13_storage": {
						"encoding": "inplace",
						"label": "struct Twitter.Tweet",
						"members": [
							{
								"astId": 6,
								"contract": "contracts/CYW/test/Copy_Solutions/15-Twitter-Require-Solution.sol:Twitter",
								"label": "author",
								"offset": 0,
								"slot": "0",
								"type": "t_address"
							},
							{
								"astId": 8,
								"contract": "contracts/CYW/test/Copy_Solutions/15-Twitter-Require-Solution.sol:Twitter",
								"label": "content",
								"offset": 0,
								"slot": "1",
								"type": "t_string_storage"
							},
							{
								"astId": 10,
								"contract": "contracts/CYW/test/Copy_Solutions/15-Twitter-Require-Solution.sol:Twitter",
								"label": "timestamp",
								"offset": 0,
								"slot": "2",
								"type": "t_uint256"
							},
							{
								"astId": 12,
								"contract": "contracts/CYW/test/Copy_Solutions/15-Twitter-Require-Solution.sol:Twitter",
								"label": "likes",
								"offset": 0,
								"slot": "3",
								"type": "t_uint256"
							}
						],
						"numberOfBytes": "128"
					},
					"t_uint256": {
						"encoding": "inplace",
						"label": "uint256",
						"numberOfBytes": "32"
					}
				}
			},
			"userdoc": {
				"kind": "user",
				"methods": {},
				"version": 1
			}
		}
	}
}